{
  "_format": "hh-sol-artifact-1",
  "contractName": "RideSharing",
  "sourceName": "contracts/RideSharing.sol",
  "abi": [
    {
      "inputs": [
        {
          "internalType": "address",
          "name": "tokenAddress",
          "type": "address"
        }
      ],
      "stateMutability": "nonpayable",
      "type": "constructor"
    },
    {
      "anonymous": false,
      "inputs": [
        {
          "indexed": true,
          "internalType": "address",
          "name": "driver",
          "type": "address"
        },
        {
          "indexed": false,
          "internalType": "uint8",
          "name": "rating",
          "type": "uint8"
        }
      ],
      "name": "DriverRated",
      "type": "event"
    },
    {
      "anonymous": false,
      "inputs": [
        {
          "indexed": true,
          "internalType": "address",
          "name": "passenger",
          "type": "address"
        },
        {
          "indexed": false,
          "internalType": "uint8",
          "name": "rating",
          "type": "uint8"
        }
      ],
      "name": "PassengerRated",
      "type": "event"
    },
    {
      "anonymous": false,
      "inputs": [
        {
          "indexed": true,
          "internalType": "address",
          "name": "passenger",
          "type": "address"
        },
        {
          "indexed": true,
          "internalType": "address",
          "name": "driver",
          "type": "address"
        },
        {
          "indexed": false,
          "internalType": "uint256",
          "name": "fare",
          "type": "uint256"
        }
      ],
      "name": "RideCompleted",
      "type": "event"
    },
    {
      "anonymous": false,
      "inputs": [
        {
          "indexed": true,
          "internalType": "address",
          "name": "passenger",
          "type": "address"
        },
        {
          "indexed": true,
          "internalType": "address",
          "name": "driver",
          "type": "address"
        },
        {
          "indexed": false,
          "internalType": "uint256",
          "name": "fare",
          "type": "uint256"
        }
      ],
      "name": "RideRequested",
      "type": "event"
    },
    {
      "stateMutability": "payable",
      "type": "fallback"
    },
    {
      "inputs": [
        {
          "internalType": "uint256",
          "name": "rideIndex",
          "type": "uint256"
        }
      ],
      "name": "completeRide",
      "outputs": [],
      "stateMutability": "nonpayable",
      "type": "function"
    },
    {
      "inputs": [
        {
          "internalType": "address",
          "name": "_user",
          "type": "address"
        }
      ],
      "name": "getUser",
      "outputs": [
        {
          "internalType": "string",
          "name": "firstName",
          "type": "string"
        },
        {
          "internalType": "string",
          "name": "lastName",
          "type": "string"
        },
        {
          "internalType": "string",
          "name": "phoneNumber",
          "type": "string"
        },
        {
          "internalType": "uint8",
          "name": "rating",
          "type": "uint8"
        },
        {
          "internalType": "bool",
          "name": "isDriver",
          "type": "bool"
        },
        {
          "internalType": "string",
          "name": "vehicleModel",
          "type": "string"
        },
        {
          "internalType": "string",
          "name": "vehicleNumber",
          "type": "string"
        },
        {
          "internalType": "string",
          "name": "vehicleColor",
          "type": "string"
        },
        {
          "internalType": "uint16",
          "name": "pricePerRide",
          "type": "uint16"
        },
        {
          "internalType": "bool",
          "name": "isAvailable",
          "type": "bool"
        }
      ],
      "stateMutability": "view",
      "type": "function"
    },
    {
      "inputs": [
        {
          "internalType": "address",
          "name": "_driver",
          "type": "address"
        },
        {
          "internalType": "uint8",
          "name": "_rating",
          "type": "uint8"
        }
      ],
      "name": "rateDriver",
      "outputs": [],
      "stateMutability": "nonpayable",
      "type": "function"
    },
    {
      "inputs": [
        {
          "internalType": "address",
          "name": "_passenger",
          "type": "address"
        },
        {
          "internalType": "uint8",
          "name": "_rating",
          "type": "uint8"
        }
      ],
      "name": "ratePassenger",
      "outputs": [],
      "stateMutability": "nonpayable",
      "type": "function"
    },
    {
      "inputs": [
        {
          "internalType": "string",
          "name": "_firstName",
          "type": "string"
        },
        {
          "internalType": "string",
          "name": "_lastName",
          "type": "string"
        },
        {
          "internalType": "string",
          "name": "_phoneNumber",
          "type": "string"
        },
        {
          "internalType": "bool",
          "name": "_isDriver",
          "type": "bool"
        },
        {
          "internalType": "string",
          "name": "_vehicleModel",
          "type": "string"
        },
        {
          "internalType": "string",
          "name": "_vehicleNumber",
          "type": "string"
        },
        {
          "internalType": "string",
          "name": "_vehicleColor",
          "type": "string"
        },
        {
          "internalType": "uint16",
          "name": "_pricePerRide",
          "type": "uint16"
        }
      ],
      "name": "registerUser",
      "outputs": [],
      "stateMutability": "nonpayable",
      "type": "function"
    },
    {
      "inputs": [
        {
          "internalType": "address",
          "name": "_driver",
          "type": "address"
        }
      ],
      "name": "requestRide",
      "outputs": [],
      "stateMutability": "nonpayable",
      "type": "function"
    },
    {
      "inputs": [],
      "name": "rideToken",
      "outputs": [
        {
          "internalType": "contract RideToken",
          "name": "",
          "type": "address"
        }
      ],
      "stateMutability": "view",
      "type": "function"
    },
    {
      "inputs": [
        {
          "internalType": "uint256",
          "name": "",
          "type": "uint256"
        }
      ],
      "name": "rides",
      "outputs": [
        {
          "internalType": "address",
          "name": "passenger",
          "type": "address"
        },
        {
          "internalType": "address",
          "name": "driver",
          "type": "address"
        },
        {
          "internalType": "uint256",
          "name": "fare",
          "type": "uint256"
        },
        {
          "internalType": "bool",
          "name": "completed",
          "type": "bool"
        }
      ],
      "stateMutability": "view",
      "type": "function"
    },
    {
      "inputs": [
        {
          "internalType": "bool",
          "name": "_availability",
          "type": "bool"
        }
      ],
      "name": "setDriverAvailability",
      "outputs": [],
      "stateMutability": "nonpayable",
      "type": "function"
    },
    {
      "inputs": [
        {
          "internalType": "address",
          "name": "",
          "type": "address"
        }
      ],
      "name": "users",
      "outputs": [
        {
          "internalType": "address payable",
          "name": "wallet",
          "type": "address"
        },
        {
          "internalType": "string",
          "name": "firstName",
          "type": "string"
        },
        {
          "internalType": "string",
          "name": "lastName",
          "type": "string"
        },
        {
          "internalType": "string",
          "name": "phoneNumber",
          "type": "string"
        },
        {
          "internalType": "uint8",
          "name": "rating",
          "type": "uint8"
        },
        {
          "internalType": "bool",
          "name": "isDriver",
          "type": "bool"
        },
        {
          "components": [
            {
              "internalType": "string",
              "name": "model",
              "type": "string"
            },
            {
              "internalType": "string",
              "name": "number",
              "type": "string"
            },
            {
              "internalType": "string",
              "name": "color",
              "type": "string"
            }
          ],
          "internalType": "struct RideSharing.Vehicle",
          "name": "vehicleDetails",
          "type": "tuple"
        },
        {
          "internalType": "uint16",
          "name": "pricePerRide",
          "type": "uint16"
        },
        {
          "internalType": "bool",
          "name": "isAvailable",
          "type": "bool"
        }
      ],
      "stateMutability": "view",
      "type": "function"
    },
    {
      "stateMutability": "payable",
      "type": "receive"
    }
  ],
  "bytecode": "0x60806040523480156200001157600080fd5b50604051620030e6380380620030e68339818101604052810190620000379190620000e9565b80600260006101000a81548173ffffffffffffffffffffffffffffffffffffffff021916908373ffffffffffffffffffffffffffffffffffffffff160217905550506200011b565b600080fd5b600073ffffffffffffffffffffffffffffffffffffffff82169050919050565b6000620000b18262000084565b9050919050565b620000c381620000a4565b8114620000cf57600080fd5b50565b600081519050620000e381620000b8565b92915050565b6000602082840312156200010257620001016200007f565b5b60006200011284828501620000d2565b91505092915050565b612fbb806200012b6000396000f3fe6080604052600436106100955760003560e01c8063b98c0cc111610059578063b98c0cc1146101bb578063c416dd0b146101e4578063c467b2871461020d578063ebfdb34e14610236578063fa69b8aa1461025f5761009c565b806346a741191461009e5780635205f112146100c75780636d29539e146101075780636f77926b14610130578063a87430ba146101765761009c565b3661009c57005b005b3480156100aa57600080fd5b506100c560048036038101906100c09190611f3a565b61028a565b005b3480156100d357600080fd5b506100ee60048036038101906100e99190611fb0565b61050d565b6040516100fe9493929190612016565b60405180910390f35b34801561011357600080fd5b5061012e60048036038101906101299190611f3a565b61059a565b005b34801561013c57600080fd5b506101576004803603810190610152919061205b565b61081d565b60405161016d9a99989796959493929190612144565b60405180910390f35b34801561018257600080fd5b5061019d6004803603810190610198919061205b565b610d25565b6040516101b2999897969594939291906122d3565b60405180910390f35b3480156101c757600080fd5b506101e260048036038101906101dd91906123a8565b611120565b005b3480156101f057600080fd5b5061020b60048036038101906102069190611fb0565b61120a565b005b34801561021957600080fd5b50610234600480360381019061022f919061205b565b611519565b005b34801561024257600080fd5b5061025d60048036038101906102589190612536565b6118d5565b005b34801561026b57600080fd5b50610274611e29565b60405161028191906126f3565b60405180910390f35b6000803373ffffffffffffffffffffffffffffffffffffffff1673ffffffffffffffffffffffffffffffffffffffff16815260200190815260200160002060040160019054906101000a900460ff16610318576040517f08c379a000000000000000000000000000000000000000000000000000000000815260040161030f9061275a565b60405180910390fd5b60018160ff1610158015610330575060058160ff1611155b61036f576040517f08c379a0000000000000000000000000000000000000000000000000000000008152600401610366906127c6565b60405180910390fd5b6000808373ffffffffffffffffffffffffffffffffffffffff1673ffffffffffffffffffffffffffffffffffffffff16815260200190815260200160002060040160019054906101000a900460ff16156103fe576040517f08c379a00000000000000000000000000000000000000000000000000000000081526004016103f590612832565b60405180910390fd5b610462816000808573ffffffffffffffffffffffffffffffffffffffff1673ffffffffffffffffffffffffffffffffffffffff16815260200190815260200160002060040160009054906101000a900460ff1661045b9190612881565b6005611e4f565b6000808473ffffffffffffffffffffffffffffffffffffffff1673ffffffffffffffffffffffffffffffffffffffff16815260200190815260200160002060040160006101000a81548160ff021916908360ff1602179055508173ffffffffffffffffffffffffffffffffffffffff167fa4c5af8afe0b5c9277dbd093020651d57d590c7b32e8b256f930601f4cb1c41f8260405161050191906128b6565b60405180910390a25050565b6001818154811061051d57600080fd5b90600052602060002090600402016000915090508060000160009054906101000a900473ffffffffffffffffffffffffffffffffffffffff16908060010160009054906101000a900473ffffffffffffffffffffffffffffffffffffffff16908060020154908060030160009054906101000a900460ff16905084565b6000803373ffffffffffffffffffffffffffffffffffffffff1673ffffffffffffffffffffffffffffffffffffffff16815260200190815260200160002060040160019054906101000a900460ff1615610629576040517f08c379a00000000000000000000000000000000000000000000000000000000081526004016106209061291d565b60405180910390fd5b60018160ff1610158015610641575060058160ff1611155b610680576040517f08c379a0000000000000000000000000000000000000000000000000000000008152600401610677906127c6565b60405180910390fd5b6000808373ffffffffffffffffffffffffffffffffffffffff1673ffffffffffffffffffffffffffffffffffffffff16815260200190815260200160002060040160019054906101000a900460ff1661070e576040517f08c379a000000000000000000000000000000000000000000000000000000000815260040161070590612989565b60405180910390fd5b610772816000808573ffffffffffffffffffffffffffffffffffffffff1673ffffffffffffffffffffffffffffffffffffffff16815260200190815260200160002060040160009054906101000a900460ff1661076b9190612881565b6005611e4f565b6000808473ffffffffffffffffffffffffffffffffffffffff1673ffffffffffffffffffffffffffffffffffffffff16815260200190815260200160002060040160006101000a81548160ff021916908360ff1602179055508173ffffffffffffffffffffffffffffffffffffffff167fc5aabca1ab7c706f9f9f116141be3d49a9af4d6fd57f0ad895028006a70ed33a8260405161081191906128b6565b60405180910390a25050565b6060806060600080606080606060008060008060008d73ffffffffffffffffffffffffffffffffffffffff1673ffffffffffffffffffffffffffffffffffffffff168152602001908152602001600020604051806101200160405290816000820160009054906101000a900473ffffffffffffffffffffffffffffffffffffffff1673ffffffffffffffffffffffffffffffffffffffff1673ffffffffffffffffffffffffffffffffffffffff1681526020016001820180546108df906129d8565b80601f016020809104026020016040519081016040528092919081815260200182805461090b906129d8565b80156109585780601f1061092d57610100808354040283529160200191610958565b820191906000526020600020905b81548152906001019060200180831161093b57829003601f168201915b50505050508152602001600282018054610971906129d8565b80601f016020809104026020016040519081016040528092919081815260200182805461099d906129d8565b80156109ea5780601f106109bf576101008083540402835291602001916109ea565b820191906000526020600020905b8154815290600101906020018083116109cd57829003601f168201915b50505050508152602001600382018054610a03906129d8565b80601f0160208091040260200160405190810160405280929190818152602001828054610a2f906129d8565b8015610a7c5780601f10610a5157610100808354040283529160200191610a7c565b820191906000526020600020905b815481529060010190602001808311610a5f57829003601f168201915b505050505081526020016004820160009054906101000a900460ff1660ff1660ff1681526020016004820160019054906101000a900460ff1615151515815260200160058201604051806060016040529081600082018054610add906129d8565b80601f0160208091040260200160405190810160405280929190818152602001828054610b09906129d8565b8015610b565780601f10610b2b57610100808354040283529160200191610b56565b820191906000526020600020905b815481529060010190602001808311610b3957829003601f168201915b50505050508152602001600182018054610b6f906129d8565b80601f0160208091040260200160405190810160405280929190818152602001828054610b9b906129d8565b8015610be85780601f10610bbd57610100808354040283529160200191610be8565b820191906000526020600020905b815481529060010190602001808311610bcb57829003601f168201915b50505050508152602001600282018054610c01906129d8565b80601f0160208091040260200160405190810160405280929190818152602001828054610c2d906129d8565b8015610c7a5780601f10610c4f57610100808354040283529160200191610c7a565b820191906000526020600020905b815481529060010190602001808311610c5d57829003601f168201915b50505050508152505081526020016008820160009054906101000a900461ffff1661ffff1661ffff1681526020016008820160029054906101000a900460ff161515151581525050905080602001519a508060400151995080606001519850806080015197508060a0015196508060c001516000015195508060c001516020015194508060c001516040015193508060e0015192508061010001519150509193959799509193959799565b60006020528060005260406000206000915090508060000160009054906101000a900473ffffffffffffffffffffffffffffffffffffffff1690806001018054610d6e906129d8565b80601f0160208091040260200160405190810160405280929190818152602001828054610d9a906129d8565b8015610de75780601f10610dbc57610100808354040283529160200191610de7565b820191906000526020600020905b815481529060010190602001808311610dca57829003601f168201915b505050505090806002018054610dfc906129d8565b80601f0160208091040260200160405190810160405280929190818152602001828054610e28906129d8565b8015610e755780601f10610e4a57610100808354040283529160200191610e75565b820191906000526020600020905b815481529060010190602001808311610e5857829003601f168201915b505050505090806003018054610e8a906129d8565b80601f0160208091040260200160405190810160405280929190818152602001828054610eb6906129d8565b8015610f035780601f10610ed857610100808354040283529160200191610f03565b820191906000526020600020905b815481529060010190602001808311610ee657829003601f168201915b5050505050908060040160009054906101000a900460ff16908060040160019054906101000a900460ff169080600501604051806060016040529081600082018054610f4e906129d8565b80601f0160208091040260200160405190810160405280929190818152602001828054610f7a906129d8565b8015610fc75780601f10610f9c57610100808354040283529160200191610fc7565b820191906000526020600020905b815481529060010190602001808311610faa57829003601f168201915b50505050508152602001600182018054610fe0906129d8565b80601f016020809104026020016040519081016040528092919081815260200182805461100c906129d8565b80156110595780601f1061102e57610100808354040283529160200191611059565b820191906000526020600020905b81548152906001019060200180831161103c57829003601f168201915b50505050508152602001600282018054611072906129d8565b80601f016020809104026020016040519081016040528092919081815260200182805461109e906129d8565b80156110eb5780601f106110c0576101008083540402835291602001916110eb565b820191906000526020600020905b8154815290600101906020018083116110ce57829003601f168201915b505050505081525050908060080160009054906101000a900461ffff16908060080160029054906101000a900460ff16905089565b6000803373ffffffffffffffffffffffffffffffffffffffff1673ffffffffffffffffffffffffffffffffffffffff16815260200190815260200160002060040160019054906101000a900460ff166111ae576040517f08c379a00000000000000000000000000000000000000000000000000000000081526004016111a59061275a565b60405180910390fd5b806000803373ffffffffffffffffffffffffffffffffffffffff1673ffffffffffffffffffffffffffffffffffffffff16815260200190815260200160002060080160026101000a81548160ff02191690831515021790555050565b6000803373ffffffffffffffffffffffffffffffffffffffff1673ffffffffffffffffffffffffffffffffffffffff16815260200190815260200160002060040160019054906101000a900460ff16611298576040517f08c379a000000000000000000000000000000000000000000000000000000000815260040161128f9061275a565b60405180910390fd5b6000600182815481106112ae576112ad612a09565b5b906000526020600020906004020190508060010160009054906101000a900473ffffffffffffffffffffffffffffffffffffffff1673ffffffffffffffffffffffffffffffffffffffff163373ffffffffffffffffffffffffffffffffffffffff1614611350576040517f08c379a000000000000000000000000000000000000000000000000000000000815260040161134790612a84565b60405180910390fd5b8060030160009054906101000a900460ff16156113a2576040517f08c379a000000000000000000000000000000000000000000000000000000000815260040161139990612af0565b60405180910390fd5b60018160030160006101000a81548160ff021916908315150217905550600260009054906101000a900473ffffffffffffffffffffffffffffffffffffffff1673ffffffffffffffffffffffffffffffffffffffff1663a9059cbb8260010160009054906101000a900473ffffffffffffffffffffffffffffffffffffffff1683600201546040518363ffffffff1660e01b8152600401611444929190612b10565b6020604051808303816000875af1158015611463573d6000803e3d6000fd5b505050506040513d601f19601f820116820180604052508101906114879190612b4e565b503373ffffffffffffffffffffffffffffffffffffffff168160000160009054906101000a900473ffffffffffffffffffffffffffffffffffffffff1673ffffffffffffffffffffffffffffffffffffffff167f79228b1a6bc0e0ab214713a868da328ccf24a9a88d9822f4cdd568706c2cfa80836002015460405161150d9190612b7b565b60405180910390a35050565b6000808273ffffffffffffffffffffffffffffffffffffffff1673ffffffffffffffffffffffffffffffffffffffff16815260200190815260200160002060040160019054906101000a900460ff1680156115bf57506000808273ffffffffffffffffffffffffffffffffffffffff1673ffffffffffffffffffffffffffffffffffffffff16815260200190815260200160002060080160029054906101000a900460ff165b6115fe576040517f08c379a00000000000000000000000000000000000000000000000000000000081526004016115f590612be2565b60405180910390fd5b60008060008373ffffffffffffffffffffffffffffffffffffffff1673ffffffffffffffffffffffffffffffffffffffff16815260200190815260200160002060080160009054906101000a900461ffff1661ffff169050600260009054906101000a900473ffffffffffffffffffffffffffffffffffffffff1673ffffffffffffffffffffffffffffffffffffffff166323b872dd3330846040518463ffffffff1660e01b81526004016116b593929190612c02565b6020604051808303816000875af11580156116d4573d6000803e3d6000fd5b505050506040513d601f19601f820116820180604052508101906116f89190612b4e565b611737576040517f08c379a000000000000000000000000000000000000000000000000000000000815260040161172e90612c85565b60405180910390fd5b600160405180608001604052803373ffffffffffffffffffffffffffffffffffffffff1681526020018473ffffffffffffffffffffffffffffffffffffffff16815260200183815260200160001515815250908060018154018082558091505060019003906000526020600020906004020160009091909190915060008201518160000160006101000a81548173ffffffffffffffffffffffffffffffffffffffff021916908373ffffffffffffffffffffffffffffffffffffffff16021790555060208201518160010160006101000a81548173ffffffffffffffffffffffffffffffffffffffff021916908373ffffffffffffffffffffffffffffffffffffffff1602179055506040820151816002015560608201518160030160006101000a81548160ff02191690831515021790555050508173ffffffffffffffffffffffffffffffffffffffff163373ffffffffffffffffffffffffffffffffffffffff167fed41d149a7e7b3997636d55d276b2f7365ca04d2c05f98b486d3f4604bcbeff9836040516118c99190612b7b565b60405180910390a35050565b600073ffffffffffffffffffffffffffffffffffffffff166000803373ffffffffffffffffffffffffffffffffffffffff1673ffffffffffffffffffffffffffffffffffffffff16815260200190815260200160002060000160009054906101000a900473ffffffffffffffffffffffffffffffffffffffff1673ffffffffffffffffffffffffffffffffffffffff16146119a5576040517f08c379a000000000000000000000000000000000000000000000000000000000815260040161199c90612cf1565b60405180910390fd5b6119ad611e6e565b8515611bd55760405180606001604052808681526020018581526020018481525090506040518061012001604052803373ffffffffffffffffffffffffffffffffffffffff1681526020018a8152602001898152602001888152602001600560ff1681526020016001151581526020018281526020018361ffff168152602001600115158152506000803373ffffffffffffffffffffffffffffffffffffffff1673ffffffffffffffffffffffffffffffffffffffff16815260200190815260200160002060008201518160000160006101000a81548173ffffffffffffffffffffffffffffffffffffffff021916908373ffffffffffffffffffffffffffffffffffffffff1602179055506020820151816001019081611ace9190612eb3565b506040820151816002019081611ae49190612eb3565b506060820151816003019081611afa9190612eb3565b5060808201518160040160006101000a81548160ff021916908360ff16021790555060a08201518160040160016101000a81548160ff02191690831515021790555060c0820151816005016000820151816000019081611b5a9190612eb3565b506020820151816001019081611b709190612eb3565b506040820151816002019081611b869190612eb3565b50505060e08201518160080160006101000a81548161ffff021916908361ffff1602179055506101008201518160080160026101000a81548160ff021916908315150217905550905050611e1e565b6040518061012001604052803373ffffffffffffffffffffffffffffffffffffffff1681526020018a8152602001898152602001888152602001600560ff1681526020016000151581526020016040518060600160405280604051806020016040528060008152508152602001604051806020016040528060008152508152602001604051806020016040528060008152508152508152602001600061ffff168152602001600015158152506000803373ffffffffffffffffffffffffffffffffffffffff1673ffffffffffffffffffffffffffffffffffffffff16815260200190815260200160002060008201518160000160006101000a81548173ffffffffffffffffffffffffffffffffffffffff021916908373ffffffffffffffffffffffffffffffffffffffff1602179055506020820151816001019081611d1b9190612eb3565b506040820151816002019081611d319190612eb3565b506060820151816003019081611d479190612eb3565b5060808201518160040160006101000a81548160ff021916908360ff16021790555060a08201518160040160016101000a81548160ff02191690831515021790555060c0820151816005016000820151816000019081611da79190612eb3565b506020820151816001019081611dbd9190612eb3565b506040820151816002019081611dd39190612eb3565b50505060e08201518160080160006101000a81548161ffff021916908361ffff1602179055506101008201518160080160026101000a81548160ff0219169083151502179055509050505b505050505050505050565b600260009054906101000a900473ffffffffffffffffffffffffffffffffffffffff1681565b60008160ff168360ff1610611e645781611e66565b825b905092915050565b60405180606001604052806060815260200160608152602001606081525090565b6000604051905090565b600080fd5b600080fd5b600073ffffffffffffffffffffffffffffffffffffffff82169050919050565b6000611ece82611ea3565b9050919050565b611ede81611ec3565b8114611ee957600080fd5b50565b600081359050611efb81611ed5565b92915050565b600060ff82169050919050565b611f1781611f01565b8114611f2257600080fd5b50565b600081359050611f3481611f0e565b92915050565b60008060408385031215611f5157611f50611e99565b5b6000611f5f85828601611eec565b9250506020611f7085828601611f25565b9150509250929050565b6000819050919050565b611f8d81611f7a565b8114611f9857600080fd5b50565b600081359050611faa81611f84565b92915050565b600060208284031215611fc657611fc5611e99565b5b6000611fd484828501611f9b565b91505092915050565b611fe681611ec3565b82525050565b611ff581611f7a565b82525050565b60008115159050919050565b61201081611ffb565b82525050565b600060808201905061202b6000830187611fdd565b6120386020830186611fdd565b6120456040830185611fec565b6120526060830184612007565b95945050505050565b60006020828403121561207157612070611e99565b5b600061207f84828501611eec565b91505092915050565b600081519050919050565b600082825260208201905092915050565b60005b838110156120c25780820151818401526020810190506120a7565b60008484015250505050565b6000601f19601f8301169050919050565b60006120ea82612088565b6120f48185612093565b93506121048185602086016120a4565b61210d816120ce565b840191505092915050565b61212181611f01565b82525050565b600061ffff82169050919050565b61213e81612127565b82525050565b600061014082019050818103600083015261215f818d6120df565b90508181036020830152612173818c6120df565b90508181036040830152612187818b6120df565b9050612196606083018a612118565b6121a36080830189612007565b81810360a08301526121b581886120df565b905081810360c08301526121c981876120df565b905081810360e08301526121dd81866120df565b90506121ed610100830185612135565b6121fb610120830184612007565b9b9a5050505050505050505050565b600061221582611ea3565b9050919050565b6122258161220a565b82525050565b600082825260208201905092915050565b600061224782612088565b612251818561222b565b93506122618185602086016120a4565b61226a816120ce565b840191505092915050565b60006060830160008301518482036000860152612292828261223c565b915050602083015184820360208601526122ac828261223c565b915050604083015184820360408601526122c6828261223c565b9150508091505092915050565b6000610120820190506122e9600083018c61221c565b81810360208301526122fb818b6120df565b9050818103604083015261230f818a6120df565b9050818103606083015261232381896120df565b90506123326080830188612118565b61233f60a0830187612007565b81810360c08301526123518186612275565b905061236060e0830185612135565b61236e610100830184612007565b9a9950505050505050505050565b61238581611ffb565b811461239057600080fd5b50565b6000813590506123a28161237c565b92915050565b6000602082840312156123be576123bd611e99565b5b60006123cc84828501612393565b91505092915050565b600080fd5b600080fd5b7f4e487b7100000000000000000000000000000000000000000000000000000000600052604160045260246000fd5b612417826120ce565b810181811067ffffffffffffffff82111715612436576124356123df565b5b80604052505050565b6000612449611e8f565b9050612455828261240e565b919050565b600067ffffffffffffffff821115612475576124746123df565b5b61247e826120ce565b9050602081019050919050565b82818337600083830152505050565b60006124ad6124a88461245a565b61243f565b9050828152602081018484840111156124c9576124c86123da565b5b6124d484828561248b565b509392505050565b600082601f8301126124f1576124f06123d5565b5b813561250184826020860161249a565b91505092915050565b61251381612127565b811461251e57600080fd5b50565b6000813590506125308161250a565b92915050565b600080600080600080600080610100898b03121561255757612556611e99565b5b600089013567ffffffffffffffff81111561257557612574611e9e565b5b6125818b828c016124dc565b985050602089013567ffffffffffffffff8111156125a2576125a1611e9e565b5b6125ae8b828c016124dc565b975050604089013567ffffffffffffffff8111156125cf576125ce611e9e565b5b6125db8b828c016124dc565b96505060606125ec8b828c01612393565b955050608089013567ffffffffffffffff81111561260d5761260c611e9e565b5b6126198b828c016124dc565b94505060a089013567ffffffffffffffff81111561263a57612639611e9e565b5b6126468b828c016124dc565b93505060c089013567ffffffffffffffff81111561266757612666611e9e565b5b6126738b828c016124dc565b92505060e06126848b828c01612521565b9150509295985092959890939650565b6000819050919050565b60006126b96126b46126af84611ea3565b612694565b611ea3565b9050919050565b60006126cb8261269e565b9050919050565b60006126dd826126c0565b9050919050565b6126ed816126d2565b82525050565b600060208201905061270860008301846126e4565b92915050565b7f4e6f742061207265676973746572656420647269766572000000000000000000600082015250565b6000612744601783612093565b915061274f8261270e565b602082019050919050565b6000602082019050818103600083015261277381612737565b9050919050565b7f526174696e67206d757374206265206265747765656e203120616e6420350000600082015250565b60006127b0601e83612093565b91506127bb8261277a565b602082019050919050565b600060208201905081810360008301526127df816127a3565b9050919050565b7f55736572206973206e6f7420612070617373656e676572000000000000000000600082015250565b600061281c601783612093565b9150612827826127e6565b602082019050919050565b6000602082019050818103600083015261284b8161280f565b9050919050565b7f4e487b7100000000000000000000000000000000000000000000000000000000600052601160045260246000fd5b600061288c82611f01565b915061289783611f01565b9250828201905060ff8111156128b0576128af612852565b5b92915050565b60006020820190506128cb6000830184612118565b92915050565b7f4e6f74206120726567697374657265642070617373656e676572000000000000600082015250565b6000612907601a83612093565b9150612912826128d1565b602082019050919050565b60006020820190508181036000830152612936816128fa565b9050919050565b7f55736572206973206e6f74206120647269766572000000000000000000000000600082015250565b6000612973601483612093565b915061297e8261293d565b602082019050919050565b600060208201905081810360008301526129a281612966565b9050919050565b7f4e487b7100000000000000000000000000000000000000000000000000000000600052602260045260246000fd5b600060028204905060018216806129f057607f821691505b602082108103612a0357612a026129a9565b5b50919050565b7f4e487b7100000000000000000000000000000000000000000000000000000000600052603260045260246000fd5b7f4e6f742074686520647269766572206f66207468697320726964650000000000600082015250565b6000612a6e601b83612093565b9150612a7982612a38565b602082019050919050565b60006020820190508181036000830152612a9d81612a61565b9050919050565b7f5269646520616c726561647920636f6d706c6574656400000000000000000000600082015250565b6000612ada601683612093565b9150612ae582612aa4565b602082019050919050565b60006020820190508181036000830152612b0981612acd565b9050919050565b6000604082019050612b256000830185611fdd565b612b326020830184611fec565b9392505050565b600081519050612b488161237c565b92915050565b600060208284031215612b6457612b63611e99565b5b6000612b7284828501612b39565b91505092915050565b6000602082019050612b906000830184611fec565b92915050565b7f447269766572206e6f7420617661696c61626c65000000000000000000000000600082015250565b6000612bcc601483612093565b9150612bd782612b96565b602082019050919050565b60006020820190508181036000830152612bfb81612bbf565b9050919050565b6000606082019050612c176000830186611fdd565b612c246020830185611fdd565b612c316040830184611fec565b949350505050565b7f546f6b656e207472616e73666572206661696c65640000000000000000000000600082015250565b6000612c6f601583612093565b9150612c7a82612c39565b602082019050919050565b60006020820190508181036000830152612c9e81612c62565b9050919050565b7f5573657220616c72656164792072656769737465726564000000000000000000600082015250565b6000612cdb601783612093565b9150612ce682612ca5565b602082019050919050565b60006020820190508181036000830152612d0a81612cce565b9050919050565b60008190508160005260206000209050919050565b60006020601f8301049050919050565b600082821b905092915050565b600060088302612d737fffffffffffffffffffffffffffffffffffffffffffffffffffffffffffffffff82612d36565b612d7d8683612d36565b95508019841693508086168417925050509392505050565b6000612db0612dab612da684611f7a565b612694565b611f7a565b9050919050565b6000819050919050565b612dca83612d95565b612dde612dd682612db7565b848454612d43565b825550505050565b600090565b612df3612de6565b612dfe818484612dc1565b505050565b5b81811015612e2257612e17600082612deb565b600181019050612e04565b5050565b601f821115612e6757612e3881612d11565b612e4184612d26565b81016020851015612e50578190505b612e64612e5c85612d26565b830182612e03565b50505b505050565b600082821c905092915050565b6000612e8a60001984600802612e6c565b1980831691505092915050565b6000612ea38383612e79565b9150826002028217905092915050565b612ebc82612088565b67ffffffffffffffff811115612ed557612ed46123df565b5b612edf82546129d8565b612eea828285612e26565b600060209050601f831160018114612f1d5760008415612f0b578287015190505b612f158582612e97565b865550612f7d565b601f198416612f2b86612d11565b60005b82811015612f5357848901518255600182019150602085019450602081019050612f2e565b86831015612f705784890151612f6c601f891682612e79565b8355505b6001600288020188555050505b50505050505056fea26469706673582212208d8b4a8c279565e1cbfaa85846491201ec843cad0f94e56590b870836fa17c7864736f6c63430008140033",
  "linkReferences": {},
  "deployedLinkReferences": {}
}