{
  "_format": "hh-sol-artifact-1",
  "contractName": "RideSharing",
  "sourceName": "contracts/RideSharing.sol",
  "abi": [
    {
      "inputs": [
        {
          "internalType": "address",
          "name": "tokenAddress",
          "type": "address"
        }
      ],
      "stateMutability": "nonpayable",
      "type": "constructor"
    },
    {
      "anonymous": false,
      "inputs": [
        {
          "indexed": true,
          "internalType": "address",
          "name": "driver",
          "type": "address"
        },
        {
          "indexed": false,
          "internalType": "uint8",
          "name": "rating",
          "type": "uint8"
        }
      ],
      "name": "DriverRated",
      "type": "event"
    },
    {
      "anonymous": false,
      "inputs": [
        {
          "indexed": true,
          "internalType": "address",
          "name": "passenger",
          "type": "address"
        },
        {
          "indexed": false,
          "internalType": "uint8",
          "name": "rating",
          "type": "uint8"
        }
      ],
      "name": "PassengerRated",
      "type": "event"
    },
    {
      "anonymous": false,
      "inputs": [
        {
          "indexed": true,
          "internalType": "address",
          "name": "passenger",
          "type": "address"
        },
        {
          "indexed": true,
          "internalType": "address",
          "name": "driver",
          "type": "address"
        },
        {
          "indexed": false,
          "internalType": "uint256",
          "name": "fare",
          "type": "uint256"
        }
      ],
      "name": "RideCompleted",
      "type": "event"
    },
    {
      "anonymous": false,
      "inputs": [
        {
          "indexed": true,
          "internalType": "address",
          "name": "passenger",
          "type": "address"
        },
        {
          "indexed": true,
          "internalType": "address",
          "name": "driver",
          "type": "address"
        },
        {
          "indexed": false,
          "internalType": "uint256",
          "name": "fare",
          "type": "uint256"
        },
        {
          "indexed": false,
          "internalType": "uint256",
          "name": "rideIndex",
          "type": "uint256"
        }
      ],
      "name": "RideRequested",
      "type": "event"
    },
    {
      "stateMutability": "payable",
      "type": "fallback"
    },
    {
      "inputs": [
        {
          "internalType": "uint256",
          "name": "rideIndex",
          "type": "uint256"
        }
      ],
      "name": "completeRide",
      "outputs": [],
      "stateMutability": "nonpayable",
      "type": "function"
    },
    {
      "inputs": [
        {
          "internalType": "uint256",
          "name": "",
          "type": "uint256"
        }
      ],
      "name": "driverAddresses",
      "outputs": [
        {
          "internalType": "address",
          "name": "",
          "type": "address"
        }
      ],
      "stateMutability": "view",
      "type": "function"
    },
    {
      "inputs": [],
      "name": "getAvailableDrivers",
      "outputs": [
        {
          "internalType": "address[]",
          "name": "",
          "type": "address[]"
        }
      ],
      "stateMutability": "view",
      "type": "function"
    },
    {
      "inputs": [
        {
          "internalType": "address",
          "name": "_user",
          "type": "address"
        }
      ],
      "name": "getUser",
      "outputs": [
        {
          "internalType": "string",
          "name": "firstName",
          "type": "string"
        },
        {
          "internalType": "string",
          "name": "lastName",
          "type": "string"
        },
        {
          "internalType": "string",
          "name": "phoneNumber",
          "type": "string"
        },
        {
          "internalType": "uint8",
          "name": "rating",
          "type": "uint8"
        },
        {
          "internalType": "bool",
          "name": "isDriver",
          "type": "bool"
        },
        {
          "internalType": "string",
          "name": "vehicleModel",
          "type": "string"
        },
        {
          "internalType": "string",
          "name": "vehicleNumber",
          "type": "string"
        },
        {
          "internalType": "string",
          "name": "vehicleColor",
          "type": "string"
        },
        {
          "internalType": "uint16",
          "name": "pricePerRide",
          "type": "uint16"
        },
        {
          "internalType": "bool",
          "name": "isAvailable",
          "type": "bool"
        }
      ],
      "stateMutability": "view",
      "type": "function"
    },
    {
      "inputs": [
        {
          "internalType": "address",
          "name": "_driver",
          "type": "address"
        },
        {
          "internalType": "uint8",
          "name": "_rating",
          "type": "uint8"
        }
      ],
      "name": "rateDriver",
      "outputs": [],
      "stateMutability": "nonpayable",
      "type": "function"
    },
    {
      "inputs": [
        {
          "internalType": "address",
          "name": "_passenger",
          "type": "address"
        },
        {
          "internalType": "uint8",
          "name": "_rating",
          "type": "uint8"
        }
      ],
      "name": "ratePassenger",
      "outputs": [],
      "stateMutability": "nonpayable",
      "type": "function"
    },
    {
      "inputs": [
        {
          "internalType": "string",
          "name": "_firstName",
          "type": "string"
        },
        {
          "internalType": "string",
          "name": "_lastName",
          "type": "string"
        },
        {
          "internalType": "string",
          "name": "_phoneNumber",
          "type": "string"
        },
        {
          "internalType": "bool",
          "name": "_isDriver",
          "type": "bool"
        },
        {
          "internalType": "string",
          "name": "_vehicleModel",
          "type": "string"
        },
        {
          "internalType": "string",
          "name": "_vehicleNumber",
          "type": "string"
        },
        {
          "internalType": "string",
          "name": "_vehicleColor",
          "type": "string"
        },
        {
          "internalType": "uint16",
          "name": "_pricePerRide",
          "type": "uint16"
        }
      ],
      "name": "registerUser",
      "outputs": [],
      "stateMutability": "nonpayable",
      "type": "function"
    },
    {
      "inputs": [
        {
          "internalType": "address",
          "name": "_driver",
          "type": "address"
        }
      ],
      "name": "requestRide",
      "outputs": [],
      "stateMutability": "nonpayable",
      "type": "function"
    },
    {
      "inputs": [],
      "name": "rideToken",
      "outputs": [
        {
          "internalType": "contract RideToken",
          "name": "",
          "type": "address"
        }
      ],
      "stateMutability": "view",
      "type": "function"
    },
    {
      "inputs": [
        {
          "internalType": "uint256",
          "name": "",
          "type": "uint256"
        }
      ],
      "name": "rides",
      "outputs": [
        {
          "internalType": "address",
          "name": "passenger",
          "type": "address"
        },
        {
          "internalType": "address",
          "name": "driver",
          "type": "address"
        },
        {
          "internalType": "uint256",
          "name": "fare",
          "type": "uint256"
        },
        {
          "internalType": "bool",
          "name": "completed",
          "type": "bool"
        }
      ],
      "stateMutability": "view",
      "type": "function"
    },
    {
      "inputs": [
        {
          "internalType": "bool",
          "name": "_availability",
          "type": "bool"
        }
      ],
      "name": "setDriverAvailability",
      "outputs": [],
      "stateMutability": "nonpayable",
      "type": "function"
    },
    {
      "inputs": [
        {
          "internalType": "string",
          "name": "_firstName",
          "type": "string"
        },
        {
          "internalType": "string",
          "name": "_lastName",
          "type": "string"
        },
        {
          "internalType": "string",
          "name": "_phoneNumber",
          "type": "string"
        },
        {
          "internalType": "bool",
          "name": "_isDriver",
          "type": "bool"
        },
        {
          "internalType": "string",
          "name": "_vehicleModel",
          "type": "string"
        },
        {
          "internalType": "string",
          "name": "_vehicleNumber",
          "type": "string"
        },
        {
          "internalType": "string",
          "name": "_vehicleColor",
          "type": "string"
        },
        {
          "internalType": "uint16",
          "name": "_pricePerRide",
          "type": "uint16"
        }
      ],
      "name": "updateUserDetails",
      "outputs": [],
      "stateMutability": "nonpayable",
      "type": "function"
    },
    {
      "inputs": [
        {
          "internalType": "address",
          "name": "",
          "type": "address"
        }
      ],
      "name": "users",
      "outputs": [
        {
          "internalType": "address payable",
          "name": "wallet",
          "type": "address"
        },
        {
          "internalType": "string",
          "name": "firstName",
          "type": "string"
        },
        {
          "internalType": "string",
          "name": "lastName",
          "type": "string"
        },
        {
          "internalType": "string",
          "name": "phoneNumber",
          "type": "string"
        },
        {
          "internalType": "uint8",
          "name": "rating",
          "type": "uint8"
        },
        {
          "internalType": "bool",
          "name": "isDriver",
          "type": "bool"
        },
        {
          "components": [
            {
              "internalType": "string",
              "name": "model",
              "type": "string"
            },
            {
              "internalType": "string",
              "name": "number",
              "type": "string"
            },
            {
              "internalType": "string",
              "name": "color",
              "type": "string"
            }
          ],
          "internalType": "struct RideSharing.Vehicle",
          "name": "vehicleDetails",
          "type": "tuple"
        },
        {
          "internalType": "uint16",
          "name": "pricePerRide",
          "type": "uint16"
        },
        {
          "internalType": "bool",
          "name": "isAvailable",
          "type": "bool"
        }
      ],
      "stateMutability": "view",
      "type": "function"
    },
    {
      "stateMutability": "payable",
      "type": "receive"
    }
  ],
  "bytecode": "0x60806040523480156200001157600080fd5b5060405162003c4e38038062003c4e8339818101604052810190620000379190620000e9565b80600360006101000a81548173ffffffffffffffffffffffffffffffffffffffff021916908373ffffffffffffffffffffffffffffffffffffffff160217905550506200011b565b600080fd5b600073ffffffffffffffffffffffffffffffffffffffff82169050919050565b6000620000b18262000084565b9050919050565b620000c381620000a4565b8114620000cf57600080fd5b50565b600081519050620000e381620000b8565b92915050565b6000602082840312156200010257620001016200007f565b5b60006200011284828501620000d2565b91505092915050565b613b23806200012b6000396000f3fe6080604052600436106100c65760003560e01c8063a87430ba1161007f578063c467b28711610059578063c467b28714610292578063c85feec4146102bb578063ebfdb34e146102f8578063fa69b8aa14610321576100cd565b8063a87430ba146101fb578063b98c0cc114610240578063c416dd0b14610269576100cd565b80633606d7bd146100cf57806346a74119146100f85780635205f112146101215780636d29539e146101615780636f77926b1461018a57806383c81286146101d0576100cd565b366100cd57005b005b3480156100db57600080fd5b506100f660048036038101906100f1919061295a565b61034c565b005b34801561010457600080fd5b5061011f600480360381019061011a9190612b4f565b610784565b005b34801561012d57600080fd5b5061014860048036038101906101439190612bc5565b610a07565b6040516101589493929190612c1f565b60405180910390f35b34801561016d57600080fd5b5061018860048036038101906101839190612b4f565b610a94565b005b34801561019657600080fd5b506101b160048036038101906101ac9190612c64565b610d17565b6040516101c79a99989796959493929190612d2e565b60405180910390f35b3480156101dc57600080fd5b506101e561121f565b6040516101f29190612eb2565b60405180910390f35b34801561020757600080fd5b50610222600480360381019061021d9190612c64565b61148f565b60405161023799989796959493929190612f9d565b60405180910390f35b34801561024c57600080fd5b5061026760048036038101906102629190613046565b61188a565b005b34801561027557600080fd5b50610290600480360381019061028b9190612bc5565b611974565b005b34801561029e57600080fd5b506102b960048036038101906102b49190612c64565b611c83565b005b3480156102c757600080fd5b506102e260048036038101906102dd9190612bc5565b612132565b6040516102ef9190613073565b60405180910390f35b34801561030457600080fd5b5061031f600480360381019061031a919061295a565b612171565b005b34801561032d57600080fd5b50610336612728565b60405161034391906130ed565b60405180910390f35b876000803373ffffffffffffffffffffffffffffffffffffffff1673ffffffffffffffffffffffffffffffffffffffff168152602001908152602001600020600101908161039a919061330a565b50866000803373ffffffffffffffffffffffffffffffffffffffff1673ffffffffffffffffffffffffffffffffffffffff16815260200190815260200160002060020190816103e9919061330a565b50856000803373ffffffffffffffffffffffffffffffffffffffff1673ffffffffffffffffffffffffffffffffffffffff1681526020019081526020016000206003019081610438919061330a565b50846000803373ffffffffffffffffffffffffffffffffffffffff1673ffffffffffffffffffffffffffffffffffffffff16815260200190815260200160002060040160016101000a81548160ff02191690831515021790555084156105f4576040518060600160405280858152602001848152602001838152506000803373ffffffffffffffffffffffffffffffffffffffff1673ffffffffffffffffffffffffffffffffffffffff1681526020019081526020016000206005016000820151816000019081610509919061330a565b50602082015181600101908161051f919061330a565b506040820151816002019081610535919061330a565b50905050806000803373ffffffffffffffffffffffffffffffffffffffff1673ffffffffffffffffffffffffffffffffffffffff16815260200190815260200160002060080160006101000a81548161ffff021916908361ffff16021790555060016000803373ffffffffffffffffffffffffffffffffffffffff1673ffffffffffffffffffffffffffffffffffffffff16815260200190815260200160002060080160026101000a81548160ff02191690831515021790555061077a565b6040518060600160405280604051806020016040528060008152508152602001604051806020016040528060008152508152602001604051806020016040528060008152508152506000803373ffffffffffffffffffffffffffffffffffffffff1673ffffffffffffffffffffffffffffffffffffffff1681526020019081526020016000206005016000820151816000019081610692919061330a565b5060208201518160010190816106a8919061330a565b5060408201518160020190816106be919061330a565b5090505060008060003373ffffffffffffffffffffffffffffffffffffffff1673ffffffffffffffffffffffffffffffffffffffff16815260200190815260200160002060080160006101000a81548161ffff021916908361ffff16021790555060008060003373ffffffffffffffffffffffffffffffffffffffff1673ffffffffffffffffffffffffffffffffffffffff16815260200190815260200160002060080160026101000a81548160ff0219169083151502179055505b5050505050505050565b6000803373ffffffffffffffffffffffffffffffffffffffff1673ffffffffffffffffffffffffffffffffffffffff16815260200190815260200160002060040160019054906101000a900460ff16610812576040517f08c379a000000000000000000000000000000000000000000000000000000000815260040161080990613428565b60405180910390fd5b60018160ff161015801561082a575060058160ff1611155b610869576040517f08c379a000000000000000000000000000000000000000000000000000000000815260040161086090613494565b60405180910390fd5b6000808373ffffffffffffffffffffffffffffffffffffffff1673ffffffffffffffffffffffffffffffffffffffff16815260200190815260200160002060040160019054906101000a900460ff16156108f8576040517f08c379a00000000000000000000000000000000000000000000000000000000081526004016108ef90613500565b60405180910390fd5b61095c816000808573ffffffffffffffffffffffffffffffffffffffff1673ffffffffffffffffffffffffffffffffffffffff16815260200190815260200160002060040160009054906101000a900460ff16610955919061354f565b600561274e565b6000808473ffffffffffffffffffffffffffffffffffffffff1673ffffffffffffffffffffffffffffffffffffffff16815260200190815260200160002060040160006101000a81548160ff021916908360ff1602179055508173ffffffffffffffffffffffffffffffffffffffff167fa4c5af8afe0b5c9277dbd093020651d57d590c7b32e8b256f930601f4cb1c41f826040516109fb9190613584565b60405180910390a25050565b60018181548110610a1757600080fd5b90600052602060002090600402016000915090508060000160009054906101000a900473ffffffffffffffffffffffffffffffffffffffff16908060010160009054906101000a900473ffffffffffffffffffffffffffffffffffffffff16908060020154908060030160009054906101000a900460ff16905084565b6000803373ffffffffffffffffffffffffffffffffffffffff1673ffffffffffffffffffffffffffffffffffffffff16815260200190815260200160002060040160019054906101000a900460ff1615610b23576040517f08c379a0000000000000000000000000000000000000000000000000000000008152600401610b1a906135eb565b60405180910390fd5b60018160ff1610158015610b3b575060058160ff1611155b610b7a576040517f08c379a0000000000000000000000000000000000000000000000000000000008152600401610b7190613494565b60405180910390fd5b6000808373ffffffffffffffffffffffffffffffffffffffff1673ffffffffffffffffffffffffffffffffffffffff16815260200190815260200160002060040160019054906101000a900460ff16610c08576040517f08c379a0000000000000000000000000000000000000000000000000000000008152600401610bff90613657565b60405180910390fd5b610c6c816000808573ffffffffffffffffffffffffffffffffffffffff1673ffffffffffffffffffffffffffffffffffffffff16815260200190815260200160002060040160009054906101000a900460ff16610c65919061354f565b600561274e565b6000808473ffffffffffffffffffffffffffffffffffffffff1673ffffffffffffffffffffffffffffffffffffffff16815260200190815260200160002060040160006101000a81548160ff021916908360ff1602179055508173ffffffffffffffffffffffffffffffffffffffff167fc5aabca1ab7c706f9f9f116141be3d49a9af4d6fd57f0ad895028006a70ed33a82604051610d0b9190613584565b60405180910390a25050565b6060806060600080606080606060008060008060008d73ffffffffffffffffffffffffffffffffffffffff1673ffffffffffffffffffffffffffffffffffffffff168152602001908152602001600020604051806101200160405290816000820160009054906101000a900473ffffffffffffffffffffffffffffffffffffffff1673ffffffffffffffffffffffffffffffffffffffff1673ffffffffffffffffffffffffffffffffffffffff168152602001600182018054610dd990613137565b80601f0160208091040260200160405190810160405280929190818152602001828054610e0590613137565b8015610e525780601f10610e2757610100808354040283529160200191610e52565b820191906000526020600020905b815481529060010190602001808311610e3557829003601f168201915b50505050508152602001600282018054610e6b90613137565b80601f0160208091040260200160405190810160405280929190818152602001828054610e9790613137565b8015610ee45780601f10610eb957610100808354040283529160200191610ee4565b820191906000526020600020905b815481529060010190602001808311610ec757829003601f168201915b50505050508152602001600382018054610efd90613137565b80601f0160208091040260200160405190810160405280929190818152602001828054610f2990613137565b8015610f765780601f10610f4b57610100808354040283529160200191610f76565b820191906000526020600020905b815481529060010190602001808311610f5957829003601f168201915b505050505081526020016004820160009054906101000a900460ff1660ff1660ff1681526020016004820160019054906101000a900460ff1615151515815260200160058201604051806060016040529081600082018054610fd790613137565b80601f016020809104026020016040519081016040528092919081815260200182805461100390613137565b80156110505780601f1061102557610100808354040283529160200191611050565b820191906000526020600020905b81548152906001019060200180831161103357829003601f168201915b5050505050815260200160018201805461106990613137565b80601f016020809104026020016040519081016040528092919081815260200182805461109590613137565b80156110e25780601f106110b7576101008083540402835291602001916110e2565b820191906000526020600020905b8154815290600101906020018083116110c557829003601f168201915b505050505081526020016002820180546110fb90613137565b80601f016020809104026020016040519081016040528092919081815260200182805461112790613137565b80156111745780601f1061114957610100808354040283529160200191611174565b820191906000526020600020905b81548152906001019060200180831161115757829003601f168201915b50505050508152505081526020016008820160009054906101000a900461ffff1661ffff1661ffff1681526020016008820160029054906101000a900460ff161515151581525050905080602001519a508060400151995080606001519850806080015197508060a0015196508060c001516000015195508060c001516020015194508060c001516040015193508060e0015192508061010001519150509193959799509193959799565b60606000805b6002805490508110156112e6576000806002838154811061124957611248613677565b5b9060005260206000200160009054906101000a900473ffffffffffffffffffffffffffffffffffffffff1673ffffffffffffffffffffffffffffffffffffffff1673ffffffffffffffffffffffffffffffffffffffff16815260200190815260200160002060080160029054906101000a900460ff16156112d35781806112cf906136a6565b9250505b80806112de906136a6565b915050611225565b5060008167ffffffffffffffff811115611303576113026127bd565b5b6040519080825280602002602001820160405280156113315781602001602082028036833780820191505090505b5090506000805b600280549050811015611485576000806002838154811061135c5761135b613677565b5b9060005260206000200160009054906101000a900473ffffffffffffffffffffffffffffffffffffffff1673ffffffffffffffffffffffffffffffffffffffff1673ffffffffffffffffffffffffffffffffffffffff16815260200190815260200160002060080160029054906101000a900460ff161561147257600281815481106113eb576113ea613677565b5b9060005260206000200160009054906101000a900473ffffffffffffffffffffffffffffffffffffffff1683838151811061142957611428613677565b5b602002602001019073ffffffffffffffffffffffffffffffffffffffff16908173ffffffffffffffffffffffffffffffffffffffff1681525050818061146e906136a6565b9250505b808061147d906136a6565b915050611338565b5081935050505090565b60006020528060005260406000206000915090508060000160009054906101000a900473ffffffffffffffffffffffffffffffffffffffff16908060010180546114d890613137565b80601f016020809104026020016040519081016040528092919081815260200182805461150490613137565b80156115515780601f1061152657610100808354040283529160200191611551565b820191906000526020600020905b81548152906001019060200180831161153457829003601f168201915b50505050509080600201805461156690613137565b80601f016020809104026020016040519081016040528092919081815260200182805461159290613137565b80156115df5780601f106115b4576101008083540402835291602001916115df565b820191906000526020600020905b8154815290600101906020018083116115c257829003601f168201915b5050505050908060030180546115f490613137565b80601f016020809104026020016040519081016040528092919081815260200182805461162090613137565b801561166d5780601f106116425761010080835404028352916020019161166d565b820191906000526020600020905b81548152906001019060200180831161165057829003601f168201915b5050505050908060040160009054906101000a900460ff16908060040160019054906101000a900460ff1690806005016040518060600160405290816000820180546116b890613137565b80601f01602080910402602001604051908101604052809291908181526020018280546116e490613137565b80156117315780601f1061170657610100808354040283529160200191611731565b820191906000526020600020905b81548152906001019060200180831161171457829003601f168201915b5050505050815260200160018201805461174a90613137565b80601f016020809104026020016040519081016040528092919081815260200182805461177690613137565b80156117c35780601f10611798576101008083540402835291602001916117c3565b820191906000526020600020905b8154815290600101906020018083116117a657829003601f168201915b505050505081526020016002820180546117dc90613137565b80601f016020809104026020016040519081016040528092919081815260200182805461180890613137565b80156118555780601f1061182a57610100808354040283529160200191611855565b820191906000526020600020905b81548152906001019060200180831161183857829003601f168201915b505050505081525050908060080160009054906101000a900461ffff16908060080160029054906101000a900460ff16905089565b6000803373ffffffffffffffffffffffffffffffffffffffff1673ffffffffffffffffffffffffffffffffffffffff16815260200190815260200160002060040160019054906101000a900460ff16611918576040517f08c379a000000000000000000000000000000000000000000000000000000000815260040161190f90613428565b60405180910390fd5b806000803373ffffffffffffffffffffffffffffffffffffffff1673ffffffffffffffffffffffffffffffffffffffff16815260200190815260200160002060080160026101000a81548160ff02191690831515021790555050565b6000803373ffffffffffffffffffffffffffffffffffffffff1673ffffffffffffffffffffffffffffffffffffffff16815260200190815260200160002060040160019054906101000a900460ff16611a02576040517f08c379a00000000000000000000000000000000000000000000000000000000081526004016119f990613428565b60405180910390fd5b600060018281548110611a1857611a17613677565b5b906000526020600020906004020190508060010160009054906101000a900473ffffffffffffffffffffffffffffffffffffffff1673ffffffffffffffffffffffffffffffffffffffff163373ffffffffffffffffffffffffffffffffffffffff1614611aba576040517f08c379a0000000000000000000000000000000000000000000000000000000008152600401611ab19061373a565b60405180910390fd5b8060030160009054906101000a900460ff1615611b0c576040517f08c379a0000000000000000000000000000000000000000000000000000000008152600401611b03906137a6565b60405180910390fd5b60018160030160006101000a81548160ff021916908315150217905550600360009054906101000a900473ffffffffffffffffffffffffffffffffffffffff1673ffffffffffffffffffffffffffffffffffffffff1663a9059cbb8260010160009054906101000a900473ffffffffffffffffffffffffffffffffffffffff1683600201546040518363ffffffff1660e01b8152600401611bae9291906137c6565b6020604051808303816000875af1158015611bcd573d6000803e3d6000fd5b505050506040513d601f19601f82011682018060405250810190611bf19190613804565b503373ffffffffffffffffffffffffffffffffffffffff168160000160009054906101000a900473ffffffffffffffffffffffffffffffffffffffff1673ffffffffffffffffffffffffffffffffffffffff167f79228b1a6bc0e0ab214713a868da328ccf24a9a88d9822f4cdd568706c2cfa808360020154604051611c779190613831565b60405180910390a35050565b6000808273ffffffffffffffffffffffffffffffffffffffff1673ffffffffffffffffffffffffffffffffffffffff16815260200190815260200160002060040160019054906101000a900460ff168015611d2957506000808273ffffffffffffffffffffffffffffffffffffffff1673ffffffffffffffffffffffffffffffffffffffff16815260200190815260200160002060080160029054906101000a900460ff165b611d68576040517f08c379a0000000000000000000000000000000000000000000000000000000008152600401611d5f90613898565b60405180910390fd5b60008060008373ffffffffffffffffffffffffffffffffffffffff1673ffffffffffffffffffffffffffffffffffffffff16815260200190815260200160002060080160009054906101000a900461ffff1661ffff1690506000600360009054906101000a900473ffffffffffffffffffffffffffffffffffffffff1673ffffffffffffffffffffffffffffffffffffffff1663dd62ed3e33306040518363ffffffff1660e01b8152600401611e1f9291906138b8565b602060405180830381865afa158015611e3c573d6000803e3d6000fd5b505050506040513d601f19601f82011682018060405250810190611e6091906138f6565b905081811015611ea5576040517f08c379a0000000000000000000000000000000000000000000000000000000008152600401611e9c90613995565b60405180910390fd5b600360009054906101000a900473ffffffffffffffffffffffffffffffffffffffff1673ffffffffffffffffffffffffffffffffffffffff166323b872dd3330856040518463ffffffff1660e01b8152600401611f04939291906139b5565b6020604051808303816000875af1158015611f23573d6000803e3d6000fd5b505050506040513d601f19601f82011682018060405250810190611f479190613804565b611f86576040517f08c379a0000000000000000000000000000000000000000000000000000000008152600401611f7d90613a38565b60405180910390fd5b60006001805490509050600160405180608001604052803373ffffffffffffffffffffffffffffffffffffffff1681526020018673ffffffffffffffffffffffffffffffffffffffff16815260200185815260200160001515815250908060018154018082558091505060019003906000526020600020906004020160009091909190915060008201518160000160006101000a81548173ffffffffffffffffffffffffffffffffffffffff021916908373ffffffffffffffffffffffffffffffffffffffff16021790555060208201518160010160006101000a81548173ffffffffffffffffffffffffffffffffffffffff021916908373ffffffffffffffffffffffffffffffffffffffff1602179055506040820151816002015560608201518160030160006101000a81548160ff02191690831515021790555050508373ffffffffffffffffffffffffffffffffffffffff163373ffffffffffffffffffffffffffffffffffffffff167f24422c38b7878e9784fb7ee078c6c0c41cb7842de5bd7d0fad5a22e147fe175e8584604051612124929190613a58565b60405180910390a350505050565b6002818154811061214257600080fd5b906000526020600020016000915054906101000a900473ffffffffffffffffffffffffffffffffffffffff1681565b600073ffffffffffffffffffffffffffffffffffffffff166000803373ffffffffffffffffffffffffffffffffffffffff1673ffffffffffffffffffffffffffffffffffffffff16815260200190815260200160002060000160009054906101000a900473ffffffffffffffffffffffffffffffffffffffff1673ffffffffffffffffffffffffffffffffffffffff1614612241576040517f08c379a000000000000000000000000000000000000000000000000000000000815260040161223890613acd565b60405180910390fd5b61224961276d565b85156124d45760405180606001604052808681526020018581526020018481525090506040518061012001604052803373ffffffffffffffffffffffffffffffffffffffff1681526020018a8152602001898152602001888152602001600560ff1681526020016001151581526020018281526020018361ffff168152602001600115158152506000803373ffffffffffffffffffffffffffffffffffffffff1673ffffffffffffffffffffffffffffffffffffffff16815260200190815260200160002060008201518160000160006101000a81548173ffffffffffffffffffffffffffffffffffffffff021916908373ffffffffffffffffffffffffffffffffffffffff160217905550602082015181600101908161236a919061330a565b506040820151816002019081612380919061330a565b506060820151816003019081612396919061330a565b5060808201518160040160006101000a81548160ff021916908360ff16021790555060a08201518160040160016101000a81548160ff02191690831515021790555060c08201518160050160008201518160000190816123f6919061330a565b50602082015181600101908161240c919061330a565b506040820151816002019081612422919061330a565b50505060e08201518160080160006101000a81548161ffff021916908361ffff1602179055506101008201518160080160026101000a81548160ff0219169083151502179055509050506002339080600181540180825580915050600190039060005260206000200160009091909190916101000a81548173ffffffffffffffffffffffffffffffffffffffff021916908373ffffffffffffffffffffffffffffffffffffffff16021790555061271d565b6040518061012001604052803373ffffffffffffffffffffffffffffffffffffffff1681526020018a8152602001898152602001888152602001600560ff1681526020016000151581526020016040518060600160405280604051806020016040528060008152508152602001604051806020016040528060008152508152602001604051806020016040528060008152508152508152602001600061ffff168152602001600015158152506000803373ffffffffffffffffffffffffffffffffffffffff1673ffffffffffffffffffffffffffffffffffffffff16815260200190815260200160002060008201518160000160006101000a81548173ffffffffffffffffffffffffffffffffffffffff021916908373ffffffffffffffffffffffffffffffffffffffff160217905550602082015181600101908161261a919061330a565b506040820151816002019081612630919061330a565b506060820151816003019081612646919061330a565b5060808201518160040160006101000a81548160ff021916908360ff16021790555060a08201518160040160016101000a81548160ff02191690831515021790555060c08201518160050160008201518160000190816126a6919061330a565b5060208201518160010190816126bc919061330a565b5060408201518160020190816126d2919061330a565b50505060e08201518160080160006101000a81548161ffff021916908361ffff1602179055506101008201518160080160026101000a81548160ff0219169083151502179055509050505b505050505050505050565b600360009054906101000a900473ffffffffffffffffffffffffffffffffffffffff1681565b60008160ff168360ff16106127635781612765565b825b905092915050565b60405180606001604052806060815260200160608152602001606081525090565b6000604051905090565b600080fd5b600080fd5b600080fd5b600080fd5b6000601f19601f8301169050919050565b7f4e487b7100000000000000000000000000000000000000000000000000000000600052604160045260246000fd5b6127f5826127ac565b810181811067ffffffffffffffff82111715612814576128136127bd565b5b80604052505050565b600061282761278e565b905061283382826127ec565b919050565b600067ffffffffffffffff821115612853576128526127bd565b5b61285c826127ac565b9050602081019050919050565b82818337600083830152505050565b600061288b61288684612838565b61281d565b9050828152602081018484840111156128a7576128a66127a7565b5b6128b2848285612869565b509392505050565b600082601f8301126128cf576128ce6127a2565b5b81356128df848260208601612878565b91505092915050565b60008115159050919050565b6128fd816128e8565b811461290857600080fd5b50565b60008135905061291a816128f4565b92915050565b600061ffff82169050919050565b61293781612920565b811461294257600080fd5b50565b6000813590506129548161292e565b92915050565b600080600080600080600080610100898b03121561297b5761297a612798565b5b600089013567ffffffffffffffff8111156129995761299861279d565b5b6129a58b828c016128ba565b985050602089013567ffffffffffffffff8111156129c6576129c561279d565b5b6129d28b828c016128ba565b975050604089013567ffffffffffffffff8111156129f3576129f261279d565b5b6129ff8b828c016128ba565b9650506060612a108b828c0161290b565b955050608089013567ffffffffffffffff811115612a3157612a3061279d565b5b612a3d8b828c016128ba565b94505060a089013567ffffffffffffffff811115612a5e57612a5d61279d565b5b612a6a8b828c016128ba565b93505060c089013567ffffffffffffffff811115612a8b57612a8a61279d565b5b612a978b828c016128ba565b92505060e0612aa88b828c01612945565b9150509295985092959890939650565b600073ffffffffffffffffffffffffffffffffffffffff82169050919050565b6000612ae382612ab8565b9050919050565b612af381612ad8565b8114612afe57600080fd5b50565b600081359050612b1081612aea565b92915050565b600060ff82169050919050565b612b2c81612b16565b8114612b3757600080fd5b50565b600081359050612b4981612b23565b92915050565b60008060408385031215612b6657612b65612798565b5b6000612b7485828601612b01565b9250506020612b8585828601612b3a565b9150509250929050565b6000819050919050565b612ba281612b8f565b8114612bad57600080fd5b50565b600081359050612bbf81612b99565b92915050565b600060208284031215612bdb57612bda612798565b5b6000612be984828501612bb0565b91505092915050565b612bfb81612ad8565b82525050565b612c0a81612b8f565b82525050565b612c19816128e8565b82525050565b6000608082019050612c346000830187612bf2565b612c416020830186612bf2565b612c4e6040830185612c01565b612c5b6060830184612c10565b95945050505050565b600060208284031215612c7a57612c79612798565b5b6000612c8884828501612b01565b91505092915050565b600081519050919050565b600082825260208201905092915050565b60005b83811015612ccb578082015181840152602081019050612cb0565b60008484015250505050565b6000612ce282612c91565b612cec8185612c9c565b9350612cfc818560208601612cad565b612d05816127ac565b840191505092915050565b612d1981612b16565b82525050565b612d2881612920565b82525050565b6000610140820190508181036000830152612d49818d612cd7565b90508181036020830152612d5d818c612cd7565b90508181036040830152612d71818b612cd7565b9050612d80606083018a612d10565b612d8d6080830189612c10565b81810360a0830152612d9f8188612cd7565b905081810360c0830152612db38187612cd7565b905081810360e0830152612dc78186612cd7565b9050612dd7610100830185612d1f565b612de5610120830184612c10565b9b9a5050505050505050505050565b600081519050919050565b600082825260208201905092915050565b6000819050602082019050919050565b612e2981612ad8565b82525050565b6000612e3b8383612e20565b60208301905092915050565b6000602082019050919050565b6000612e5f82612df4565b612e698185612dff565b9350612e7483612e10565b8060005b83811015612ea5578151612e8c8882612e2f565b9750612e9783612e47565b925050600181019050612e78565b5085935050505092915050565b60006020820190508181036000830152612ecc8184612e54565b905092915050565b6000612edf82612ab8565b9050919050565b612eef81612ed4565b82525050565b600082825260208201905092915050565b6000612f1182612c91565b612f1b8185612ef5565b9350612f2b818560208601612cad565b612f34816127ac565b840191505092915050565b60006060830160008301518482036000860152612f5c8282612f06565b91505060208301518482036020860152612f768282612f06565b91505060408301518482036040860152612f908282612f06565b9150508091505092915050565b600061012082019050612fb3600083018c612ee6565b8181036020830152612fc5818b612cd7565b90508181036040830152612fd9818a612cd7565b90508181036060830152612fed8189612cd7565b9050612ffc6080830188612d10565b61300960a0830187612c10565b81810360c083015261301b8186612f3f565b905061302a60e0830185612d1f565b613038610100830184612c10565b9a9950505050505050505050565b60006020828403121561305c5761305b612798565b5b600061306a8482850161290b565b91505092915050565b60006020820190506130886000830184612bf2565b92915050565b6000819050919050565b60006130b36130ae6130a984612ab8565b61308e565b612ab8565b9050919050565b60006130c582613098565b9050919050565b60006130d7826130ba565b9050919050565b6130e7816130cc565b82525050565b600060208201905061310260008301846130de565b92915050565b7f4e487b7100000000000000000000000000000000000000000000000000000000600052602260045260246000fd5b6000600282049050600182168061314f57607f821691505b60208210810361316257613161613108565b5b50919050565b60008190508160005260206000209050919050565b60006020601f8301049050919050565b600082821b905092915050565b6000600883026131ca7fffffffffffffffffffffffffffffffffffffffffffffffffffffffffffffffff8261318d565b6131d4868361318d565b95508019841693508086168417925050509392505050565b60006132076132026131fd84612b8f565b61308e565b612b8f565b9050919050565b6000819050919050565b613221836131ec565b61323561322d8261320e565b84845461319a565b825550505050565b600090565b61324a61323d565b613255818484613218565b505050565b5b818110156132795761326e600082613242565b60018101905061325b565b5050565b601f8211156132be5761328f81613168565b6132988461317d565b810160208510156132a7578190505b6132bb6132b38561317d565b83018261325a565b50505b505050565b600082821c905092915050565b60006132e1600019846008026132c3565b1980831691505092915050565b60006132fa83836132d0565b9150826002028217905092915050565b61331382612c91565b67ffffffffffffffff81111561332c5761332b6127bd565b5b6133368254613137565b61334182828561327d565b600060209050601f8311600181146133745760008415613362578287015190505b61336c85826132ee565b8655506133d4565b601f19841661338286613168565b60005b828110156133aa57848901518255600182019150602085019450602081019050613385565b868310156133c757848901516133c3601f8916826132d0565b8355505b6001600288020188555050505b505050505050565b7f4e6f742061207265676973746572656420647269766572000000000000000000600082015250565b6000613412601783612c9c565b915061341d826133dc565b602082019050919050565b6000602082019050818103600083015261344181613405565b9050919050565b7f526174696e67206d757374206265206265747765656e203120616e6420350000600082015250565b600061347e601e83612c9c565b915061348982613448565b602082019050919050565b600060208201905081810360008301526134ad81613471565b9050919050565b7f55736572206973206e6f7420612070617373656e676572000000000000000000600082015250565b60006134ea601783612c9c565b91506134f5826134b4565b602082019050919050565b60006020820190508181036000830152613519816134dd565b9050919050565b7f4e487b7100000000000000000000000000000000000000000000000000000000600052601160045260246000fd5b600061355a82612b16565b915061356583612b16565b9250828201905060ff81111561357e5761357d613520565b5b92915050565b60006020820190506135996000830184612d10565b92915050565b7f4e6f74206120726567697374657265642070617373656e676572000000000000600082015250565b60006135d5601a83612c9c565b91506135e08261359f565b602082019050919050565b60006020820190508181036000830152613604816135c8565b9050919050565b7f55736572206973206e6f74206120647269766572000000000000000000000000600082015250565b6000613641601483612c9c565b915061364c8261360b565b602082019050919050565b6000602082019050818103600083015261367081613634565b9050919050565b7f4e487b7100000000000000000000000000000000000000000000000000000000600052603260045260246000fd5b60006136b182612b8f565b91507fffffffffffffffffffffffffffffffffffffffffffffffffffffffffffffffff82036136e3576136e2613520565b5b600182019050919050565b7f4e6f742074686520647269766572206f66207468697320726964650000000000600082015250565b6000613724601b83612c9c565b915061372f826136ee565b602082019050919050565b6000602082019050818103600083015261375381613717565b9050919050565b7f5269646520616c726561647920636f6d706c6574656400000000000000000000600082015250565b6000613790601683612c9c565b915061379b8261375a565b602082019050919050565b600060208201905081810360008301526137bf81613783565b9050919050565b60006040820190506137db6000830185612bf2565b6137e86020830184612c01565b9392505050565b6000815190506137fe816128f4565b92915050565b60006020828403121561381a57613819612798565b5b6000613828848285016137ef565b91505092915050565b60006020820190506138466000830184612c01565b92915050565b7f447269766572206e6f7420617661696c61626c65000000000000000000000000600082015250565b6000613882601483612c9c565b915061388d8261384c565b602082019050919050565b600060208201905081810360008301526138b181613875565b9050919050565b60006040820190506138cd6000830185612bf2565b6138da6020830184612bf2565b9392505050565b6000815190506138f081612b99565b92915050565b60006020828403121561390c5761390b612798565b5b600061391a848285016138e1565b91505092915050565b7f496e73756666696369656e7420616c6c6f77616e636520666f72207472616e7360008201527f6665720000000000000000000000000000000000000000000000000000000000602082015250565b600061397f602383612c9c565b915061398a82613923565b604082019050919050565b600060208201905081810360008301526139ae81613972565b9050919050565b60006060820190506139ca6000830186612bf2565b6139d76020830185612bf2565b6139e46040830184612c01565b949350505050565b7f546f6b656e207472616e73666572206661696c65640000000000000000000000600082015250565b6000613a22601583612c9c565b9150613a2d826139ec565b602082019050919050565b60006020820190508181036000830152613a5181613a15565b9050919050565b6000604082019050613a6d6000830185612c01565b613a7a6020830184612c01565b9392505050565b7f5573657220616c72656164792072656769737465726564000000000000000000600082015250565b6000613ab7601783612c9c565b9150613ac282613a81565b602082019050919050565b60006020820190508181036000830152613ae681613aaa565b905091905056fea26469706673582212205f416418cba740b65663b125b6b3db6e045bc42044709855ac05c51db3e87f6464736f6c63430008140033",
  "linkReferences": {},
  "deployedLinkReferences": {}
}