{
  "_format": "hh-sol-artifact-1",
  "contractName": "RideSharing",
  "sourceName": "contracts/RideSharing.sol",
  "abi": [
    {
      "inputs": [
        {
          "internalType": "address",
          "name": "tokenAddress",
          "type": "address"
        }
      ],
      "stateMutability": "nonpayable",
      "type": "constructor"
    },
    {
      "anonymous": false,
      "inputs": [
        {
          "indexed": true,
          "internalType": "address",
          "name": "driver",
          "type": "address"
        },
        {
          "indexed": false,
          "internalType": "uint8",
          "name": "rating",
          "type": "uint8"
        }
      ],
      "name": "DriverRated",
      "type": "event"
    },
    {
      "anonymous": false,
      "inputs": [
        {
          "indexed": true,
          "internalType": "address",
          "name": "passenger",
          "type": "address"
        },
        {
          "indexed": false,
          "internalType": "uint8",
          "name": "rating",
          "type": "uint8"
        }
      ],
      "name": "PassengerRated",
      "type": "event"
    },
    {
      "anonymous": false,
      "inputs": [
        {
          "indexed": true,
          "internalType": "address",
          "name": "passenger",
          "type": "address"
        },
        {
          "indexed": true,
          "internalType": "address",
          "name": "driver",
          "type": "address"
        },
        {
          "indexed": false,
          "internalType": "uint256",
          "name": "fare",
          "type": "uint256"
        }
      ],
      "name": "RideCompleted",
      "type": "event"
    },
    {
      "anonymous": false,
      "inputs": [
        {
          "indexed": true,
          "internalType": "address",
          "name": "passenger",
          "type": "address"
        },
        {
          "indexed": true,
          "internalType": "address",
          "name": "driver",
          "type": "address"
        },
        {
          "indexed": false,
          "internalType": "uint256",
          "name": "fare",
          "type": "uint256"
        },
        {
          "indexed": false,
          "internalType": "uint256",
          "name": "rideIndex",
          "type": "uint256"
        }
      ],
      "name": "RideRequested",
      "type": "event"
    },
    {
      "stateMutability": "payable",
      "type": "fallback"
    },
    {
      "inputs": [
        {
          "internalType": "uint256",
          "name": "rideIndex",
          "type": "uint256"
        }
      ],
      "name": "completeRide",
      "outputs": [],
      "stateMutability": "nonpayable",
      "type": "function"
    },
    {
      "inputs": [
        {
          "internalType": "uint256",
          "name": "",
          "type": "uint256"
        }
      ],
      "name": "driverAddresses",
      "outputs": [
        {
          "internalType": "address",
          "name": "",
          "type": "address"
        }
      ],
      "stateMutability": "view",
      "type": "function"
    },
    {
      "inputs": [],
      "name": "getAvailableDrivers",
      "outputs": [
        {
          "internalType": "address[]",
          "name": "",
          "type": "address[]"
        }
      ],
      "stateMutability": "view",
      "type": "function"
    },
    {
      "inputs": [
        {
          "internalType": "address",
          "name": "user",
          "type": "address"
        }
      ],
      "name": "getCurrentRide",
      "outputs": [
        {
          "components": [
            {
              "internalType": "address",
              "name": "passengerWallet",
              "type": "address"
            },
            {
              "internalType": "string",
              "name": "passengerFirstName",
              "type": "string"
            },
            {
              "internalType": "string",
              "name": "passengerLastName",
              "type": "string"
            },
            {
              "internalType": "string",
              "name": "passengerPhoneNumber",
              "type": "string"
            },
            {
              "internalType": "uint8",
              "name": "passengerRating",
              "type": "uint8"
            },
            {
              "internalType": "bool",
              "name": "passengerIsDriver",
              "type": "bool"
            },
            {
              "internalType": "address",
              "name": "driverWallet",
              "type": "address"
            },
            {
              "internalType": "string",
              "name": "driverFirstName",
              "type": "string"
            },
            {
              "internalType": "string",
              "name": "driverLastName",
              "type": "string"
            },
            {
              "internalType": "string",
              "name": "driverPhoneNumber",
              "type": "string"
            },
            {
              "internalType": "uint8",
              "name": "driverRating",
              "type": "uint8"
            },
            {
              "internalType": "bool",
              "name": "driverIsDriver",
              "type": "bool"
            },
            {
              "internalType": "string",
              "name": "vehicleModel",
              "type": "string"
            },
            {
              "internalType": "string",
              "name": "vehicleNumber",
              "type": "string"
            },
            {
              "internalType": "string",
              "name": "vehicleColor",
              "type": "string"
            },
            {
              "internalType": "uint16",
              "name": "pricePerRide",
              "type": "uint16"
            },
            {
              "internalType": "bool",
              "name": "isAvailable",
              "type": "bool"
            },
            {
              "internalType": "uint256",
              "name": "fare",
              "type": "uint256"
            },
            {
              "internalType": "bool",
              "name": "completed",
              "type": "bool"
            },
            {
              "internalType": "uint256",
              "name": "rideIndex",
              "type": "uint256"
            }
          ],
          "internalType": "struct RideSharing.RideDetails",
          "name": "",
          "type": "tuple"
        }
      ],
      "stateMutability": "view",
      "type": "function"
    },
    {
      "inputs": [
        {
          "internalType": "address",
          "name": "_user",
          "type": "address"
        }
      ],
      "name": "getUser",
      "outputs": [
        {
          "internalType": "string",
          "name": "firstName",
          "type": "string"
        },
        {
          "internalType": "string",
          "name": "lastName",
          "type": "string"
        },
        {
          "internalType": "string",
          "name": "phoneNumber",
          "type": "string"
        },
        {
          "internalType": "uint8",
          "name": "rating",
          "type": "uint8"
        },
        {
          "internalType": "bool",
          "name": "isDriver",
          "type": "bool"
        },
        {
          "internalType": "string",
          "name": "vehicleModel",
          "type": "string"
        },
        {
          "internalType": "string",
          "name": "vehicleNumber",
          "type": "string"
        },
        {
          "internalType": "string",
          "name": "vehicleColor",
          "type": "string"
        },
        {
          "internalType": "uint16",
          "name": "pricePerRide",
          "type": "uint16"
        },
        {
          "internalType": "bool",
          "name": "isAvailable",
          "type": "bool"
        }
      ],
      "stateMutability": "view",
      "type": "function"
    },
    {
      "inputs": [
        {
          "internalType": "address",
          "name": "_driver",
          "type": "address"
        },
        {
          "internalType": "uint8",
          "name": "_rating",
          "type": "uint8"
        }
      ],
      "name": "rateDriver",
      "outputs": [],
      "stateMutability": "nonpayable",
      "type": "function"
    },
    {
      "inputs": [
        {
          "internalType": "address",
          "name": "_passenger",
          "type": "address"
        },
        {
          "internalType": "uint8",
          "name": "_rating",
          "type": "uint8"
        }
      ],
      "name": "ratePassenger",
      "outputs": [],
      "stateMutability": "nonpayable",
      "type": "function"
    },
    {
      "inputs": [
        {
          "internalType": "string",
          "name": "_firstName",
          "type": "string"
        },
        {
          "internalType": "string",
          "name": "_lastName",
          "type": "string"
        },
        {
          "internalType": "string",
          "name": "_phoneNumber",
          "type": "string"
        },
        {
          "internalType": "bool",
          "name": "_isDriver",
          "type": "bool"
        },
        {
          "internalType": "string",
          "name": "_vehicleModel",
          "type": "string"
        },
        {
          "internalType": "string",
          "name": "_vehicleNumber",
          "type": "string"
        },
        {
          "internalType": "string",
          "name": "_vehicleColor",
          "type": "string"
        },
        {
          "internalType": "uint16",
          "name": "_pricePerRide",
          "type": "uint16"
        }
      ],
      "name": "registerUser",
      "outputs": [],
      "stateMutability": "nonpayable",
      "type": "function"
    },
    {
      "inputs": [
        {
          "internalType": "address",
          "name": "_driver",
          "type": "address"
        }
      ],
      "name": "requestRide",
      "outputs": [],
      "stateMutability": "nonpayable",
      "type": "function"
    },
    {
      "inputs": [],
      "name": "rideToken",
      "outputs": [
        {
          "internalType": "contract RideToken",
          "name": "",
          "type": "address"
        }
      ],
      "stateMutability": "view",
      "type": "function"
    },
    {
      "inputs": [
        {
          "internalType": "uint256",
          "name": "",
          "type": "uint256"
        }
      ],
      "name": "rides",
      "outputs": [
        {
          "internalType": "address",
          "name": "passenger",
          "type": "address"
        },
        {
          "internalType": "address",
          "name": "driver",
          "type": "address"
        },
        {
          "internalType": "uint256",
          "name": "fare",
          "type": "uint256"
        },
        {
          "internalType": "bool",
          "name": "completed",
          "type": "bool"
        }
      ],
      "stateMutability": "view",
      "type": "function"
    },
    {
      "inputs": [
        {
          "internalType": "bool",
          "name": "_availability",
          "type": "bool"
        }
      ],
      "name": "setDriverAvailability",
      "outputs": [],
      "stateMutability": "nonpayable",
      "type": "function"
    },
    {
      "inputs": [
        {
          "internalType": "string",
          "name": "_firstName",
          "type": "string"
        },
        {
          "internalType": "string",
          "name": "_lastName",
          "type": "string"
        },
        {
          "internalType": "string",
          "name": "_phoneNumber",
          "type": "string"
        },
        {
          "internalType": "bool",
          "name": "_isDriver",
          "type": "bool"
        },
        {
          "internalType": "string",
          "name": "_vehicleModel",
          "type": "string"
        },
        {
          "internalType": "string",
          "name": "_vehicleNumber",
          "type": "string"
        },
        {
          "internalType": "string",
          "name": "_vehicleColor",
          "type": "string"
        },
        {
          "internalType": "uint16",
          "name": "_pricePerRide",
          "type": "uint16"
        }
      ],
      "name": "updateUserDetails",
      "outputs": [],
      "stateMutability": "nonpayable",
      "type": "function"
    },
    {
      "inputs": [
        {
          "internalType": "address",
          "name": "",
          "type": "address"
        }
      ],
      "name": "users",
      "outputs": [
        {
          "internalType": "address payable",
          "name": "wallet",
          "type": "address"
        },
        {
          "internalType": "string",
          "name": "firstName",
          "type": "string"
        },
        {
          "internalType": "string",
          "name": "lastName",
          "type": "string"
        },
        {
          "internalType": "string",
          "name": "phoneNumber",
          "type": "string"
        },
        {
          "internalType": "uint8",
          "name": "rating",
          "type": "uint8"
        },
        {
          "internalType": "bool",
          "name": "isDriver",
          "type": "bool"
        },
        {
          "components": [
            {
              "internalType": "string",
              "name": "model",
              "type": "string"
            },
            {
              "internalType": "string",
              "name": "number",
              "type": "string"
            },
            {
              "internalType": "string",
              "name": "color",
              "type": "string"
            }
          ],
          "internalType": "struct RideSharing.Vehicle",
          "name": "vehicleDetails",
          "type": "tuple"
        },
        {
          "internalType": "uint16",
          "name": "pricePerRide",
          "type": "uint16"
        },
        {
          "internalType": "bool",
          "name": "isAvailable",
          "type": "bool"
        }
      ],
      "stateMutability": "view",
      "type": "function"
    },
    {
      "stateMutability": "payable",
      "type": "receive"
    }
  ],
  "bytecode": "0x60806040523480156200001157600080fd5b5060405162004eb238038062004eb28339818101604052810190620000379190620000e9565b80600360006101000a81548173ffffffffffffffffffffffffffffffffffffffff021916908373ffffffffffffffffffffffffffffffffffffffff160217905550506200011b565b600080fd5b600073ffffffffffffffffffffffffffffffffffffffff82169050919050565b6000620000b18262000084565b9050919050565b620000c381620000a4565b8114620000cf57600080fd5b50565b600081519050620000e381620000b8565b92915050565b6000602082840312156200010257620001016200007f565b5b60006200011284828501620000d2565b91505092915050565b614d87806200012b6000396000f3fe6080604052600436106100e15760003560e01c8063a87430ba1161007f578063c467b28711610059578063c467b287146102ea578063c85feec414610313578063ebfdb34e14610350578063fa69b8aa14610379576100e8565b8063a87430ba14610253578063b98c0cc114610298578063c416dd0b146102c1576100e8565b80635205f112116100bb5780635205f112146101795780636d29539e146101b95780636f77926b146101e257806383c8128614610228576100e8565b8063308c88b1146100ea5780633606d7bd1461012757806346a7411914610150576100e8565b366100e857005b005b3480156100f657600080fd5b50610111600480360381019061010c91906136f0565b6103a4565b60405161011e9190613a0d565b60405180910390f35b34801561013357600080fd5b5061014e60048036038101906101499190613bbc565b611091565b005b34801561015c57600080fd5b5061017760048036038101906101729190613d46565b6114c9565b005b34801561018557600080fd5b506101a0600480360381019061019b9190613db2565b61174c565b6040516101b09493929190613e0c565b60405180910390f35b3480156101c557600080fd5b506101e060048036038101906101db9190613d46565b6117d9565b005b3480156101ee57600080fd5b50610209600480360381019061020491906136f0565b611a5c565b60405161021f9a99989796959493929190613eb9565b60405180910390f35b34801561023457600080fd5b5061023d611f64565b60405161024a919061402e565b60405180910390f35b34801561025f57600080fd5b5061027a600480360381019061027591906136f0565b6121d4565b60405161028f999897969594939291906140cf565b60405180910390f35b3480156102a457600080fd5b506102bf60048036038101906102ba9190614178565b6125cf565b005b3480156102cd57600080fd5b506102e860048036038101906102e39190613db2565b6126b9565b005b3480156102f657600080fd5b50610311600480360381019061030c91906136f0565b612923565b005b34801561031f57600080fd5b5061033a60048036038101906103359190613db2565b612f4b565b60405161034791906141a5565b60405180910390f35b34801561035c57600080fd5b5061037760048036038101906103729190613bbc565b612f8a565b005b34801561038557600080fd5b5061038e613541565b60405161039b919061421f565b60405180910390f35b6103ac613586565b600060018054905090505b6000811115611050578273ffffffffffffffffffffffffffffffffffffffff16600180836103e59190614269565b815481106103f6576103f561429d565b5b906000526020600020906004020160000160009054906101000a900473ffffffffffffffffffffffffffffffffffffffff1673ffffffffffffffffffffffffffffffffffffffff1614806104c557508273ffffffffffffffffffffffffffffffffffffffff166001808361046a9190614269565b8154811061047b5761047a61429d565b5b906000526020600020906004020160010160009054906101000a900473ffffffffffffffffffffffffffffffffffffffff1673ffffffffffffffffffffffffffffffffffffffff16145b1561103d576000600180836104da9190614269565b815481106104eb576104ea61429d565b5b90600052602060002090600402016040518060800160405290816000820160009054906101000a900473ffffffffffffffffffffffffffffffffffffffff1673ffffffffffffffffffffffffffffffffffffffff1673ffffffffffffffffffffffffffffffffffffffff1681526020016001820160009054906101000a900473ffffffffffffffffffffffffffffffffffffffff1673ffffffffffffffffffffffffffffffffffffffff1673ffffffffffffffffffffffffffffffffffffffff168152602001600282015481526020016003820160009054906101000a900460ff16151515158152505090506000806000836000015173ffffffffffffffffffffffffffffffffffffffff1673ffffffffffffffffffffffffffffffffffffffff168152602001908152602001600020604051806101200160405290816000820160009054906101000a900473ffffffffffffffffffffffffffffffffffffffff1673ffffffffffffffffffffffffffffffffffffffff1673ffffffffffffffffffffffffffffffffffffffff16815260200160018201805461068d906142fb565b80601f01602080910402602001604051908101604052809291908181526020018280546106b9906142fb565b80156107065780601f106106db57610100808354040283529160200191610706565b820191906000526020600020905b8154815290600101906020018083116106e957829003601f168201915b5050505050815260200160028201805461071f906142fb565b80601f016020809104026020016040519081016040528092919081815260200182805461074b906142fb565b80156107985780601f1061076d57610100808354040283529160200191610798565b820191906000526020600020905b81548152906001019060200180831161077b57829003601f168201915b505050505081526020016003820180546107b1906142fb565b80601f01602080910402602001604051908101604052809291908181526020018280546107dd906142fb565b801561082a5780601f106107ff5761010080835404028352916020019161082a565b820191906000526020600020905b81548152906001019060200180831161080d57829003601f168201915b505050505081526020016004820160009054906101000a900460ff1660ff1660ff1681526020016004820160019054906101000a900460ff161515151581526020016005820160405180606001604052908160008201805461088b906142fb565b80601f01602080910402602001604051908101604052809291908181526020018280546108b7906142fb565b80156109045780601f106108d957610100808354040283529160200191610904565b820191906000526020600020905b8154815290600101906020018083116108e757829003601f168201915b5050505050815260200160018201805461091d906142fb565b80601f0160208091040260200160405190810160405280929190818152602001828054610949906142fb565b80156109965780601f1061096b57610100808354040283529160200191610996565b820191906000526020600020905b81548152906001019060200180831161097957829003601f168201915b505050505081526020016002820180546109af906142fb565b80601f01602080910402602001604051908101604052809291908181526020018280546109db906142fb565b8015610a285780601f106109fd57610100808354040283529160200191610a28565b820191906000526020600020905b815481529060010190602001808311610a0b57829003601f168201915b50505050508152505081526020016008820160009054906101000a900461ffff1661ffff1661ffff1681526020016008820160029054906101000a900460ff16151515158152505090506000806000846020015173ffffffffffffffffffffffffffffffffffffffff1673ffffffffffffffffffffffffffffffffffffffff168152602001908152602001600020604051806101200160405290816000820160009054906101000a900473ffffffffffffffffffffffffffffffffffffffff1673ffffffffffffffffffffffffffffffffffffffff1673ffffffffffffffffffffffffffffffffffffffff168152602001600182018054610b28906142fb565b80601f0160208091040260200160405190810160405280929190818152602001828054610b54906142fb565b8015610ba15780601f10610b7657610100808354040283529160200191610ba1565b820191906000526020600020905b815481529060010190602001808311610b8457829003601f168201915b50505050508152602001600282018054610bba906142fb565b80601f0160208091040260200160405190810160405280929190818152602001828054610be6906142fb565b8015610c335780601f10610c0857610100808354040283529160200191610c33565b820191906000526020600020905b815481529060010190602001808311610c1657829003601f168201915b50505050508152602001600382018054610c4c906142fb565b80601f0160208091040260200160405190810160405280929190818152602001828054610c78906142fb565b8015610cc55780601f10610c9a57610100808354040283529160200191610cc5565b820191906000526020600020905b815481529060010190602001808311610ca857829003601f168201915b505050505081526020016004820160009054906101000a900460ff1660ff1660ff1681526020016004820160019054906101000a900460ff1615151515815260200160058201604051806060016040529081600082018054610d26906142fb565b80601f0160208091040260200160405190810160405280929190818152602001828054610d52906142fb565b8015610d9f5780601f10610d7457610100808354040283529160200191610d9f565b820191906000526020600020905b815481529060010190602001808311610d8257829003601f168201915b50505050508152602001600182018054610db8906142fb565b80601f0160208091040260200160405190810160405280929190818152602001828054610de4906142fb565b8015610e315780601f10610e0657610100808354040283529160200191610e31565b820191906000526020600020905b815481529060010190602001808311610e1457829003601f168201915b50505050508152602001600282018054610e4a906142fb565b80601f0160208091040260200160405190810160405280929190818152602001828054610e76906142fb565b8015610ec35780601f10610e9857610100808354040283529160200191610ec3565b820191906000526020600020905b815481529060010190602001808311610ea657829003601f168201915b50505050508152505081526020016008820160009054906101000a900461ffff1661ffff1661ffff1681526020016008820160029054906101000a900460ff1615151515815250509050604051806102800160405280836000015173ffffffffffffffffffffffffffffffffffffffff168152602001836020015181526020018360400151815260200183606001518152602001836080015160ff1681526020018360a0015115158152602001826000015173ffffffffffffffffffffffffffffffffffffffff168152602001826020015181526020018260400151815260200182606001518152602001826080015160ff1681526020018260a00151151581526020018260c001516000015181526020018260c001516020015181526020018260c001516040015181526020018260e0015161ffff168152602001826101000151151581526020018460400151815260200184606001511515815260200160018661102f9190614269565b81525094505050505061108c565b80806110489061432c565b9150506103b7565b506040517f08c379a0000000000000000000000000000000000000000000000000000000008152600401611083906143a1565b60405180910390fd5b919050565b876000803373ffffffffffffffffffffffffffffffffffffffff1673ffffffffffffffffffffffffffffffffffffffff16815260200190815260200160002060010190816110df9190614563565b50866000803373ffffffffffffffffffffffffffffffffffffffff1673ffffffffffffffffffffffffffffffffffffffff168152602001908152602001600020600201908161112e9190614563565b50856000803373ffffffffffffffffffffffffffffffffffffffff1673ffffffffffffffffffffffffffffffffffffffff168152602001908152602001600020600301908161117d9190614563565b50846000803373ffffffffffffffffffffffffffffffffffffffff1673ffffffffffffffffffffffffffffffffffffffff16815260200190815260200160002060040160016101000a81548160ff0219169083151502179055508415611339576040518060600160405280858152602001848152602001838152506000803373ffffffffffffffffffffffffffffffffffffffff1673ffffffffffffffffffffffffffffffffffffffff168152602001908152602001600020600501600082015181600001908161124e9190614563565b5060208201518160010190816112649190614563565b50604082015181600201908161127a9190614563565b50905050806000803373ffffffffffffffffffffffffffffffffffffffff1673ffffffffffffffffffffffffffffffffffffffff16815260200190815260200160002060080160006101000a81548161ffff021916908361ffff16021790555060016000803373ffffffffffffffffffffffffffffffffffffffff1673ffffffffffffffffffffffffffffffffffffffff16815260200190815260200160002060080160026101000a81548160ff0219169083151502179055506114bf565b6040518060600160405280604051806020016040528060008152508152602001604051806020016040528060008152508152602001604051806020016040528060008152508152506000803373ffffffffffffffffffffffffffffffffffffffff1673ffffffffffffffffffffffffffffffffffffffff16815260200190815260200160002060050160008201518160000190816113d79190614563565b5060208201518160010190816113ed9190614563565b5060408201518160020190816114039190614563565b5090505060008060003373ffffffffffffffffffffffffffffffffffffffff1673ffffffffffffffffffffffffffffffffffffffff16815260200190815260200160002060080160006101000a81548161ffff021916908361ffff16021790555060008060003373ffffffffffffffffffffffffffffffffffffffff1673ffffffffffffffffffffffffffffffffffffffff16815260200190815260200160002060080160026101000a81548160ff0219169083151502179055505b5050505050505050565b6000803373ffffffffffffffffffffffffffffffffffffffff1673ffffffffffffffffffffffffffffffffffffffff16815260200190815260200160002060040160019054906101000a900460ff16611557576040517f08c379a000000000000000000000000000000000000000000000000000000000815260040161154e90614681565b60405180910390fd5b60018160ff161015801561156f575060058160ff1611155b6115ae576040517f08c379a00000000000000000000000000000000000000000000000000000000081526004016115a5906146ed565b60405180910390fd5b6000808373ffffffffffffffffffffffffffffffffffffffff1673ffffffffffffffffffffffffffffffffffffffff16815260200190815260200160002060040160019054906101000a900460ff161561163d576040517f08c379a000000000000000000000000000000000000000000000000000000000815260040161163490614759565b60405180910390fd5b6116a1816000808573ffffffffffffffffffffffffffffffffffffffff1673ffffffffffffffffffffffffffffffffffffffff16815260200190815260200160002060040160009054906101000a900460ff1661169a9190614779565b6005613567565b6000808473ffffffffffffffffffffffffffffffffffffffff1673ffffffffffffffffffffffffffffffffffffffff16815260200190815260200160002060040160006101000a81548160ff021916908360ff1602179055508173ffffffffffffffffffffffffffffffffffffffff167fa4c5af8afe0b5c9277dbd093020651d57d590c7b32e8b256f930601f4cb1c41f8260405161174091906147ae565b60405180910390a25050565b6001818154811061175c57600080fd5b90600052602060002090600402016000915090508060000160009054906101000a900473ffffffffffffffffffffffffffffffffffffffff16908060010160009054906101000a900473ffffffffffffffffffffffffffffffffffffffff16908060020154908060030160009054906101000a900460ff16905084565b6000803373ffffffffffffffffffffffffffffffffffffffff1673ffffffffffffffffffffffffffffffffffffffff16815260200190815260200160002060040160019054906101000a900460ff1615611868576040517f08c379a000000000000000000000000000000000000000000000000000000000815260040161185f90614815565b60405180910390fd5b60018160ff1610158015611880575060058160ff1611155b6118bf576040517f08c379a00000000000000000000000000000000000000000000000000000000081526004016118b6906146ed565b60405180910390fd5b6000808373ffffffffffffffffffffffffffffffffffffffff1673ffffffffffffffffffffffffffffffffffffffff16815260200190815260200160002060040160019054906101000a900460ff1661194d576040517f08c379a000000000000000000000000000000000000000000000000000000000815260040161194490614881565b60405180910390fd5b6119b1816000808573ffffffffffffffffffffffffffffffffffffffff1673ffffffffffffffffffffffffffffffffffffffff16815260200190815260200160002060040160009054906101000a900460ff166119aa9190614779565b6005613567565b6000808473ffffffffffffffffffffffffffffffffffffffff1673ffffffffffffffffffffffffffffffffffffffff16815260200190815260200160002060040160006101000a81548160ff021916908360ff1602179055508173ffffffffffffffffffffffffffffffffffffffff167fc5aabca1ab7c706f9f9f116141be3d49a9af4d6fd57f0ad895028006a70ed33a82604051611a5091906147ae565b60405180910390a25050565b6060806060600080606080606060008060008060008d73ffffffffffffffffffffffffffffffffffffffff1673ffffffffffffffffffffffffffffffffffffffff168152602001908152602001600020604051806101200160405290816000820160009054906101000a900473ffffffffffffffffffffffffffffffffffffffff1673ffffffffffffffffffffffffffffffffffffffff1673ffffffffffffffffffffffffffffffffffffffff168152602001600182018054611b1e906142fb565b80601f0160208091040260200160405190810160405280929190818152602001828054611b4a906142fb565b8015611b975780601f10611b6c57610100808354040283529160200191611b97565b820191906000526020600020905b815481529060010190602001808311611b7a57829003601f168201915b50505050508152602001600282018054611bb0906142fb565b80601f0160208091040260200160405190810160405280929190818152602001828054611bdc906142fb565b8015611c295780601f10611bfe57610100808354040283529160200191611c29565b820191906000526020600020905b815481529060010190602001808311611c0c57829003601f168201915b50505050508152602001600382018054611c42906142fb565b80601f0160208091040260200160405190810160405280929190818152602001828054611c6e906142fb565b8015611cbb5780601f10611c9057610100808354040283529160200191611cbb565b820191906000526020600020905b815481529060010190602001808311611c9e57829003601f168201915b505050505081526020016004820160009054906101000a900460ff1660ff1660ff1681526020016004820160019054906101000a900460ff1615151515815260200160058201604051806060016040529081600082018054611d1c906142fb565b80601f0160208091040260200160405190810160405280929190818152602001828054611d48906142fb565b8015611d955780601f10611d6a57610100808354040283529160200191611d95565b820191906000526020600020905b815481529060010190602001808311611d7857829003601f168201915b50505050508152602001600182018054611dae906142fb565b80601f0160208091040260200160405190810160405280929190818152602001828054611dda906142fb565b8015611e275780601f10611dfc57610100808354040283529160200191611e27565b820191906000526020600020905b815481529060010190602001808311611e0a57829003601f168201915b50505050508152602001600282018054611e40906142fb565b80601f0160208091040260200160405190810160405280929190818152602001828054611e6c906142fb565b8015611eb95780601f10611e8e57610100808354040283529160200191611eb9565b820191906000526020600020905b815481529060010190602001808311611e9c57829003601f168201915b50505050508152505081526020016008820160009054906101000a900461ffff1661ffff1661ffff1681526020016008820160029054906101000a900460ff161515151581525050905080602001519a508060400151995080606001519850806080015197508060a0015196508060c001516000015195508060c001516020015194508060c001516040015193508060e0015192508061010001519150509193959799509193959799565b60606000805b60028054905081101561202b5760008060028381548110611f8e57611f8d61429d565b5b9060005260206000200160009054906101000a900473ffffffffffffffffffffffffffffffffffffffff1673ffffffffffffffffffffffffffffffffffffffff1673ffffffffffffffffffffffffffffffffffffffff16815260200190815260200160002060080160029054906101000a900460ff1615612018578180612014906148a1565b9250505b8080612023906148a1565b915050611f6a565b5060008167ffffffffffffffff81111561204857612047613a39565b5b6040519080825280602002602001820160405280156120765781602001602082028036833780820191505090505b5090506000805b6002805490508110156121ca57600080600283815481106120a1576120a061429d565b5b9060005260206000200160009054906101000a900473ffffffffffffffffffffffffffffffffffffffff1673ffffffffffffffffffffffffffffffffffffffff1673ffffffffffffffffffffffffffffffffffffffff16815260200190815260200160002060080160029054906101000a900460ff16156121b757600281815481106121305761212f61429d565b5b9060005260206000200160009054906101000a900473ffffffffffffffffffffffffffffffffffffffff1683838151811061216e5761216d61429d565b5b602002602001019073ffffffffffffffffffffffffffffffffffffffff16908173ffffffffffffffffffffffffffffffffffffffff168152505081806121b3906148a1565b9250505b80806121c2906148a1565b91505061207d565b5081935050505090565b60006020528060005260406000206000915090508060000160009054906101000a900473ffffffffffffffffffffffffffffffffffffffff169080600101805461221d906142fb565b80601f0160208091040260200160405190810160405280929190818152602001828054612249906142fb565b80156122965780601f1061226b57610100808354040283529160200191612296565b820191906000526020600020905b81548152906001019060200180831161227957829003601f168201915b5050505050908060020180546122ab906142fb565b80601f01602080910402602001604051908101604052809291908181526020018280546122d7906142fb565b80156123245780601f106122f957610100808354040283529160200191612324565b820191906000526020600020905b81548152906001019060200180831161230757829003601f168201915b505050505090806003018054612339906142fb565b80601f0160208091040260200160405190810160405280929190818152602001828054612365906142fb565b80156123b25780601f10612387576101008083540402835291602001916123b2565b820191906000526020600020905b81548152906001019060200180831161239557829003601f168201915b5050505050908060040160009054906101000a900460ff16908060040160019054906101000a900460ff1690806005016040518060600160405290816000820180546123fd906142fb565b80601f0160208091040260200160405190810160405280929190818152602001828054612429906142fb565b80156124765780601f1061244b57610100808354040283529160200191612476565b820191906000526020600020905b81548152906001019060200180831161245957829003601f168201915b5050505050815260200160018201805461248f906142fb565b80601f01602080910402602001604051908101604052809291908181526020018280546124bb906142fb565b80156125085780601f106124dd57610100808354040283529160200191612508565b820191906000526020600020905b8154815290600101906020018083116124eb57829003601f168201915b50505050508152602001600282018054612521906142fb565b80601f016020809104026020016040519081016040528092919081815260200182805461254d906142fb565b801561259a5780601f1061256f5761010080835404028352916020019161259a565b820191906000526020600020905b81548152906001019060200180831161257d57829003601f168201915b505050505081525050908060080160009054906101000a900461ffff16908060080160029054906101000a900460ff16905089565b6000803373ffffffffffffffffffffffffffffffffffffffff1673ffffffffffffffffffffffffffffffffffffffff16815260200190815260200160002060040160019054906101000a900460ff1661265d576040517f08c379a000000000000000000000000000000000000000000000000000000000815260040161265490614681565b60405180910390fd5b806000803373ffffffffffffffffffffffffffffffffffffffff1673ffffffffffffffffffffffffffffffffffffffff16815260200190815260200160002060080160026101000a81548160ff02191690831515021790555050565b6000803373ffffffffffffffffffffffffffffffffffffffff1673ffffffffffffffffffffffffffffffffffffffff16815260200190815260200160002060040160019054906101000a900460ff16612747576040517f08c379a000000000000000000000000000000000000000000000000000000000815260040161273e90614681565b60405180910390fd5b60006001828154811061275d5761275c61429d565b5b906000526020600020906004020190508060010160009054906101000a900473ffffffffffffffffffffffffffffffffffffffff1673ffffffffffffffffffffffffffffffffffffffff163373ffffffffffffffffffffffffffffffffffffffff16146127ff576040517f08c379a00000000000000000000000000000000000000000000000000000000081526004016127f69061495b565b60405180910390fd5b8060030160009054906101000a900460ff1615612851576040517f08c379a0000000000000000000000000000000000000000000000000000000008152600401612848906149c7565b60405180910390fd5b60018160030160006101000a81548160ff0219169083151502179055508060010160009054906101000a900473ffffffffffffffffffffffffffffffffffffffff1673ffffffffffffffffffffffffffffffffffffffff168160000160009054906101000a900473ffffffffffffffffffffffffffffffffffffffff1673ffffffffffffffffffffffffffffffffffffffff167f79228b1a6bc0e0ab214713a868da328ccf24a9a88d9822f4cdd568706c2cfa80836002015460405161291791906149e7565b60405180910390a35050565b6000803373ffffffffffffffffffffffffffffffffffffffff1673ffffffffffffffffffffffffffffffffffffffff16815260200190815260200160002060040160019054906101000a900460ff16156129b2576040517f08c379a00000000000000000000000000000000000000000000000000000000081526004016129a990614815565b60405180910390fd5b6000808273ffffffffffffffffffffffffffffffffffffffff1673ffffffffffffffffffffffffffffffffffffffff16815260200190815260200160002060040160019054906101000a900460ff168015612a5857506000808273ffffffffffffffffffffffffffffffffffffffff1673ffffffffffffffffffffffffffffffffffffffff16815260200190815260200160002060080160029054906101000a900460ff165b612a97576040517f08c379a0000000000000000000000000000000000000000000000000000000008152600401612a8e90614a4e565b60405180910390fd5b60008060008373ffffffffffffffffffffffffffffffffffffffff1673ffffffffffffffffffffffffffffffffffffffff16815260200190815260200160002060080160009054906101000a900461ffff1661ffff1690506000600360009054906101000a900473ffffffffffffffffffffffffffffffffffffffff1673ffffffffffffffffffffffffffffffffffffffff1663dd62ed3e33306040518363ffffffff1660e01b8152600401612b4e929190614a6e565b602060405180830381865afa158015612b6b573d6000803e3d6000fd5b505050506040513d601f19601f82011682018060405250810190612b8f9190614aac565b905081811015612bd4576040517f08c379a0000000000000000000000000000000000000000000000000000000008152600401612bcb90614b4b565b60405180910390fd5b6000600360009054906101000a900473ffffffffffffffffffffffffffffffffffffffff1673ffffffffffffffffffffffffffffffffffffffff166370a08231336040518263ffffffff1660e01b8152600401612c3191906141a5565b602060405180830381865afa158015612c4e573d6000803e3d6000fd5b505050506040513d601f19601f82011682018060405250810190612c729190614aac565b905082811015612cb7576040517f08c379a0000000000000000000000000000000000000000000000000000000008152600401612cae90614bb7565b60405180910390fd5b6000600360009054906101000a900473ffffffffffffffffffffffffffffffffffffffff1673ffffffffffffffffffffffffffffffffffffffff166323b872dd3387876040518463ffffffff1660e01b8152600401612d1893929190614bd7565b6020604051808303816000875af1158015612d37573d6000803e3d6000fd5b505050506040513d601f19601f82011682018060405250810190612d5b9190614c23565b905080612d9d576040517f08c379a0000000000000000000000000000000000000000000000000000000008152600401612d9490614c9c565b60405180910390fd5b60006001805490509050600160405180608001604052803373ffffffffffffffffffffffffffffffffffffffff1681526020018873ffffffffffffffffffffffffffffffffffffffff16815260200187815260200160001515815250908060018154018082558091505060019003906000526020600020906004020160009091909190915060008201518160000160006101000a81548173ffffffffffffffffffffffffffffffffffffffff021916908373ffffffffffffffffffffffffffffffffffffffff16021790555060208201518160010160006101000a81548173ffffffffffffffffffffffffffffffffffffffff021916908373ffffffffffffffffffffffffffffffffffffffff1602179055506040820151816002015560608201518160030160006101000a81548160ff02191690831515021790555050508573ffffffffffffffffffffffffffffffffffffffff163373ffffffffffffffffffffffffffffffffffffffff167f24422c38b7878e9784fb7ee078c6c0c41cb7842de5bd7d0fad5a22e147fe175e8784604051612f3b929190614cbc565b60405180910390a3505050505050565b60028181548110612f5b57600080fd5b906000526020600020016000915054906101000a900473ffffffffffffffffffffffffffffffffffffffff1681565b600073ffffffffffffffffffffffffffffffffffffffff166000803373ffffffffffffffffffffffffffffffffffffffff1673ffffffffffffffffffffffffffffffffffffffff16815260200190815260200160002060000160009054906101000a900473ffffffffffffffffffffffffffffffffffffffff1673ffffffffffffffffffffffffffffffffffffffff161461305a576040517f08c379a000000000000000000000000000000000000000000000000000000000815260040161305190614d31565b60405180910390fd5b61306261365d565b85156132ed5760405180606001604052808681526020018581526020018481525090506040518061012001604052803373ffffffffffffffffffffffffffffffffffffffff1681526020018a8152602001898152602001888152602001600560ff1681526020016001151581526020018281526020018361ffff168152602001600115158152506000803373ffffffffffffffffffffffffffffffffffffffff1673ffffffffffffffffffffffffffffffffffffffff16815260200190815260200160002060008201518160000160006101000a81548173ffffffffffffffffffffffffffffffffffffffff021916908373ffffffffffffffffffffffffffffffffffffffff16021790555060208201518160010190816131839190614563565b5060408201518160020190816131999190614563565b5060608201518160030190816131af9190614563565b5060808201518160040160006101000a81548160ff021916908360ff16021790555060a08201518160040160016101000a81548160ff02191690831515021790555060c082015181600501600082015181600001908161320f9190614563565b5060208201518160010190816132259190614563565b50604082015181600201908161323b9190614563565b50505060e08201518160080160006101000a81548161ffff021916908361ffff1602179055506101008201518160080160026101000a81548160ff0219169083151502179055509050506002339080600181540180825580915050600190039060005260206000200160009091909190916101000a81548173ffffffffffffffffffffffffffffffffffffffff021916908373ffffffffffffffffffffffffffffffffffffffff160217905550613536565b6040518061012001604052803373ffffffffffffffffffffffffffffffffffffffff1681526020018a8152602001898152602001888152602001600560ff1681526020016000151581526020016040518060600160405280604051806020016040528060008152508152602001604051806020016040528060008152508152602001604051806020016040528060008152508152508152602001600061ffff168152602001600015158152506000803373ffffffffffffffffffffffffffffffffffffffff1673ffffffffffffffffffffffffffffffffffffffff16815260200190815260200160002060008201518160000160006101000a81548173ffffffffffffffffffffffffffffffffffffffff021916908373ffffffffffffffffffffffffffffffffffffffff16021790555060208201518160010190816134339190614563565b5060408201518160020190816134499190614563565b50606082015181600301908161345f9190614563565b5060808201518160040160006101000a81548160ff021916908360ff16021790555060a08201518160040160016101000a81548160ff02191690831515021790555060c08201518160050160008201518160000190816134bf9190614563565b5060208201518160010190816134d59190614563565b5060408201518160020190816134eb9190614563565b50505060e08201518160080160006101000a81548161ffff021916908361ffff1602179055506101008201518160080160026101000a81548160ff0219169083151502179055509050505b505050505050505050565b600360009054906101000a900473ffffffffffffffffffffffffffffffffffffffff1681565b60008160ff168360ff161061357c578161357e565b825b905092915050565b604051806102800160405280600073ffffffffffffffffffffffffffffffffffffffff168152602001606081526020016060815260200160608152602001600060ff168152602001600015158152602001600073ffffffffffffffffffffffffffffffffffffffff168152602001606081526020016060815260200160608152602001600060ff168152602001600015158152602001606081526020016060815260200160608152602001600061ffff16815260200160001515815260200160008152602001600015158152602001600081525090565b60405180606001604052806060815260200160608152602001606081525090565b6000604051905090565b600080fd5b600080fd5b600073ffffffffffffffffffffffffffffffffffffffff82169050919050565b60006136bd82613692565b9050919050565b6136cd816136b2565b81146136d857600080fd5b50565b6000813590506136ea816136c4565b92915050565b60006020828403121561370657613705613688565b5b6000613714848285016136db565b91505092915050565b613726816136b2565b82525050565b600081519050919050565b600082825260208201905092915050565b60005b8381101561376657808201518184015260208101905061374b565b60008484015250505050565b6000601f19601f8301169050919050565b600061378e8261372c565b6137988185613737565b93506137a8818560208601613748565b6137b181613772565b840191505092915050565b600060ff82169050919050565b6137d2816137bc565b82525050565b60008115159050919050565b6137ed816137d8565b82525050565b600061ffff82169050919050565b61380a816137f3565b82525050565b6000819050919050565b61382381613810565b82525050565b600061028083016000830151613842600086018261371d565b506020830151848203602086015261385a8282613783565b915050604083015184820360408601526138748282613783565b9150506060830151848203606086015261388e8282613783565b91505060808301516138a360808601826137c9565b5060a08301516138b660a08601826137e4565b5060c08301516138c960c086018261371d565b5060e083015184820360e08601526138e18282613783565b9150506101008301518482036101008601526138fd8282613783565b9150506101208301518482036101208601526139198282613783565b9150506101408301516139306101408601826137c9565b506101608301516139456101608601826137e4565b5061018083015184820361018086015261395f8282613783565b9150506101a08301518482036101a086015261397b8282613783565b9150506101c08301518482036101c08601526139978282613783565b9150506101e08301516139ae6101e0860182613801565b506102008301516139c36102008601826137e4565b506102208301516139d861022086018261381a565b506102408301516139ed6102408601826137e4565b50610260830151613a0261026086018261381a565b508091505092915050565b60006020820190508181036000830152613a278184613829565b905092915050565b600080fd5b600080fd5b7f4e487b7100000000000000000000000000000000000000000000000000000000600052604160045260246000fd5b613a7182613772565b810181811067ffffffffffffffff82111715613a9057613a8f613a39565b5b80604052505050565b6000613aa361367e565b9050613aaf8282613a68565b919050565b600067ffffffffffffffff821115613acf57613ace613a39565b5b613ad882613772565b9050602081019050919050565b82818337600083830152505050565b6000613b07613b0284613ab4565b613a99565b905082815260208101848484011115613b2357613b22613a34565b5b613b2e848285613ae5565b509392505050565b600082601f830112613b4b57613b4a613a2f565b5b8135613b5b848260208601613af4565b91505092915050565b613b6d816137d8565b8114613b7857600080fd5b50565b600081359050613b8a81613b64565b92915050565b613b99816137f3565b8114613ba457600080fd5b50565b600081359050613bb681613b90565b92915050565b600080600080600080600080610100898b031215613bdd57613bdc613688565b5b600089013567ffffffffffffffff811115613bfb57613bfa61368d565b5b613c078b828c01613b36565b985050602089013567ffffffffffffffff811115613c2857613c2761368d565b5b613c348b828c01613b36565b975050604089013567ffffffffffffffff811115613c5557613c5461368d565b5b613c618b828c01613b36565b9650506060613c728b828c01613b7b565b955050608089013567ffffffffffffffff811115613c9357613c9261368d565b5b613c9f8b828c01613b36565b94505060a089013567ffffffffffffffff811115613cc057613cbf61368d565b5b613ccc8b828c01613b36565b93505060c089013567ffffffffffffffff811115613ced57613cec61368d565b5b613cf98b828c01613b36565b92505060e0613d0a8b828c01613ba7565b9150509295985092959890939650565b613d23816137bc565b8114613d2e57600080fd5b50565b600081359050613d4081613d1a565b92915050565b60008060408385031215613d5d57613d5c613688565b5b6000613d6b858286016136db565b9250506020613d7c85828601613d31565b9150509250929050565b613d8f81613810565b8114613d9a57600080fd5b50565b600081359050613dac81613d86565b92915050565b600060208284031215613dc857613dc7613688565b5b6000613dd684828501613d9d565b91505092915050565b613de8816136b2565b82525050565b613df781613810565b82525050565b613e06816137d8565b82525050565b6000608082019050613e216000830187613ddf565b613e2e6020830186613ddf565b613e3b6040830185613dee565b613e486060830184613dfd565b95945050505050565b600082825260208201905092915050565b6000613e6d8261372c565b613e778185613e51565b9350613e87818560208601613748565b613e9081613772565b840191505092915050565b613ea4816137bc565b82525050565b613eb3816137f3565b82525050565b6000610140820190508181036000830152613ed4818d613e62565b90508181036020830152613ee8818c613e62565b90508181036040830152613efc818b613e62565b9050613f0b606083018a613e9b565b613f186080830189613dfd565b81810360a0830152613f2a8188613e62565b905081810360c0830152613f3e8187613e62565b905081810360e0830152613f528186613e62565b9050613f62610100830185613eaa565b613f70610120830184613dfd565b9b9a5050505050505050505050565b600081519050919050565b600082825260208201905092915050565b6000819050602082019050919050565b6000613fb7838361371d565b60208301905092915050565b6000602082019050919050565b6000613fdb82613f7f565b613fe58185613f8a565b9350613ff083613f9b565b8060005b838110156140215781516140088882613fab565b975061401383613fc3565b925050600181019050613ff4565b5085935050505092915050565b600060208201905081810360008301526140488184613fd0565b905092915050565b600061405b82613692565b9050919050565b61406b81614050565b82525050565b6000606083016000830151848203600086015261408e8282613783565b915050602083015184820360208601526140a88282613783565b915050604083015184820360408601526140c28282613783565b9150508091505092915050565b6000610120820190506140e5600083018c614062565b81810360208301526140f7818b613e62565b9050818103604083015261410b818a613e62565b9050818103606083015261411f8189613e62565b905061412e6080830188613e9b565b61413b60a0830187613dfd565b81810360c083015261414d8186614071565b905061415c60e0830185613eaa565b61416a610100830184613dfd565b9a9950505050505050505050565b60006020828403121561418e5761418d613688565b5b600061419c84828501613b7b565b91505092915050565b60006020820190506141ba6000830184613ddf565b92915050565b6000819050919050565b60006141e56141e06141db84613692565b6141c0565b613692565b9050919050565b60006141f7826141ca565b9050919050565b6000614209826141ec565b9050919050565b614219816141fe565b82525050565b60006020820190506142346000830184614210565b92915050565b7f4e487b7100000000000000000000000000000000000000000000000000000000600052601160045260246000fd5b600061427482613810565b915061427f83613810565b92508282039050818111156142975761429661423a565b5b92915050565b7f4e487b7100000000000000000000000000000000000000000000000000000000600052603260045260246000fd5b7f4e487b7100000000000000000000000000000000000000000000000000000000600052602260045260246000fd5b6000600282049050600182168061431357607f821691505b602082108103614326576143256142cc565b5b50919050565b600061433782613810565b91506000820361434a5761434961423a565b5b600182039050919050565b7f4e6f207269646520666f756e6420666f72207468697320616464726573730000600082015250565b600061438b601e83613e51565b915061439682614355565b602082019050919050565b600060208201905081810360008301526143ba8161437e565b9050919050565b60008190508160005260206000209050919050565b60006020601f8301049050919050565b600082821b905092915050565b6000600883026144237fffffffffffffffffffffffffffffffffffffffffffffffffffffffffffffffff826143e6565b61442d86836143e6565b95508019841693508086168417925050509392505050565b600061446061445b61445684613810565b6141c0565b613810565b9050919050565b6000819050919050565b61447a83614445565b61448e61448682614467565b8484546143f3565b825550505050565b600090565b6144a3614496565b6144ae818484614471565b505050565b5b818110156144d2576144c760008261449b565b6001810190506144b4565b5050565b601f821115614517576144e8816143c1565b6144f1846143d6565b81016020851015614500578190505b61451461450c856143d6565b8301826144b3565b50505b505050565b600082821c905092915050565b600061453a6000198460080261451c565b1980831691505092915050565b60006145538383614529565b9150826002028217905092915050565b61456c8261372c565b67ffffffffffffffff81111561458557614584613a39565b5b61458f82546142fb565b61459a8282856144d6565b600060209050601f8311600181146145cd57600084156145bb578287015190505b6145c58582614547565b86555061462d565b601f1984166145db866143c1565b60005b82811015614603578489015182556001820191506020850194506020810190506145de565b86831015614620578489015161461c601f891682614529565b8355505b6001600288020188555050505b505050505050565b7f4e6f742061207265676973746572656420647269766572000000000000000000600082015250565b600061466b601783613e51565b915061467682614635565b602082019050919050565b6000602082019050818103600083015261469a8161465e565b9050919050565b7f526174696e67206d757374206265206265747765656e203120616e6420350000600082015250565b60006146d7601e83613e51565b91506146e2826146a1565b602082019050919050565b60006020820190508181036000830152614706816146ca565b9050919050565b7f55736572206973206e6f7420612070617373656e676572000000000000000000600082015250565b6000614743601783613e51565b915061474e8261470d565b602082019050919050565b6000602082019050818103600083015261477281614736565b9050919050565b6000614784826137bc565b915061478f836137bc565b9250828201905060ff8111156147a8576147a761423a565b5b92915050565b60006020820190506147c36000830184613e9b565b92915050565b7f4e6f74206120726567697374657265642070617373656e676572000000000000600082015250565b60006147ff601a83613e51565b915061480a826147c9565b602082019050919050565b6000602082019050818103600083015261482e816147f2565b9050919050565b7f55736572206973206e6f74206120647269766572000000000000000000000000600082015250565b600061486b601483613e51565b915061487682614835565b602082019050919050565b6000602082019050818103600083015261489a8161485e565b9050919050565b60006148ac82613810565b91507fffffffffffffffffffffffffffffffffffffffffffffffffffffffffffffffff82036148de576148dd61423a565b5b600182019050919050565b7f4f6e6c7920746865206472697665722063616e20636f6d706c6574652074686960008201527f7320726964650000000000000000000000000000000000000000000000000000602082015250565b6000614945602683613e51565b9150614950826148e9565b604082019050919050565b6000602082019050818103600083015261497481614938565b9050919050565b7f5269646520616c726561647920636f6d706c6574656400000000000000000000600082015250565b60006149b1601683613e51565b91506149bc8261497b565b602082019050919050565b600060208201905081810360008301526149e0816149a4565b9050919050565b60006020820190506149fc6000830184613dee565b92915050565b7f447269766572206e6f7420617661696c61626c65000000000000000000000000600082015250565b6000614a38601483613e51565b9150614a4382614a02565b602082019050919050565b60006020820190508181036000830152614a6781614a2b565b9050919050565b6000604082019050614a836000830185613ddf565b614a906020830184613ddf565b9392505050565b600081519050614aa681613d86565b92915050565b600060208284031215614ac257614ac1613688565b5b6000614ad084828501614a97565b91505092915050565b7f436f6e7472616374206e6f7420617070726f76656420666f7220656e6f75676860008201527f20746f6b656e7300000000000000000000000000000000000000000000000000602082015250565b6000614b35602783613e51565b9150614b4082614ad9565b604082019050919050565b60006020820190508181036000830152614b6481614b28565b9050919050565b7f496e73756666696369656e742062616c616e6365000000000000000000000000600082015250565b6000614ba1601483613e51565b9150614bac82614b6b565b602082019050919050565b60006020820190508181036000830152614bd081614b94565b9050919050565b6000606082019050614bec6000830186613ddf565b614bf96020830185613ddf565b614c066040830184613dee565b949350505050565b600081519050614c1d81613b64565b92915050565b600060208284031215614c3957614c38613688565b5b6000614c4784828501614c0e565b91505092915050565b7f546f6b656e207472616e73666572206661696c65640000000000000000000000600082015250565b6000614c86601583613e51565b9150614c9182614c50565b602082019050919050565b60006020820190508181036000830152614cb581614c79565b9050919050565b6000604082019050614cd16000830185613dee565b614cde6020830184613dee565b9392505050565b7f5573657220616c72656164792072656769737465726564000000000000000000600082015250565b6000614d1b601783613e51565b9150614d2682614ce5565b602082019050919050565b60006020820190508181036000830152614d4a81614d0e565b905091905056fea2646970667358221220d61bc6b957ab2b98fed4fcbffbb2fc30ade55e78d922e3d57182fcdaad64b67864736f6c63430008140033",
  "linkReferences": {},
  "deployedLinkReferences": {}
}