{
  "_format": "hh-sol-artifact-1",
  "contractName": "RideSharing",
  "sourceName": "contracts/RideSharing.sol",
  "abi": [
    {
      "inputs": [
        {
          "internalType": "address",
          "name": "tokenAddress",
          "type": "address"
        }
      ],
      "stateMutability": "nonpayable",
      "type": "constructor"
    },
    {
      "anonymous": false,
      "inputs": [
        {
          "indexed": true,
          "internalType": "address",
          "name": "driver",
          "type": "address"
        },
        {
          "indexed": false,
          "internalType": "uint8",
          "name": "rating",
          "type": "uint8"
        }
      ],
      "name": "DriverRated",
      "type": "event"
    },
    {
      "anonymous": false,
      "inputs": [
        {
          "indexed": true,
          "internalType": "address",
          "name": "passenger",
          "type": "address"
        },
        {
          "indexed": false,
          "internalType": "uint8",
          "name": "rating",
          "type": "uint8"
        }
      ],
      "name": "PassengerRated",
      "type": "event"
    },
    {
      "anonymous": false,
      "inputs": [
        {
          "indexed": true,
          "internalType": "address",
          "name": "passenger",
          "type": "address"
        },
        {
          "indexed": true,
          "internalType": "address",
          "name": "driver",
          "type": "address"
        },
        {
          "indexed": false,
          "internalType": "uint256",
          "name": "fare",
          "type": "uint256"
        }
      ],
      "name": "RideCompleted",
      "type": "event"
    },
    {
      "anonymous": false,
      "inputs": [
        {
          "indexed": true,
          "internalType": "address",
          "name": "passenger",
          "type": "address"
        },
        {
          "indexed": true,
          "internalType": "address",
          "name": "driver",
          "type": "address"
        },
        {
          "indexed": false,
          "internalType": "uint256",
          "name": "fare",
          "type": "uint256"
        },
        {
          "indexed": false,
          "internalType": "uint256",
          "name": "rideIndex",
          "type": "uint256"
        }
      ],
      "name": "RideRequested",
      "type": "event"
    },
    {
      "stateMutability": "payable",
      "type": "fallback"
    },
    {
      "inputs": [
        {
          "internalType": "uint256",
          "name": "rideIndex",
          "type": "uint256"
        }
      ],
      "name": "completeRide",
      "outputs": [],
      "stateMutability": "nonpayable",
      "type": "function"
    },
    {
      "inputs": [
        {
          "internalType": "uint256",
          "name": "",
          "type": "uint256"
        }
      ],
      "name": "driverAddresses",
      "outputs": [
        {
          "internalType": "address",
          "name": "",
          "type": "address"
        }
      ],
      "stateMutability": "view",
      "type": "function"
    },
    {
      "inputs": [],
      "name": "getAvailableDrivers",
      "outputs": [
        {
          "internalType": "address[]",
          "name": "",
          "type": "address[]"
        }
      ],
      "stateMutability": "view",
      "type": "function"
    },
    {
      "inputs": [
        {
          "internalType": "address",
          "name": "user",
          "type": "address"
        }
      ],
      "name": "getCurrentRide",
      "outputs": [
        {
          "components": [
            {
              "internalType": "address",
              "name": "passengerWallet",
              "type": "address"
            },
            {
              "internalType": "string",
              "name": "passengerFirstName",
              "type": "string"
            },
            {
              "internalType": "string",
              "name": "passengerLastName",
              "type": "string"
            },
            {
              "internalType": "string",
              "name": "passengerPhoneNumber",
              "type": "string"
            },
            {
              "internalType": "uint8",
              "name": "passengerRating",
              "type": "uint8"
            },
            {
              "internalType": "bool",
              "name": "passengerIsDriver",
              "type": "bool"
            },
            {
              "internalType": "address",
              "name": "driverWallet",
              "type": "address"
            },
            {
              "internalType": "string",
              "name": "driverFirstName",
              "type": "string"
            },
            {
              "internalType": "string",
              "name": "driverLastName",
              "type": "string"
            },
            {
              "internalType": "string",
              "name": "driverPhoneNumber",
              "type": "string"
            },
            {
              "internalType": "uint8",
              "name": "driverRating",
              "type": "uint8"
            },
            {
              "internalType": "bool",
              "name": "driverIsDriver",
              "type": "bool"
            },
            {
              "internalType": "string",
              "name": "vehicleModel",
              "type": "string"
            },
            {
              "internalType": "string",
              "name": "vehicleNumber",
              "type": "string"
            },
            {
              "internalType": "string",
              "name": "vehicleColor",
              "type": "string"
            },
            {
              "internalType": "uint16",
              "name": "pricePerRide",
              "type": "uint16"
            },
            {
              "internalType": "bool",
              "name": "isAvailable",
              "type": "bool"
            },
            {
              "internalType": "uint256",
              "name": "fare",
              "type": "uint256"
            },
            {
              "internalType": "bool",
              "name": "completed",
              "type": "bool"
            },
            {
              "internalType": "uint256",
              "name": "rideIndex",
              "type": "uint256"
            }
          ],
          "internalType": "struct RideSharing.RideDetails",
          "name": "",
          "type": "tuple"
        }
      ],
      "stateMutability": "view",
      "type": "function"
    },
    {
      "inputs": [
        {
          "internalType": "address",
          "name": "_user",
          "type": "address"
        }
      ],
      "name": "getUser",
      "outputs": [
        {
          "internalType": "string",
          "name": "firstName",
          "type": "string"
        },
        {
          "internalType": "string",
          "name": "lastName",
          "type": "string"
        },
        {
          "internalType": "string",
          "name": "phoneNumber",
          "type": "string"
        },
        {
          "internalType": "uint8",
          "name": "rating",
          "type": "uint8"
        },
        {
          "internalType": "bool",
          "name": "isDriver",
          "type": "bool"
        },
        {
          "internalType": "string",
          "name": "vehicleModel",
          "type": "string"
        },
        {
          "internalType": "string",
          "name": "vehicleNumber",
          "type": "string"
        },
        {
          "internalType": "string",
          "name": "vehicleColor",
          "type": "string"
        },
        {
          "internalType": "uint16",
          "name": "pricePerRide",
          "type": "uint16"
        },
        {
          "internalType": "bool",
          "name": "isAvailable",
          "type": "bool"
        }
      ],
      "stateMutability": "view",
      "type": "function"
    },
    {
      "inputs": [
        {
          "internalType": "address",
          "name": "_driver",
          "type": "address"
        },
        {
          "internalType": "uint8",
          "name": "_rating",
          "type": "uint8"
        }
      ],
      "name": "rateDriver",
      "outputs": [],
      "stateMutability": "nonpayable",
      "type": "function"
    },
    {
      "inputs": [
        {
          "internalType": "address",
          "name": "_passenger",
          "type": "address"
        },
        {
          "internalType": "uint8",
          "name": "_rating",
          "type": "uint8"
        }
      ],
      "name": "ratePassenger",
      "outputs": [],
      "stateMutability": "nonpayable",
      "type": "function"
    },
    {
      "inputs": [
        {
          "internalType": "string",
          "name": "_firstName",
          "type": "string"
        },
        {
          "internalType": "string",
          "name": "_lastName",
          "type": "string"
        },
        {
          "internalType": "string",
          "name": "_phoneNumber",
          "type": "string"
        },
        {
          "internalType": "bool",
          "name": "_isDriver",
          "type": "bool"
        },
        {
          "internalType": "string",
          "name": "_vehicleModel",
          "type": "string"
        },
        {
          "internalType": "string",
          "name": "_vehicleNumber",
          "type": "string"
        },
        {
          "internalType": "string",
          "name": "_vehicleColor",
          "type": "string"
        },
        {
          "internalType": "uint16",
          "name": "_pricePerRide",
          "type": "uint16"
        }
      ],
      "name": "registerUser",
      "outputs": [],
      "stateMutability": "nonpayable",
      "type": "function"
    },
    {
      "inputs": [
        {
          "internalType": "address",
          "name": "_driver",
          "type": "address"
        }
      ],
      "name": "requestRide",
      "outputs": [],
      "stateMutability": "nonpayable",
      "type": "function"
    },
    {
      "inputs": [],
      "name": "rideToken",
      "outputs": [
        {
          "internalType": "contract RideToken",
          "name": "",
          "type": "address"
        }
      ],
      "stateMutability": "view",
      "type": "function"
    },
    {
      "inputs": [
        {
          "internalType": "uint256",
          "name": "",
          "type": "uint256"
        }
      ],
      "name": "rides",
      "outputs": [
        {
          "internalType": "address",
          "name": "passenger",
          "type": "address"
        },
        {
          "internalType": "address",
          "name": "driver",
          "type": "address"
        },
        {
          "internalType": "uint256",
          "name": "fare",
          "type": "uint256"
        },
        {
          "internalType": "bool",
          "name": "completed",
          "type": "bool"
        }
      ],
      "stateMutability": "view",
      "type": "function"
    },
    {
      "inputs": [
        {
          "internalType": "bool",
          "name": "_availability",
          "type": "bool"
        }
      ],
      "name": "setDriverAvailability",
      "outputs": [],
      "stateMutability": "nonpayable",
      "type": "function"
    },
    {
      "inputs": [
        {
          "internalType": "string",
          "name": "_firstName",
          "type": "string"
        },
        {
          "internalType": "string",
          "name": "_lastName",
          "type": "string"
        },
        {
          "internalType": "string",
          "name": "_phoneNumber",
          "type": "string"
        },
        {
          "internalType": "bool",
          "name": "_isDriver",
          "type": "bool"
        },
        {
          "internalType": "string",
          "name": "_vehicleModel",
          "type": "string"
        },
        {
          "internalType": "string",
          "name": "_vehicleNumber",
          "type": "string"
        },
        {
          "internalType": "string",
          "name": "_vehicleColor",
          "type": "string"
        },
        {
          "internalType": "uint16",
          "name": "_pricePerRide",
          "type": "uint16"
        }
      ],
      "name": "updateUserDetails",
      "outputs": [],
      "stateMutability": "nonpayable",
      "type": "function"
    },
    {
      "inputs": [
        {
          "internalType": "address",
          "name": "",
          "type": "address"
        }
      ],
      "name": "users",
      "outputs": [
        {
          "internalType": "address payable",
          "name": "wallet",
          "type": "address"
        },
        {
          "internalType": "string",
          "name": "firstName",
          "type": "string"
        },
        {
          "internalType": "string",
          "name": "lastName",
          "type": "string"
        },
        {
          "internalType": "string",
          "name": "phoneNumber",
          "type": "string"
        },
        {
          "internalType": "uint8",
          "name": "rating",
          "type": "uint8"
        },
        {
          "internalType": "bool",
          "name": "isDriver",
          "type": "bool"
        },
        {
          "components": [
            {
              "internalType": "string",
              "name": "model",
              "type": "string"
            },
            {
              "internalType": "string",
              "name": "number",
              "type": "string"
            },
            {
              "internalType": "string",
              "name": "color",
              "type": "string"
            }
          ],
          "internalType": "struct RideSharing.Vehicle",
          "name": "vehicleDetails",
          "type": "tuple"
        },
        {
          "internalType": "uint16",
          "name": "pricePerRide",
          "type": "uint16"
        },
        {
          "internalType": "bool",
          "name": "isAvailable",
          "type": "bool"
        }
      ],
      "stateMutability": "view",
      "type": "function"
    },
    {
      "stateMutability": "payable",
      "type": "receive"
    }
  ],
  "bytecode": "0x60806040523480156200001157600080fd5b5060405162004d5d38038062004d5d8339818101604052810190620000379190620000e9565b80600360006101000a81548173ffffffffffffffffffffffffffffffffffffffff021916908373ffffffffffffffffffffffffffffffffffffffff160217905550506200011b565b600080fd5b600073ffffffffffffffffffffffffffffffffffffffff82169050919050565b6000620000b18262000084565b9050919050565b620000c381620000a4565b8114620000cf57600080fd5b50565b600081519050620000e381620000b8565b92915050565b6000602082840312156200010257620001016200007f565b5b60006200011284828501620000d2565b91505092915050565b614c32806200012b6000396000f3fe6080604052600436106100e15760003560e01c8063a87430ba1161007f578063c467b28711610059578063c467b287146102ea578063c85feec414610313578063ebfdb34e14610350578063fa69b8aa14610379576100e8565b8063a87430ba14610253578063b98c0cc114610298578063c416dd0b146102c1576100e8565b80635205f112116100bb5780635205f112146101795780636d29539e146101b95780636f77926b146101e257806383c8128614610228576100e8565b8063308c88b1146100ea5780633606d7bd1461012757806346a7411914610150576100e8565b366100e857005b005b3480156100f657600080fd5b50610111600480360381019061010c9190613656565b6103a4565b60405161011e9190613973565b60405180910390f35b34801561013357600080fd5b5061014e60048036038101906101499190613b22565b611091565b005b34801561015c57600080fd5b5061017760048036038101906101729190613cac565b6114c9565b005b34801561018557600080fd5b506101a0600480360381019061019b9190613d18565b61174c565b6040516101b09493929190613d72565b60405180910390f35b3480156101c557600080fd5b506101e060048036038101906101db9190613cac565b6117d9565b005b3480156101ee57600080fd5b5061020960048036038101906102049190613656565b611a5c565b60405161021f9a99989796959493929190613e1f565b60405180910390f35b34801561023457600080fd5b5061023d611f64565b60405161024a9190613f94565b60405180910390f35b34801561025f57600080fd5b5061027a60048036038101906102759190613656565b6121d4565b60405161028f99989796959493929190614035565b60405180910390f35b3480156102a457600080fd5b506102bf60048036038101906102ba91906140de565b6125cf565b005b3480156102cd57600080fd5b506102e860048036038101906102e39190613d18565b6126b9565b005b3480156102f657600080fd5b50610311600480360381019061030c9190613656565b612a56565b005b34801561031f57600080fd5b5061033a60048036038101906103359190613d18565b612eb1565b604051610347919061410b565b60405180910390f35b34801561035c57600080fd5b5061037760048036038101906103729190613b22565b612ef0565b005b34801561038557600080fd5b5061038e6134a7565b60405161039b9190614185565b60405180910390f35b6103ac6134ec565b600060018054905090505b6000811115611050578273ffffffffffffffffffffffffffffffffffffffff16600180836103e591906141cf565b815481106103f6576103f5614203565b5b906000526020600020906004020160000160009054906101000a900473ffffffffffffffffffffffffffffffffffffffff1673ffffffffffffffffffffffffffffffffffffffff1614806104c557508273ffffffffffffffffffffffffffffffffffffffff166001808361046a91906141cf565b8154811061047b5761047a614203565b5b906000526020600020906004020160010160009054906101000a900473ffffffffffffffffffffffffffffffffffffffff1673ffffffffffffffffffffffffffffffffffffffff16145b1561103d576000600180836104da91906141cf565b815481106104eb576104ea614203565b5b90600052602060002090600402016040518060800160405290816000820160009054906101000a900473ffffffffffffffffffffffffffffffffffffffff1673ffffffffffffffffffffffffffffffffffffffff1673ffffffffffffffffffffffffffffffffffffffff1681526020016001820160009054906101000a900473ffffffffffffffffffffffffffffffffffffffff1673ffffffffffffffffffffffffffffffffffffffff1673ffffffffffffffffffffffffffffffffffffffff168152602001600282015481526020016003820160009054906101000a900460ff16151515158152505090506000806000836000015173ffffffffffffffffffffffffffffffffffffffff1673ffffffffffffffffffffffffffffffffffffffff168152602001908152602001600020604051806101200160405290816000820160009054906101000a900473ffffffffffffffffffffffffffffffffffffffff1673ffffffffffffffffffffffffffffffffffffffff1673ffffffffffffffffffffffffffffffffffffffff16815260200160018201805461068d90614261565b80601f01602080910402602001604051908101604052809291908181526020018280546106b990614261565b80156107065780601f106106db57610100808354040283529160200191610706565b820191906000526020600020905b8154815290600101906020018083116106e957829003601f168201915b5050505050815260200160028201805461071f90614261565b80601f016020809104026020016040519081016040528092919081815260200182805461074b90614261565b80156107985780601f1061076d57610100808354040283529160200191610798565b820191906000526020600020905b81548152906001019060200180831161077b57829003601f168201915b505050505081526020016003820180546107b190614261565b80601f01602080910402602001604051908101604052809291908181526020018280546107dd90614261565b801561082a5780601f106107ff5761010080835404028352916020019161082a565b820191906000526020600020905b81548152906001019060200180831161080d57829003601f168201915b505050505081526020016004820160009054906101000a900460ff1660ff1660ff1681526020016004820160019054906101000a900460ff161515151581526020016005820160405180606001604052908160008201805461088b90614261565b80601f01602080910402602001604051908101604052809291908181526020018280546108b790614261565b80156109045780601f106108d957610100808354040283529160200191610904565b820191906000526020600020905b8154815290600101906020018083116108e757829003601f168201915b5050505050815260200160018201805461091d90614261565b80601f016020809104026020016040519081016040528092919081815260200182805461094990614261565b80156109965780601f1061096b57610100808354040283529160200191610996565b820191906000526020600020905b81548152906001019060200180831161097957829003601f168201915b505050505081526020016002820180546109af90614261565b80601f01602080910402602001604051908101604052809291908181526020018280546109db90614261565b8015610a285780601f106109fd57610100808354040283529160200191610a28565b820191906000526020600020905b815481529060010190602001808311610a0b57829003601f168201915b50505050508152505081526020016008820160009054906101000a900461ffff1661ffff1661ffff1681526020016008820160029054906101000a900460ff16151515158152505090506000806000846020015173ffffffffffffffffffffffffffffffffffffffff1673ffffffffffffffffffffffffffffffffffffffff168152602001908152602001600020604051806101200160405290816000820160009054906101000a900473ffffffffffffffffffffffffffffffffffffffff1673ffffffffffffffffffffffffffffffffffffffff1673ffffffffffffffffffffffffffffffffffffffff168152602001600182018054610b2890614261565b80601f0160208091040260200160405190810160405280929190818152602001828054610b5490614261565b8015610ba15780601f10610b7657610100808354040283529160200191610ba1565b820191906000526020600020905b815481529060010190602001808311610b8457829003601f168201915b50505050508152602001600282018054610bba90614261565b80601f0160208091040260200160405190810160405280929190818152602001828054610be690614261565b8015610c335780601f10610c0857610100808354040283529160200191610c33565b820191906000526020600020905b815481529060010190602001808311610c1657829003601f168201915b50505050508152602001600382018054610c4c90614261565b80601f0160208091040260200160405190810160405280929190818152602001828054610c7890614261565b8015610cc55780601f10610c9a57610100808354040283529160200191610cc5565b820191906000526020600020905b815481529060010190602001808311610ca857829003601f168201915b505050505081526020016004820160009054906101000a900460ff1660ff1660ff1681526020016004820160019054906101000a900460ff1615151515815260200160058201604051806060016040529081600082018054610d2690614261565b80601f0160208091040260200160405190810160405280929190818152602001828054610d5290614261565b8015610d9f5780601f10610d7457610100808354040283529160200191610d9f565b820191906000526020600020905b815481529060010190602001808311610d8257829003601f168201915b50505050508152602001600182018054610db890614261565b80601f0160208091040260200160405190810160405280929190818152602001828054610de490614261565b8015610e315780601f10610e0657610100808354040283529160200191610e31565b820191906000526020600020905b815481529060010190602001808311610e1457829003601f168201915b50505050508152602001600282018054610e4a90614261565b80601f0160208091040260200160405190810160405280929190818152602001828054610e7690614261565b8015610ec35780601f10610e9857610100808354040283529160200191610ec3565b820191906000526020600020905b815481529060010190602001808311610ea657829003601f168201915b50505050508152505081526020016008820160009054906101000a900461ffff1661ffff1661ffff1681526020016008820160029054906101000a900460ff1615151515815250509050604051806102800160405280836000015173ffffffffffffffffffffffffffffffffffffffff168152602001836020015181526020018360400151815260200183606001518152602001836080015160ff1681526020018360a0015115158152602001826000015173ffffffffffffffffffffffffffffffffffffffff168152602001826020015181526020018260400151815260200182606001518152602001826080015160ff1681526020018260a00151151581526020018260c001516000015181526020018260c001516020015181526020018260c001516040015181526020018260e0015161ffff168152602001826101000151151581526020018460400151815260200184606001511515815260200160018661102f91906141cf565b81525094505050505061108c565b808061104890614292565b9150506103b7565b506040517f08c379a000000000000000000000000000000000000000000000000000000000815260040161108390614307565b60405180910390fd5b919050565b876000803373ffffffffffffffffffffffffffffffffffffffff1673ffffffffffffffffffffffffffffffffffffffff16815260200190815260200160002060010190816110df91906144c9565b50866000803373ffffffffffffffffffffffffffffffffffffffff1673ffffffffffffffffffffffffffffffffffffffff168152602001908152602001600020600201908161112e91906144c9565b50856000803373ffffffffffffffffffffffffffffffffffffffff1673ffffffffffffffffffffffffffffffffffffffff168152602001908152602001600020600301908161117d91906144c9565b50846000803373ffffffffffffffffffffffffffffffffffffffff1673ffffffffffffffffffffffffffffffffffffffff16815260200190815260200160002060040160016101000a81548160ff0219169083151502179055508415611339576040518060600160405280858152602001848152602001838152506000803373ffffffffffffffffffffffffffffffffffffffff1673ffffffffffffffffffffffffffffffffffffffff168152602001908152602001600020600501600082015181600001908161124e91906144c9565b50602082015181600101908161126491906144c9565b50604082015181600201908161127a91906144c9565b50905050806000803373ffffffffffffffffffffffffffffffffffffffff1673ffffffffffffffffffffffffffffffffffffffff16815260200190815260200160002060080160006101000a81548161ffff021916908361ffff16021790555060016000803373ffffffffffffffffffffffffffffffffffffffff1673ffffffffffffffffffffffffffffffffffffffff16815260200190815260200160002060080160026101000a81548160ff0219169083151502179055506114bf565b6040518060600160405280604051806020016040528060008152508152602001604051806020016040528060008152508152602001604051806020016040528060008152508152506000803373ffffffffffffffffffffffffffffffffffffffff1673ffffffffffffffffffffffffffffffffffffffff16815260200190815260200160002060050160008201518160000190816113d791906144c9565b5060208201518160010190816113ed91906144c9565b50604082015181600201908161140391906144c9565b5090505060008060003373ffffffffffffffffffffffffffffffffffffffff1673ffffffffffffffffffffffffffffffffffffffff16815260200190815260200160002060080160006101000a81548161ffff021916908361ffff16021790555060008060003373ffffffffffffffffffffffffffffffffffffffff1673ffffffffffffffffffffffffffffffffffffffff16815260200190815260200160002060080160026101000a81548160ff0219169083151502179055505b5050505050505050565b6000803373ffffffffffffffffffffffffffffffffffffffff1673ffffffffffffffffffffffffffffffffffffffff16815260200190815260200160002060040160019054906101000a900460ff16611557576040517f08c379a000000000000000000000000000000000000000000000000000000000815260040161154e906145e7565b60405180910390fd5b60018160ff161015801561156f575060058160ff1611155b6115ae576040517f08c379a00000000000000000000000000000000000000000000000000000000081526004016115a590614653565b60405180910390fd5b6000808373ffffffffffffffffffffffffffffffffffffffff1673ffffffffffffffffffffffffffffffffffffffff16815260200190815260200160002060040160019054906101000a900460ff161561163d576040517f08c379a0000000000000000000000000000000000000000000000000000000008152600401611634906146bf565b60405180910390fd5b6116a1816000808573ffffffffffffffffffffffffffffffffffffffff1673ffffffffffffffffffffffffffffffffffffffff16815260200190815260200160002060040160009054906101000a900460ff1661169a91906146df565b60056134cd565b6000808473ffffffffffffffffffffffffffffffffffffffff1673ffffffffffffffffffffffffffffffffffffffff16815260200190815260200160002060040160006101000a81548160ff021916908360ff1602179055508173ffffffffffffffffffffffffffffffffffffffff167fa4c5af8afe0b5c9277dbd093020651d57d590c7b32e8b256f930601f4cb1c41f826040516117409190614714565b60405180910390a25050565b6001818154811061175c57600080fd5b90600052602060002090600402016000915090508060000160009054906101000a900473ffffffffffffffffffffffffffffffffffffffff16908060010160009054906101000a900473ffffffffffffffffffffffffffffffffffffffff16908060020154908060030160009054906101000a900460ff16905084565b6000803373ffffffffffffffffffffffffffffffffffffffff1673ffffffffffffffffffffffffffffffffffffffff16815260200190815260200160002060040160019054906101000a900460ff1615611868576040517f08c379a000000000000000000000000000000000000000000000000000000000815260040161185f9061477b565b60405180910390fd5b60018160ff1610158015611880575060058160ff1611155b6118bf576040517f08c379a00000000000000000000000000000000000000000000000000000000081526004016118b690614653565b60405180910390fd5b6000808373ffffffffffffffffffffffffffffffffffffffff1673ffffffffffffffffffffffffffffffffffffffff16815260200190815260200160002060040160019054906101000a900460ff1661194d576040517f08c379a0000000000000000000000000000000000000000000000000000000008152600401611944906147e7565b60405180910390fd5b6119b1816000808573ffffffffffffffffffffffffffffffffffffffff1673ffffffffffffffffffffffffffffffffffffffff16815260200190815260200160002060040160009054906101000a900460ff166119aa91906146df565b60056134cd565b6000808473ffffffffffffffffffffffffffffffffffffffff1673ffffffffffffffffffffffffffffffffffffffff16815260200190815260200160002060040160006101000a81548160ff021916908360ff1602179055508173ffffffffffffffffffffffffffffffffffffffff167fc5aabca1ab7c706f9f9f116141be3d49a9af4d6fd57f0ad895028006a70ed33a82604051611a509190614714565b60405180910390a25050565b6060806060600080606080606060008060008060008d73ffffffffffffffffffffffffffffffffffffffff1673ffffffffffffffffffffffffffffffffffffffff168152602001908152602001600020604051806101200160405290816000820160009054906101000a900473ffffffffffffffffffffffffffffffffffffffff1673ffffffffffffffffffffffffffffffffffffffff1673ffffffffffffffffffffffffffffffffffffffff168152602001600182018054611b1e90614261565b80601f0160208091040260200160405190810160405280929190818152602001828054611b4a90614261565b8015611b975780601f10611b6c57610100808354040283529160200191611b97565b820191906000526020600020905b815481529060010190602001808311611b7a57829003601f168201915b50505050508152602001600282018054611bb090614261565b80601f0160208091040260200160405190810160405280929190818152602001828054611bdc90614261565b8015611c295780601f10611bfe57610100808354040283529160200191611c29565b820191906000526020600020905b815481529060010190602001808311611c0c57829003601f168201915b50505050508152602001600382018054611c4290614261565b80601f0160208091040260200160405190810160405280929190818152602001828054611c6e90614261565b8015611cbb5780601f10611c9057610100808354040283529160200191611cbb565b820191906000526020600020905b815481529060010190602001808311611c9e57829003601f168201915b505050505081526020016004820160009054906101000a900460ff1660ff1660ff1681526020016004820160019054906101000a900460ff1615151515815260200160058201604051806060016040529081600082018054611d1c90614261565b80601f0160208091040260200160405190810160405280929190818152602001828054611d4890614261565b8015611d955780601f10611d6a57610100808354040283529160200191611d95565b820191906000526020600020905b815481529060010190602001808311611d7857829003601f168201915b50505050508152602001600182018054611dae90614261565b80601f0160208091040260200160405190810160405280929190818152602001828054611dda90614261565b8015611e275780601f10611dfc57610100808354040283529160200191611e27565b820191906000526020600020905b815481529060010190602001808311611e0a57829003601f168201915b50505050508152602001600282018054611e4090614261565b80601f0160208091040260200160405190810160405280929190818152602001828054611e6c90614261565b8015611eb95780601f10611e8e57610100808354040283529160200191611eb9565b820191906000526020600020905b815481529060010190602001808311611e9c57829003601f168201915b50505050508152505081526020016008820160009054906101000a900461ffff1661ffff1661ffff1681526020016008820160029054906101000a900460ff161515151581525050905080602001519a508060400151995080606001519850806080015197508060a0015196508060c001516000015195508060c001516020015194508060c001516040015193508060e0015192508061010001519150509193959799509193959799565b60606000805b60028054905081101561202b5760008060028381548110611f8e57611f8d614203565b5b9060005260206000200160009054906101000a900473ffffffffffffffffffffffffffffffffffffffff1673ffffffffffffffffffffffffffffffffffffffff1673ffffffffffffffffffffffffffffffffffffffff16815260200190815260200160002060080160029054906101000a900460ff161561201857818061201490614807565b9250505b808061202390614807565b915050611f6a565b5060008167ffffffffffffffff8111156120485761204761399f565b5b6040519080825280602002602001820160405280156120765781602001602082028036833780820191505090505b5090506000805b6002805490508110156121ca57600080600283815481106120a1576120a0614203565b5b9060005260206000200160009054906101000a900473ffffffffffffffffffffffffffffffffffffffff1673ffffffffffffffffffffffffffffffffffffffff1673ffffffffffffffffffffffffffffffffffffffff16815260200190815260200160002060080160029054906101000a900460ff16156121b757600281815481106121305761212f614203565b5b9060005260206000200160009054906101000a900473ffffffffffffffffffffffffffffffffffffffff1683838151811061216e5761216d614203565b5b602002602001019073ffffffffffffffffffffffffffffffffffffffff16908173ffffffffffffffffffffffffffffffffffffffff168152505081806121b390614807565b9250505b80806121c290614807565b91505061207d565b5081935050505090565b60006020528060005260406000206000915090508060000160009054906101000a900473ffffffffffffffffffffffffffffffffffffffff169080600101805461221d90614261565b80601f016020809104026020016040519081016040528092919081815260200182805461224990614261565b80156122965780601f1061226b57610100808354040283529160200191612296565b820191906000526020600020905b81548152906001019060200180831161227957829003601f168201915b5050505050908060020180546122ab90614261565b80601f01602080910402602001604051908101604052809291908181526020018280546122d790614261565b80156123245780601f106122f957610100808354040283529160200191612324565b820191906000526020600020905b81548152906001019060200180831161230757829003601f168201915b50505050509080600301805461233990614261565b80601f016020809104026020016040519081016040528092919081815260200182805461236590614261565b80156123b25780601f10612387576101008083540402835291602001916123b2565b820191906000526020600020905b81548152906001019060200180831161239557829003601f168201915b5050505050908060040160009054906101000a900460ff16908060040160019054906101000a900460ff1690806005016040518060600160405290816000820180546123fd90614261565b80601f016020809104026020016040519081016040528092919081815260200182805461242990614261565b80156124765780601f1061244b57610100808354040283529160200191612476565b820191906000526020600020905b81548152906001019060200180831161245957829003601f168201915b5050505050815260200160018201805461248f90614261565b80601f01602080910402602001604051908101604052809291908181526020018280546124bb90614261565b80156125085780601f106124dd57610100808354040283529160200191612508565b820191906000526020600020905b8154815290600101906020018083116124eb57829003601f168201915b5050505050815260200160028201805461252190614261565b80601f016020809104026020016040519081016040528092919081815260200182805461254d90614261565b801561259a5780601f1061256f5761010080835404028352916020019161259a565b820191906000526020600020905b81548152906001019060200180831161257d57829003601f168201915b505050505081525050908060080160009054906101000a900461ffff16908060080160029054906101000a900460ff16905089565b6000803373ffffffffffffffffffffffffffffffffffffffff1673ffffffffffffffffffffffffffffffffffffffff16815260200190815260200160002060040160019054906101000a900460ff1661265d576040517f08c379a0000000000000000000000000000000000000000000000000000000008152600401612654906145e7565b60405180910390fd5b806000803373ffffffffffffffffffffffffffffffffffffffff1673ffffffffffffffffffffffffffffffffffffffff16815260200190815260200160002060080160026101000a81548160ff02191690831515021790555050565b6000803373ffffffffffffffffffffffffffffffffffffffff1673ffffffffffffffffffffffffffffffffffffffff16815260200190815260200160002060040160019054906101000a900460ff16612747576040517f08c379a000000000000000000000000000000000000000000000000000000000815260040161273e906145e7565b60405180910390fd5b60006001828154811061275d5761275c614203565b5b906000526020600020906004020190508060010160009054906101000a900473ffffffffffffffffffffffffffffffffffffffff1673ffffffffffffffffffffffffffffffffffffffff163373ffffffffffffffffffffffffffffffffffffffff16146127ff576040517f08c379a00000000000000000000000000000000000000000000000000000000081526004016127f6906148c1565b60405180910390fd5b8060030160009054906101000a900460ff1615612851576040517f08c379a00000000000000000000000000000000000000000000000000000000081526004016128489061492d565b60405180910390fd5b6000600360009054906101000a900473ffffffffffffffffffffffffffffffffffffffff1673ffffffffffffffffffffffffffffffffffffffff1663a64b6e5f8360000160009054906101000a900473ffffffffffffffffffffffffffffffffffffffff168460010160009054906101000a900473ffffffffffffffffffffffffffffffffffffffff1685600201546040518463ffffffff1660e01b81526004016128fe9392919061494d565b6020604051808303816000875af115801561291d573d6000803e3d6000fd5b505050506040513d601f19601f820116820180604052508101906129419190614999565b905080612983576040517f08c379a000000000000000000000000000000000000000000000000000000000815260040161297a90614a12565b60405180910390fd5b60018260030160006101000a81548160ff0219169083151502179055508160010160009054906101000a900473ffffffffffffffffffffffffffffffffffffffff1673ffffffffffffffffffffffffffffffffffffffff168260000160009054906101000a900473ffffffffffffffffffffffffffffffffffffffff1673ffffffffffffffffffffffffffffffffffffffff167f79228b1a6bc0e0ab214713a868da328ccf24a9a88d9822f4cdd568706c2cfa808460020154604051612a499190614a32565b60405180910390a3505050565b6000803373ffffffffffffffffffffffffffffffffffffffff1673ffffffffffffffffffffffffffffffffffffffff16815260200190815260200160002060040160019054906101000a900460ff1615612ae5576040517f08c379a0000000000000000000000000000000000000000000000000000000008152600401612adc9061477b565b60405180910390fd5b6000808273ffffffffffffffffffffffffffffffffffffffff1673ffffffffffffffffffffffffffffffffffffffff16815260200190815260200160002060040160019054906101000a900460ff168015612b8b57506000808273ffffffffffffffffffffffffffffffffffffffff1673ffffffffffffffffffffffffffffffffffffffff16815260200190815260200160002060080160029054906101000a900460ff165b612bca576040517f08c379a0000000000000000000000000000000000000000000000000000000008152600401612bc190614a99565b60405180910390fd5b60008060008373ffffffffffffffffffffffffffffffffffffffff1673ffffffffffffffffffffffffffffffffffffffff16815260200190815260200160002060080160009054906101000a900461ffff1661ffff1690506000600360009054906101000a900473ffffffffffffffffffffffffffffffffffffffff1673ffffffffffffffffffffffffffffffffffffffff166370a08231336040518263ffffffff1660e01b8152600401612c7f919061410b565b602060405180830381865afa158015612c9c573d6000803e3d6000fd5b505050506040513d601f19601f82011682018060405250810190612cc09190614ace565b905081811015612d05576040517f08c379a0000000000000000000000000000000000000000000000000000000008152600401612cfc90614b47565b60405180910390fd5b60006001805490509050600160405180608001604052803373ffffffffffffffffffffffffffffffffffffffff1681526020018673ffffffffffffffffffffffffffffffffffffffff16815260200185815260200160001515815250908060018154018082558091505060019003906000526020600020906004020160009091909190915060008201518160000160006101000a81548173ffffffffffffffffffffffffffffffffffffffff021916908373ffffffffffffffffffffffffffffffffffffffff16021790555060208201518160010160006101000a81548173ffffffffffffffffffffffffffffffffffffffff021916908373ffffffffffffffffffffffffffffffffffffffff1602179055506040820151816002015560608201518160030160006101000a81548160ff02191690831515021790555050508373ffffffffffffffffffffffffffffffffffffffff163373ffffffffffffffffffffffffffffffffffffffff167f24422c38b7878e9784fb7ee078c6c0c41cb7842de5bd7d0fad5a22e147fe175e8584604051612ea3929190614b67565b60405180910390a350505050565b60028181548110612ec157600080fd5b906000526020600020016000915054906101000a900473ffffffffffffffffffffffffffffffffffffffff1681565b600073ffffffffffffffffffffffffffffffffffffffff166000803373ffffffffffffffffffffffffffffffffffffffff1673ffffffffffffffffffffffffffffffffffffffff16815260200190815260200160002060000160009054906101000a900473ffffffffffffffffffffffffffffffffffffffff1673ffffffffffffffffffffffffffffffffffffffff1614612fc0576040517f08c379a0000000000000000000000000000000000000000000000000000000008152600401612fb790614bdc565b60405180910390fd5b612fc86135c3565b85156132535760405180606001604052808681526020018581526020018481525090506040518061012001604052803373ffffffffffffffffffffffffffffffffffffffff1681526020018a8152602001898152602001888152602001600560ff1681526020016001151581526020018281526020018361ffff168152602001600115158152506000803373ffffffffffffffffffffffffffffffffffffffff1673ffffffffffffffffffffffffffffffffffffffff16815260200190815260200160002060008201518160000160006101000a81548173ffffffffffffffffffffffffffffffffffffffff021916908373ffffffffffffffffffffffffffffffffffffffff16021790555060208201518160010190816130e991906144c9565b5060408201518160020190816130ff91906144c9565b50606082015181600301908161311591906144c9565b5060808201518160040160006101000a81548160ff021916908360ff16021790555060a08201518160040160016101000a81548160ff02191690831515021790555060c082015181600501600082015181600001908161317591906144c9565b50602082015181600101908161318b91906144c9565b5060408201518160020190816131a191906144c9565b50505060e08201518160080160006101000a81548161ffff021916908361ffff1602179055506101008201518160080160026101000a81548160ff0219169083151502179055509050506002339080600181540180825580915050600190039060005260206000200160009091909190916101000a81548173ffffffffffffffffffffffffffffffffffffffff021916908373ffffffffffffffffffffffffffffffffffffffff16021790555061349c565b6040518061012001604052803373ffffffffffffffffffffffffffffffffffffffff1681526020018a8152602001898152602001888152602001600560ff1681526020016000151581526020016040518060600160405280604051806020016040528060008152508152602001604051806020016040528060008152508152602001604051806020016040528060008152508152508152602001600061ffff168152602001600015158152506000803373ffffffffffffffffffffffffffffffffffffffff1673ffffffffffffffffffffffffffffffffffffffff16815260200190815260200160002060008201518160000160006101000a81548173ffffffffffffffffffffffffffffffffffffffff021916908373ffffffffffffffffffffffffffffffffffffffff160217905550602082015181600101908161339991906144c9565b5060408201518160020190816133af91906144c9565b5060608201518160030190816133c591906144c9565b5060808201518160040160006101000a81548160ff021916908360ff16021790555060a08201518160040160016101000a81548160ff02191690831515021790555060c082015181600501600082015181600001908161342591906144c9565b50602082015181600101908161343b91906144c9565b50604082015181600201908161345191906144c9565b50505060e08201518160080160006101000a81548161ffff021916908361ffff1602179055506101008201518160080160026101000a81548160ff0219169083151502179055509050505b505050505050505050565b600360009054906101000a900473ffffffffffffffffffffffffffffffffffffffff1681565b60008160ff168360ff16106134e257816134e4565b825b905092915050565b604051806102800160405280600073ffffffffffffffffffffffffffffffffffffffff168152602001606081526020016060815260200160608152602001600060ff168152602001600015158152602001600073ffffffffffffffffffffffffffffffffffffffff168152602001606081526020016060815260200160608152602001600060ff168152602001600015158152602001606081526020016060815260200160608152602001600061ffff16815260200160001515815260200160008152602001600015158152602001600081525090565b60405180606001604052806060815260200160608152602001606081525090565b6000604051905090565b600080fd5b600080fd5b600073ffffffffffffffffffffffffffffffffffffffff82169050919050565b6000613623826135f8565b9050919050565b61363381613618565b811461363e57600080fd5b50565b6000813590506136508161362a565b92915050565b60006020828403121561366c5761366b6135ee565b5b600061367a84828501613641565b91505092915050565b61368c81613618565b82525050565b600081519050919050565b600082825260208201905092915050565b60005b838110156136cc5780820151818401526020810190506136b1565b60008484015250505050565b6000601f19601f8301169050919050565b60006136f482613692565b6136fe818561369d565b935061370e8185602086016136ae565b613717816136d8565b840191505092915050565b600060ff82169050919050565b61373881613722565b82525050565b60008115159050919050565b6137538161373e565b82525050565b600061ffff82169050919050565b61377081613759565b82525050565b6000819050919050565b61378981613776565b82525050565b6000610280830160008301516137a86000860182613683565b50602083015184820360208601526137c082826136e9565b915050604083015184820360408601526137da82826136e9565b915050606083015184820360608601526137f482826136e9565b9150506080830151613809608086018261372f565b5060a083015161381c60a086018261374a565b5060c083015161382f60c0860182613683565b5060e083015184820360e086015261384782826136e9565b91505061010083015184820361010086015261386382826136e9565b91505061012083015184820361012086015261387f82826136e9565b91505061014083015161389661014086018261372f565b506101608301516138ab61016086018261374a565b506101808301518482036101808601526138c582826136e9565b9150506101a08301518482036101a08601526138e182826136e9565b9150506101c08301518482036101c08601526138fd82826136e9565b9150506101e08301516139146101e0860182613767565b5061020083015161392961020086018261374a565b5061022083015161393e610220860182613780565b5061024083015161395361024086018261374a565b50610260830151613968610260860182613780565b508091505092915050565b6000602082019050818103600083015261398d818461378f565b905092915050565b600080fd5b600080fd5b7f4e487b7100000000000000000000000000000000000000000000000000000000600052604160045260246000fd5b6139d7826136d8565b810181811067ffffffffffffffff821117156139f6576139f561399f565b5b80604052505050565b6000613a096135e4565b9050613a1582826139ce565b919050565b600067ffffffffffffffff821115613a3557613a3461399f565b5b613a3e826136d8565b9050602081019050919050565b82818337600083830152505050565b6000613a6d613a6884613a1a565b6139ff565b905082815260208101848484011115613a8957613a8861399a565b5b613a94848285613a4b565b509392505050565b600082601f830112613ab157613ab0613995565b5b8135613ac1848260208601613a5a565b91505092915050565b613ad38161373e565b8114613ade57600080fd5b50565b600081359050613af081613aca565b92915050565b613aff81613759565b8114613b0a57600080fd5b50565b600081359050613b1c81613af6565b92915050565b600080600080600080600080610100898b031215613b4357613b426135ee565b5b600089013567ffffffffffffffff811115613b6157613b606135f3565b5b613b6d8b828c01613a9c565b985050602089013567ffffffffffffffff811115613b8e57613b8d6135f3565b5b613b9a8b828c01613a9c565b975050604089013567ffffffffffffffff811115613bbb57613bba6135f3565b5b613bc78b828c01613a9c565b9650506060613bd88b828c01613ae1565b955050608089013567ffffffffffffffff811115613bf957613bf86135f3565b5b613c058b828c01613a9c565b94505060a089013567ffffffffffffffff811115613c2657613c256135f3565b5b613c328b828c01613a9c565b93505060c089013567ffffffffffffffff811115613c5357613c526135f3565b5b613c5f8b828c01613a9c565b92505060e0613c708b828c01613b0d565b9150509295985092959890939650565b613c8981613722565b8114613c9457600080fd5b50565b600081359050613ca681613c80565b92915050565b60008060408385031215613cc357613cc26135ee565b5b6000613cd185828601613641565b9250506020613ce285828601613c97565b9150509250929050565b613cf581613776565b8114613d0057600080fd5b50565b600081359050613d1281613cec565b92915050565b600060208284031215613d2e57613d2d6135ee565b5b6000613d3c84828501613d03565b91505092915050565b613d4e81613618565b82525050565b613d5d81613776565b82525050565b613d6c8161373e565b82525050565b6000608082019050613d876000830187613d45565b613d946020830186613d45565b613da16040830185613d54565b613dae6060830184613d63565b95945050505050565b600082825260208201905092915050565b6000613dd382613692565b613ddd8185613db7565b9350613ded8185602086016136ae565b613df6816136d8565b840191505092915050565b613e0a81613722565b82525050565b613e1981613759565b82525050565b6000610140820190508181036000830152613e3a818d613dc8565b90508181036020830152613e4e818c613dc8565b90508181036040830152613e62818b613dc8565b9050613e71606083018a613e01565b613e7e6080830189613d63565b81810360a0830152613e908188613dc8565b905081810360c0830152613ea48187613dc8565b905081810360e0830152613eb88186613dc8565b9050613ec8610100830185613e10565b613ed6610120830184613d63565b9b9a5050505050505050505050565b600081519050919050565b600082825260208201905092915050565b6000819050602082019050919050565b6000613f1d8383613683565b60208301905092915050565b6000602082019050919050565b6000613f4182613ee5565b613f4b8185613ef0565b9350613f5683613f01565b8060005b83811015613f87578151613f6e8882613f11565b9750613f7983613f29565b925050600181019050613f5a565b5085935050505092915050565b60006020820190508181036000830152613fae8184613f36565b905092915050565b6000613fc1826135f8565b9050919050565b613fd181613fb6565b82525050565b60006060830160008301518482036000860152613ff482826136e9565b9150506020830151848203602086015261400e82826136e9565b9150506040830151848203604086015261402882826136e9565b9150508091505092915050565b60006101208201905061404b600083018c613fc8565b818103602083015261405d818b613dc8565b90508181036040830152614071818a613dc8565b905081810360608301526140858189613dc8565b90506140946080830188613e01565b6140a160a0830187613d63565b81810360c08301526140b38186613fd7565b90506140c260e0830185613e10565b6140d0610100830184613d63565b9a9950505050505050505050565b6000602082840312156140f4576140f36135ee565b5b600061410284828501613ae1565b91505092915050565b60006020820190506141206000830184613d45565b92915050565b6000819050919050565b600061414b614146614141846135f8565b614126565b6135f8565b9050919050565b600061415d82614130565b9050919050565b600061416f82614152565b9050919050565b61417f81614164565b82525050565b600060208201905061419a6000830184614176565b92915050565b7f4e487b7100000000000000000000000000000000000000000000000000000000600052601160045260246000fd5b60006141da82613776565b91506141e583613776565b92508282039050818111156141fd576141fc6141a0565b5b92915050565b7f4e487b7100000000000000000000000000000000000000000000000000000000600052603260045260246000fd5b7f4e487b7100000000000000000000000000000000000000000000000000000000600052602260045260246000fd5b6000600282049050600182168061427957607f821691505b60208210810361428c5761428b614232565b5b50919050565b600061429d82613776565b9150600082036142b0576142af6141a0565b5b600182039050919050565b7f4e6f207269646520666f756e6420666f72207468697320616464726573730000600082015250565b60006142f1601e83613db7565b91506142fc826142bb565b602082019050919050565b60006020820190508181036000830152614320816142e4565b9050919050565b60008190508160005260206000209050919050565b60006020601f8301049050919050565b600082821b905092915050565b6000600883026143897fffffffffffffffffffffffffffffffffffffffffffffffffffffffffffffffff8261434c565b614393868361434c565b95508019841693508086168417925050509392505050565b60006143c66143c16143bc84613776565b614126565b613776565b9050919050565b6000819050919050565b6143e0836143ab565b6143f46143ec826143cd565b848454614359565b825550505050565b600090565b6144096143fc565b6144148184846143d7565b505050565b5b818110156144385761442d600082614401565b60018101905061441a565b5050565b601f82111561447d5761444e81614327565b6144578461433c565b81016020851015614466578190505b61447a6144728561433c565b830182614419565b50505b505050565b600082821c905092915050565b60006144a060001984600802614482565b1980831691505092915050565b60006144b9838361448f565b9150826002028217905092915050565b6144d282613692565b67ffffffffffffffff8111156144eb576144ea61399f565b5b6144f58254614261565b61450082828561443c565b600060209050601f8311600181146145335760008415614521578287015190505b61452b85826144ad565b865550614593565b601f19841661454186614327565b60005b8281101561456957848901518255600182019150602085019450602081019050614544565b868310156145865784890151614582601f89168261448f565b8355505b6001600288020188555050505b505050505050565b7f4e6f742061207265676973746572656420647269766572000000000000000000600082015250565b60006145d1601783613db7565b91506145dc8261459b565b602082019050919050565b60006020820190508181036000830152614600816145c4565b9050919050565b7f526174696e67206d757374206265206265747765656e203120616e6420350000600082015250565b600061463d601e83613db7565b915061464882614607565b602082019050919050565b6000602082019050818103600083015261466c81614630565b9050919050565b7f55736572206973206e6f7420612070617373656e676572000000000000000000600082015250565b60006146a9601783613db7565b91506146b482614673565b602082019050919050565b600060208201905081810360008301526146d88161469c565b9050919050565b60006146ea82613722565b91506146f583613722565b9250828201905060ff81111561470e5761470d6141a0565b5b92915050565b60006020820190506147296000830184613e01565b92915050565b7f4e6f74206120726567697374657265642070617373656e676572000000000000600082015250565b6000614765601a83613db7565b91506147708261472f565b602082019050919050565b6000602082019050818103600083015261479481614758565b9050919050565b7f55736572206973206e6f74206120647269766572000000000000000000000000600082015250565b60006147d1601483613db7565b91506147dc8261479b565b602082019050919050565b60006020820190508181036000830152614800816147c4565b9050919050565b600061481282613776565b91507fffffffffffffffffffffffffffffffffffffffffffffffffffffffffffffffff8203614844576148436141a0565b5b600182019050919050565b7f4f6e6c7920746865206472697665722063616e20636f6d706c6574652074686960008201527f7320726964650000000000000000000000000000000000000000000000000000602082015250565b60006148ab602683613db7565b91506148b68261484f565b604082019050919050565b600060208201905081810360008301526148da8161489e565b9050919050565b7f5269646520616c726561647920636f6d706c6574656400000000000000000000600082015250565b6000614917601683613db7565b9150614922826148e1565b602082019050919050565b600060208201905081810360008301526149468161490a565b9050919050565b60006060820190506149626000830186613d45565b61496f6020830185613d45565b61497c6040830184613d54565b949350505050565b60008151905061499381613aca565b92915050565b6000602082840312156149af576149ae6135ee565b5b60006149bd84828501614984565b91505092915050565b7f546f6b656e207472616e73666572206661696c65640000000000000000000000600082015250565b60006149fc601583613db7565b9150614a07826149c6565b602082019050919050565b60006020820190508181036000830152614a2b816149ef565b9050919050565b6000602082019050614a476000830184613d54565b92915050565b7f447269766572206e6f7420617661696c61626c65000000000000000000000000600082015250565b6000614a83601483613db7565b9150614a8e82614a4d565b602082019050919050565b60006020820190508181036000830152614ab281614a76565b9050919050565b600081519050614ac881613cec565b92915050565b600060208284031215614ae457614ae36135ee565b5b6000614af284828501614ab9565b91505092915050565b7f496e73756666696369656e742062616c616e6365000000000000000000000000600082015250565b6000614b31601483613db7565b9150614b3c82614afb565b602082019050919050565b60006020820190508181036000830152614b6081614b24565b9050919050565b6000604082019050614b7c6000830185613d54565b614b896020830184613d54565b9392505050565b7f5573657220616c72656164792072656769737465726564000000000000000000600082015250565b6000614bc6601783613db7565b9150614bd182614b90565b602082019050919050565b60006020820190508181036000830152614bf581614bb9565b905091905056fea2646970667358221220c18b2d7b7f17d873bbae069d1fe1fb43140a334acf6d034f00876fd576020d2464736f6c63430008140033",
  "linkReferences": {},
  "deployedLinkReferences": {}
}