{
  "_format": "hh-sol-artifact-1",
  "contractName": "RideToken",
  "sourceName": "contracts/RideToken.sol",
  "abi": [
    {
      "inputs": [
        {
          "internalType": "uint256",
          "name": "initialSupply",
          "type": "uint256"
        }
      ],
      "stateMutability": "nonpayable",
      "type": "constructor"
    },
    {
      "inputs": [
        {
          "internalType": "address",
          "name": "spender",
          "type": "address"
        },
        {
          "internalType": "uint256",
          "name": "allowance",
          "type": "uint256"
        },
        {
          "internalType": "uint256",
          "name": "needed",
          "type": "uint256"
        }
      ],
      "name": "ERC20InsufficientAllowance",
      "type": "error"
    },
    {
      "inputs": [
        {
          "internalType": "address",
          "name": "sender",
          "type": "address"
        },
        {
          "internalType": "uint256",
          "name": "balance",
          "type": "uint256"
        },
        {
          "internalType": "uint256",
          "name": "needed",
          "type": "uint256"
        }
      ],
      "name": "ERC20InsufficientBalance",
      "type": "error"
    },
    {
      "inputs": [
        {
          "internalType": "address",
          "name": "approver",
          "type": "address"
        }
      ],
      "name": "ERC20InvalidApprover",
      "type": "error"
    },
    {
      "inputs": [
        {
          "internalType": "address",
          "name": "receiver",
          "type": "address"
        }
      ],
      "name": "ERC20InvalidReceiver",
      "type": "error"
    },
    {
      "inputs": [
        {
          "internalType": "address",
          "name": "sender",
          "type": "address"
        }
      ],
      "name": "ERC20InvalidSender",
      "type": "error"
    },
    {
      "inputs": [
        {
          "internalType": "address",
          "name": "spender",
          "type": "address"
        }
      ],
      "name": "ERC20InvalidSpender",
      "type": "error"
    },
    {
      "anonymous": false,
      "inputs": [
        {
          "indexed": true,
          "internalType": "address",
          "name": "owner",
          "type": "address"
        },
        {
          "indexed": true,
          "internalType": "address",
          "name": "spender",
          "type": "address"
        },
        {
          "indexed": false,
          "internalType": "uint256",
          "name": "value",
          "type": "uint256"
        }
      ],
      "name": "Approval",
      "type": "event"
    },
    {
      "anonymous": false,
      "inputs": [
        {
          "indexed": true,
          "internalType": "address",
          "name": "from",
          "type": "address"
        },
        {
          "indexed": true,
          "internalType": "address",
          "name": "to",
          "type": "address"
        },
        {
          "indexed": false,
          "internalType": "uint256",
          "name": "value",
          "type": "uint256"
        }
      ],
      "name": "Transfer",
      "type": "event"
    },
    {
      "inputs": [
        {
          "internalType": "address",
          "name": "owner",
          "type": "address"
        },
        {
          "internalType": "address",
          "name": "spender",
          "type": "address"
        }
      ],
      "name": "allowance",
      "outputs": [
        {
          "internalType": "uint256",
          "name": "",
          "type": "uint256"
        }
      ],
      "stateMutability": "view",
      "type": "function"
    },
    {
      "inputs": [
        {
          "internalType": "address",
          "name": "spender",
          "type": "address"
        },
        {
          "internalType": "uint256",
          "name": "value",
          "type": "uint256"
        }
      ],
      "name": "approve",
      "outputs": [
        {
          "internalType": "bool",
          "name": "",
          "type": "bool"
        }
      ],
      "stateMutability": "nonpayable",
      "type": "function"
    },
    {
      "inputs": [
        {
          "internalType": "address",
          "name": "account",
          "type": "address"
        }
      ],
      "name": "balanceOf",
      "outputs": [
        {
          "internalType": "uint256",
          "name": "",
          "type": "uint256"
        }
      ],
      "stateMutability": "view",
      "type": "function"
    },
    {
      "inputs": [],
      "name": "buyTokens",
      "outputs": [],
      "stateMutability": "payable",
      "type": "function"
    },
    {
      "inputs": [],
      "name": "decimals",
      "outputs": [
        {
          "internalType": "uint8",
          "name": "",
          "type": "uint8"
        }
      ],
      "stateMutability": "view",
      "type": "function"
    },
    {
      "inputs": [],
      "name": "getContractBalance",
      "outputs": [
        {
          "internalType": "uint256",
          "name": "",
          "type": "uint256"
        }
      ],
      "stateMutability": "view",
      "type": "function"
    },
    {
      "inputs": [
        {
          "internalType": "address",
          "name": "account",
          "type": "address"
        }
      ],
      "name": "getTokenBalance",
      "outputs": [
        {
          "internalType": "uint256",
          "name": "",
          "type": "uint256"
        }
      ],
      "stateMutability": "view",
      "type": "function"
    },
    {
      "inputs": [],
      "name": "name",
      "outputs": [
        {
          "internalType": "string",
          "name": "",
          "type": "string"
        }
      ],
      "stateMutability": "view",
      "type": "function"
    },
    {
      "inputs": [],
      "name": "rate",
      "outputs": [
        {
          "internalType": "uint256",
          "name": "",
          "type": "uint256"
        }
      ],
      "stateMutability": "view",
      "type": "function"
    },
    {
      "inputs": [],
      "name": "symbol",
      "outputs": [
        {
          "internalType": "string",
          "name": "",
          "type": "string"
        }
      ],
      "stateMutability": "view",
      "type": "function"
    },
    {
      "inputs": [],
      "name": "totalSupply",
      "outputs": [
        {
          "internalType": "uint256",
          "name": "",
          "type": "uint256"
        }
      ],
      "stateMutability": "view",
      "type": "function"
    },
    {
      "inputs": [
        {
          "internalType": "address",
          "name": "to",
          "type": "address"
        },
        {
          "internalType": "uint256",
          "name": "value",
          "type": "uint256"
        }
      ],
      "name": "transfer",
      "outputs": [
        {
          "internalType": "bool",
          "name": "",
          "type": "bool"
        }
      ],
      "stateMutability": "nonpayable",
      "type": "function"
    },
    {
      "inputs": [
        {
          "internalType": "address",
          "name": "from",
          "type": "address"
        },
        {
          "internalType": "address",
          "name": "to",
          "type": "address"
        },
        {
          "internalType": "uint256",
          "name": "value",
          "type": "uint256"
        }
      ],
      "name": "transferFrom",
      "outputs": [
        {
          "internalType": "bool",
          "name": "",
          "type": "bool"
        }
      ],
      "stateMutability": "nonpayable",
      "type": "function"
    },
    {
      "inputs": [
        {
          "internalType": "address",
          "name": "from",
          "type": "address"
        },
        {
          "internalType": "address",
          "name": "to",
          "type": "address"
        },
        {
          "internalType": "uint256",
          "name": "amount",
          "type": "uint256"
        }
      ],
      "name": "transferTokens",
      "outputs": [
        {
          "internalType": "bool",
          "name": "",
          "type": "bool"
        }
      ],
      "stateMutability": "nonpayable",
      "type": "function"
    }
  ],
  "bytecode": "0x608060405260646005553480156200001657600080fd5b5060405162001b4938038062001b4983398181016040528101906200003c9190620003e4565b6040518060400160405280600981526020017f52696465546f6b656e00000000000000000000000000000000000000000000008152506040518060400160405280600481526020017f52494445000000000000000000000000000000000000000000000000000000008152508160039081620000b9919062000686565b508060049081620000cb919062000686565b505050620000e03382620000e760201b60201c565b50620008a4565b600073ffffffffffffffffffffffffffffffffffffffff168273ffffffffffffffffffffffffffffffffffffffff16036200015c5760006040517fec442f05000000000000000000000000000000000000000000000000000000008152600401620001539190620007b2565b60405180910390fd5b62000170600083836200017460201b60201c565b5050565b600073ffffffffffffffffffffffffffffffffffffffff168373ffffffffffffffffffffffffffffffffffffffff1603620001ca578060026000828254620001bd9190620007fe565b92505081905550620002a0565b60008060008573ffffffffffffffffffffffffffffffffffffffff1673ffffffffffffffffffffffffffffffffffffffff1681526020019081526020016000205490508181101562000259578381836040517fe450d38c00000000000000000000000000000000000000000000000000000000815260040162000250939291906200084a565b60405180910390fd5b8181036000808673ffffffffffffffffffffffffffffffffffffffff1673ffffffffffffffffffffffffffffffffffffffff16815260200190815260200160002081905550505b600073ffffffffffffffffffffffffffffffffffffffff168273ffffffffffffffffffffffffffffffffffffffff1603620002eb578060026000828254039250508190555062000338565b806000808473ffffffffffffffffffffffffffffffffffffffff1673ffffffffffffffffffffffffffffffffffffffff168152602001908152602001600020600082825401925050819055505b8173ffffffffffffffffffffffffffffffffffffffff168373ffffffffffffffffffffffffffffffffffffffff167fddf252ad1be2c89b69c2b068fc378daa952ba7f163c4a11628f55a4df523b3ef8360405162000397919062000887565b60405180910390a3505050565b600080fd5b6000819050919050565b620003be81620003a9565b8114620003ca57600080fd5b50565b600081519050620003de81620003b3565b92915050565b600060208284031215620003fd57620003fc620003a4565b5b60006200040d84828501620003cd565b91505092915050565b600081519050919050565b7f4e487b7100000000000000000000000000000000000000000000000000000000600052604160045260246000fd5b7f4e487b7100000000000000000000000000000000000000000000000000000000600052602260045260246000fd5b600060028204905060018216806200049857607f821691505b602082108103620004ae57620004ad62000450565b5b50919050565b60008190508160005260206000209050919050565b60006020601f8301049050919050565b600082821b905092915050565b600060088302620005187fffffffffffffffffffffffffffffffffffffffffffffffffffffffffffffffff82620004d9565b620005248683620004d9565b95508019841693508086168417925050509392505050565b6000819050919050565b600062000567620005616200055b84620003a9565b6200053c565b620003a9565b9050919050565b6000819050919050565b620005838362000546565b6200059b62000592826200056e565b848454620004e6565b825550505050565b600090565b620005b2620005a3565b620005bf81848462000578565b505050565b5b81811015620005e757620005db600082620005a8565b600181019050620005c5565b5050565b601f82111562000636576200060081620004b4565b6200060b84620004c9565b810160208510156200061b578190505b620006336200062a85620004c9565b830182620005c4565b50505b505050565b600082821c905092915050565b60006200065b600019846008026200063b565b1980831691505092915050565b600062000676838362000648565b9150826002028217905092915050565b620006918262000416565b67ffffffffffffffff811115620006ad57620006ac62000421565b5b620006b982546200047f565b620006c6828285620005eb565b600060209050601f831160018114620006fe5760008415620006e9578287015190505b620006f5858262000668565b86555062000765565b601f1984166200070e86620004b4565b60005b82811015620007385784890151825560018201915060208501945060208101905062000711565b8683101562000758578489015162000754601f89168262000648565b8355505b6001600288020188555050505b505050505050565b600073ffffffffffffffffffffffffffffffffffffffff82169050919050565b60006200079a826200076d565b9050919050565b620007ac816200078d565b82525050565b6000602082019050620007c96000830184620007a1565b92915050565b7f4e487b7100000000000000000000000000000000000000000000000000000000600052601160045260246000fd5b60006200080b82620003a9565b91506200081883620003a9565b9250828201905080821115620008335762000832620007cf565b5b92915050565b6200084481620003a9565b82525050565b6000606082019050620008616000830186620007a1565b62000870602083018562000839565b6200087f604083018462000839565b949350505050565b60006020820190506200089e600083018462000839565b92915050565b61129580620008b46000396000f3fe6080604052600436106100dd5760003560e01c80636f9fb98a1161007f578063a64b6e5f11610059578063a64b6e5f146102d8578063a9059cbb14610315578063d0febe4c14610352578063dd62ed3e1461035c576100dd565b80636f9fb98a1461024557806370a082311461027057806395d89b41146102ad576100dd565b806323b872dd116100bb57806323b872dd146101755780632c4e722e146101b2578063313ce567146101dd5780633aecd0e314610208576100dd565b806306fdde03146100e2578063095ea7b31461010d57806318160ddd1461014a575b600080fd5b3480156100ee57600080fd5b506100f7610399565b6040516101049190610da9565b60405180910390f35b34801561011957600080fd5b50610134600480360381019061012f9190610e64565b61042b565b6040516101419190610ebf565b60405180910390f35b34801561015657600080fd5b5061015f61044e565b60405161016c9190610ee9565b60405180910390f35b34801561018157600080fd5b5061019c60048036038101906101979190610f04565b610458565b6040516101a99190610ebf565b60405180910390f35b3480156101be57600080fd5b506101c7610487565b6040516101d49190610ee9565b60405180910390f35b3480156101e957600080fd5b506101f261048d565b6040516101ff9190610f73565b60405180910390f35b34801561021457600080fd5b5061022f600480360381019061022a9190610f8e565b610496565b60405161023c9190610ee9565b60405180910390f35b34801561025157600080fd5b5061025a6104a8565b6040516102679190610ee9565b60405180910390f35b34801561027c57600080fd5b5061029760048036038101906102929190610f8e565b6104b0565b6040516102a49190610ee9565b60405180910390f35b3480156102b957600080fd5b506102c26104f8565b6040516102cf9190610da9565b60405180910390f35b3480156102e457600080fd5b506102ff60048036038101906102fa9190610f04565b61058a565b60405161030c9190610ebf565b60405180910390f35b34801561032157600080fd5b5061033c60048036038101906103379190610e64565b6105ed565b6040516103499190610ebf565b60405180910390f35b61035a610610565b005b34801561036857600080fd5b50610383600480360381019061037e9190610fbb565b610672565b6040516103909190610ee9565b60405180910390f35b6060600380546103a89061102a565b80601f01602080910402602001604051908101604052809291908181526020018280546103d49061102a565b80156104215780601f106103f657610100808354040283529160200191610421565b820191906000526020600020905b81548152906001019060200180831161040457829003601f168201915b5050505050905090565b6000806104366106f9565b9050610443818585610701565b600191505092915050565b6000600254905090565b6000806104636106f9565b9050610470858285610713565b61047b8585856107a7565b60019150509392505050565b60055481565b60006012905090565b60006104a1826104b0565b9050919050565b600047905090565b60008060008373ffffffffffffffffffffffffffffffffffffffff1673ffffffffffffffffffffffffffffffffffffffff168152602001908152602001600020549050919050565b6060600480546105079061102a565b80601f01602080910402602001604051908101604052809291908181526020018280546105339061102a565b80156105805780601f1061055557610100808354040283529160200191610580565b820191906000526020600020905b81548152906001019060200180831161056357829003601f168201915b5050505050905090565b600081610596856104b0565b10156105d7576040517f08c379a00000000000000000000000000000000000000000000000000000000081526004016105ce906110cd565b60405180910390fd5b6105e28484846107a7565b600190509392505050565b6000806105f86106f9565b90506106058185856107a7565b600191505092915050565b60003411610653576040517f08c379a000000000000000000000000000000000000000000000000000000000815260040161064a90611139565b60405180910390fd5b6000600554346106639190611188565b905061066f338261089b565b50565b6000600160008473ffffffffffffffffffffffffffffffffffffffff1673ffffffffffffffffffffffffffffffffffffffff16815260200190815260200160002060008373ffffffffffffffffffffffffffffffffffffffff1673ffffffffffffffffffffffffffffffffffffffff16815260200190815260200160002054905092915050565b600033905090565b61070e838383600161091d565b505050565b600061071f8484610672565b90507fffffffffffffffffffffffffffffffffffffffffffffffffffffffffffffffff81146107a15781811015610791578281836040517ffb8f41b2000000000000000000000000000000000000000000000000000000008152600401610788939291906111d9565b60405180910390fd5b6107a08484848403600061091d565b5b50505050565b600073ffffffffffffffffffffffffffffffffffffffff168373ffffffffffffffffffffffffffffffffffffffff16036108195760006040517f96c6fd1e0000000000000000000000000000000000000000000000000000000081526004016108109190611210565b60405180910390fd5b600073ffffffffffffffffffffffffffffffffffffffff168273ffffffffffffffffffffffffffffffffffffffff160361088b5760006040517fec442f050000000000000000000000000000000000000000000000000000000081526004016108829190611210565b60405180910390fd5b610896838383610af4565b505050565b600073ffffffffffffffffffffffffffffffffffffffff168273ffffffffffffffffffffffffffffffffffffffff160361090d5760006040517fec442f050000000000000000000000000000000000000000000000000000000081526004016109049190611210565b60405180910390fd5b61091960008383610af4565b5050565b600073ffffffffffffffffffffffffffffffffffffffff168473ffffffffffffffffffffffffffffffffffffffff160361098f5760006040517fe602df050000000000000000000000000000000000000000000000000000000081526004016109869190611210565b60405180910390fd5b600073ffffffffffffffffffffffffffffffffffffffff168373ffffffffffffffffffffffffffffffffffffffff1603610a015760006040517f94280d620000000000000000000000000000000000000000000000000000000081526004016109f89190611210565b60405180910390fd5b81600160008673ffffffffffffffffffffffffffffffffffffffff1673ffffffffffffffffffffffffffffffffffffffff16815260200190815260200160002060008573ffffffffffffffffffffffffffffffffffffffff1673ffffffffffffffffffffffffffffffffffffffff168152602001908152602001600020819055508015610aee578273ffffffffffffffffffffffffffffffffffffffff168473ffffffffffffffffffffffffffffffffffffffff167f8c5be1e5ebec7d5bd14f71427d1e84f3dd0314c0f7b2291e5b200ac8c7c3b92584604051610ae59190610ee9565b60405180910390a35b50505050565b600073ffffffffffffffffffffffffffffffffffffffff168373ffffffffffffffffffffffffffffffffffffffff1603610b46578060026000828254610b3a919061122b565b92505081905550610c19565b60008060008573ffffffffffffffffffffffffffffffffffffffff1673ffffffffffffffffffffffffffffffffffffffff16815260200190815260200160002054905081811015610bd2578381836040517fe450d38c000000000000000000000000000000000000000000000000000000008152600401610bc9939291906111d9565b60405180910390fd5b8181036000808673ffffffffffffffffffffffffffffffffffffffff1673ffffffffffffffffffffffffffffffffffffffff16815260200190815260200160002081905550505b600073ffffffffffffffffffffffffffffffffffffffff168273ffffffffffffffffffffffffffffffffffffffff1603610c625780600260008282540392505081905550610caf565b806000808473ffffffffffffffffffffffffffffffffffffffff1673ffffffffffffffffffffffffffffffffffffffff168152602001908152602001600020600082825401925050819055505b8173ffffffffffffffffffffffffffffffffffffffff168373ffffffffffffffffffffffffffffffffffffffff167fddf252ad1be2c89b69c2b068fc378daa952ba7f163c4a11628f55a4df523b3ef83604051610d0c9190610ee9565b60405180910390a3505050565b600081519050919050565b600082825260208201905092915050565b60005b83811015610d53578082015181840152602081019050610d38565b60008484015250505050565b6000601f19601f8301169050919050565b6000610d7b82610d19565b610d858185610d24565b9350610d95818560208601610d35565b610d9e81610d5f565b840191505092915050565b60006020820190508181036000830152610dc38184610d70565b905092915050565b600080fd5b600073ffffffffffffffffffffffffffffffffffffffff82169050919050565b6000610dfb82610dd0565b9050919050565b610e0b81610df0565b8114610e1657600080fd5b50565b600081359050610e2881610e02565b92915050565b6000819050919050565b610e4181610e2e565b8114610e4c57600080fd5b50565b600081359050610e5e81610e38565b92915050565b60008060408385031215610e7b57610e7a610dcb565b5b6000610e8985828601610e19565b9250506020610e9a85828601610e4f565b9150509250929050565b60008115159050919050565b610eb981610ea4565b82525050565b6000602082019050610ed46000830184610eb0565b92915050565b610ee381610e2e565b82525050565b6000602082019050610efe6000830184610eda565b92915050565b600080600060608486031215610f1d57610f1c610dcb565b5b6000610f2b86828701610e19565b9350506020610f3c86828701610e19565b9250506040610f4d86828701610e4f565b9150509250925092565b600060ff82169050919050565b610f6d81610f57565b82525050565b6000602082019050610f886000830184610f64565b92915050565b600060208284031215610fa457610fa3610dcb565b5b6000610fb284828501610e19565b91505092915050565b60008060408385031215610fd257610fd1610dcb565b5b6000610fe085828601610e19565b9250506020610ff185828601610e19565b9150509250929050565b7f4e487b7100000000000000000000000000000000000000000000000000000000600052602260045260246000fd5b6000600282049050600182168061104257607f821691505b60208210810361105557611054610ffb565b5b50919050565b7f496e73756666696369656e742062616c616e636520746f207472616e7366657260008201527f20746f6b656e7300000000000000000000000000000000000000000000000000602082015250565b60006110b7602783610d24565b91506110c28261105b565b604082019050919050565b600060208201905081810360008301526110e6816110aa565b9050919050565b7f4d7573742073656e642045544820746f2062757920746f6b656e730000000000600082015250565b6000611123601b83610d24565b915061112e826110ed565b602082019050919050565b6000602082019050818103600083015261115281611116565b9050919050565b7f4e487b7100000000000000000000000000000000000000000000000000000000600052601160045260246000fd5b600061119382610e2e565b915061119e83610e2e565b92508282026111ac81610e2e565b915082820484148315176111c3576111c2611159565b5b5092915050565b6111d381610df0565b82525050565b60006060820190506111ee60008301866111ca565b6111fb6020830185610eda565b6112086040830184610eda565b949350505050565b600060208201905061122560008301846111ca565b92915050565b600061123682610e2e565b915061124183610e2e565b925082820190508082111561125957611258611159565b5b9291505056fea2646970667358221220e548cd7de4b220dfbf0c91bfe6a6661a6643ab3b71e1b40ae8eebf78c659937164736f6c63430008140033",
  "linkReferences": {},
  "deployedLinkReferences": {}
}