{
  "_format": "hh-sol-artifact-1",
  "contractName": "RideToken",
  "sourceName": "contracts/RideToken.sol",
  "abi": [
    {
      "inputs": [
        {
          "internalType": "uint256",
          "name": "initialSupply",
          "type": "uint256"
        }
      ],
      "stateMutability": "nonpayable",
      "type": "constructor"
    },
    {
      "inputs": [
        {
          "internalType": "address",
          "name": "spender",
          "type": "address"
        },
        {
          "internalType": "uint256",
          "name": "allowance",
          "type": "uint256"
        },
        {
          "internalType": "uint256",
          "name": "needed",
          "type": "uint256"
        }
      ],
      "name": "ERC20InsufficientAllowance",
      "type": "error"
    },
    {
      "inputs": [
        {
          "internalType": "address",
          "name": "sender",
          "type": "address"
        },
        {
          "internalType": "uint256",
          "name": "balance",
          "type": "uint256"
        },
        {
          "internalType": "uint256",
          "name": "needed",
          "type": "uint256"
        }
      ],
      "name": "ERC20InsufficientBalance",
      "type": "error"
    },
    {
      "inputs": [
        {
          "internalType": "address",
          "name": "approver",
          "type": "address"
        }
      ],
      "name": "ERC20InvalidApprover",
      "type": "error"
    },
    {
      "inputs": [
        {
          "internalType": "address",
          "name": "receiver",
          "type": "address"
        }
      ],
      "name": "ERC20InvalidReceiver",
      "type": "error"
    },
    {
      "inputs": [
        {
          "internalType": "address",
          "name": "sender",
          "type": "address"
        }
      ],
      "name": "ERC20InvalidSender",
      "type": "error"
    },
    {
      "inputs": [
        {
          "internalType": "address",
          "name": "spender",
          "type": "address"
        }
      ],
      "name": "ERC20InvalidSpender",
      "type": "error"
    },
    {
      "anonymous": false,
      "inputs": [
        {
          "indexed": true,
          "internalType": "address",
          "name": "owner",
          "type": "address"
        },
        {
          "indexed": true,
          "internalType": "address",
          "name": "spender",
          "type": "address"
        },
        {
          "indexed": false,
          "internalType": "uint256",
          "name": "value",
          "type": "uint256"
        }
      ],
      "name": "Approval",
      "type": "event"
    },
    {
      "anonymous": false,
      "inputs": [
        {
          "indexed": true,
          "internalType": "address",
          "name": "from",
          "type": "address"
        },
        {
          "indexed": true,
          "internalType": "address",
          "name": "to",
          "type": "address"
        },
        {
          "indexed": false,
          "internalType": "uint256",
          "name": "value",
          "type": "uint256"
        }
      ],
      "name": "Transfer",
      "type": "event"
    },
    {
      "inputs": [
        {
          "internalType": "address",
          "name": "owner",
          "type": "address"
        },
        {
          "internalType": "address",
          "name": "spender",
          "type": "address"
        }
      ],
      "name": "allowance",
      "outputs": [
        {
          "internalType": "uint256",
          "name": "",
          "type": "uint256"
        }
      ],
      "stateMutability": "view",
      "type": "function"
    },
    {
      "inputs": [
        {
          "internalType": "address",
          "name": "spender",
          "type": "address"
        },
        {
          "internalType": "uint256",
          "name": "value",
          "type": "uint256"
        }
      ],
      "name": "approve",
      "outputs": [
        {
          "internalType": "bool",
          "name": "",
          "type": "bool"
        }
      ],
      "stateMutability": "nonpayable",
      "type": "function"
    },
    {
      "inputs": [
        {
          "internalType": "address",
          "name": "account",
          "type": "address"
        }
      ],
      "name": "balanceOf",
      "outputs": [
        {
          "internalType": "uint256",
          "name": "",
          "type": "uint256"
        }
      ],
      "stateMutability": "view",
      "type": "function"
    },
    {
      "inputs": [],
      "name": "buyTokens",
      "outputs": [],
      "stateMutability": "payable",
      "type": "function"
    },
    {
      "inputs": [],
      "name": "decimals",
      "outputs": [
        {
          "internalType": "uint8",
          "name": "",
          "type": "uint8"
        }
      ],
      "stateMutability": "view",
      "type": "function"
    },
    {
      "inputs": [],
      "name": "getContractBalance",
      "outputs": [
        {
          "internalType": "uint256",
          "name": "",
          "type": "uint256"
        }
      ],
      "stateMutability": "view",
      "type": "function"
    },
    {
      "inputs": [],
      "name": "name",
      "outputs": [
        {
          "internalType": "string",
          "name": "",
          "type": "string"
        }
      ],
      "stateMutability": "view",
      "type": "function"
    },
    {
      "inputs": [],
      "name": "rate",
      "outputs": [
        {
          "internalType": "uint256",
          "name": "",
          "type": "uint256"
        }
      ],
      "stateMutability": "view",
      "type": "function"
    },
    {
      "inputs": [],
      "name": "symbol",
      "outputs": [
        {
          "internalType": "string",
          "name": "",
          "type": "string"
        }
      ],
      "stateMutability": "view",
      "type": "function"
    },
    {
      "inputs": [],
      "name": "totalSupply",
      "outputs": [
        {
          "internalType": "uint256",
          "name": "",
          "type": "uint256"
        }
      ],
      "stateMutability": "view",
      "type": "function"
    },
    {
      "inputs": [
        {
          "internalType": "address",
          "name": "to",
          "type": "address"
        },
        {
          "internalType": "uint256",
          "name": "value",
          "type": "uint256"
        }
      ],
      "name": "transfer",
      "outputs": [
        {
          "internalType": "bool",
          "name": "",
          "type": "bool"
        }
      ],
      "stateMutability": "nonpayable",
      "type": "function"
    },
    {
      "inputs": [
        {
          "internalType": "address",
          "name": "from",
          "type": "address"
        },
        {
          "internalType": "address",
          "name": "to",
          "type": "address"
        },
        {
          "internalType": "uint256",
          "name": "value",
          "type": "uint256"
        }
      ],
      "name": "transferFrom",
      "outputs": [
        {
          "internalType": "bool",
          "name": "",
          "type": "bool"
        }
      ],
      "stateMutability": "nonpayable",
      "type": "function"
    }
  ],
  "bytecode": "0x608060405260646005553480156200001657600080fd5b50604051620019923803806200199283398181016040528101906200003c9190620003e4565b6040518060400160405280600981526020017f52696465546f6b656e00000000000000000000000000000000000000000000008152506040518060400160405280600481526020017f52494445000000000000000000000000000000000000000000000000000000008152508160039081620000b9919062000686565b508060049081620000cb919062000686565b505050620000e03382620000e760201b60201c565b50620008a4565b600073ffffffffffffffffffffffffffffffffffffffff168273ffffffffffffffffffffffffffffffffffffffff16036200015c5760006040517fec442f05000000000000000000000000000000000000000000000000000000008152600401620001539190620007b2565b60405180910390fd5b62000170600083836200017460201b60201c565b5050565b600073ffffffffffffffffffffffffffffffffffffffff168373ffffffffffffffffffffffffffffffffffffffff1603620001ca578060026000828254620001bd9190620007fe565b92505081905550620002a0565b60008060008573ffffffffffffffffffffffffffffffffffffffff1673ffffffffffffffffffffffffffffffffffffffff1681526020019081526020016000205490508181101562000259578381836040517fe450d38c00000000000000000000000000000000000000000000000000000000815260040162000250939291906200084a565b60405180910390fd5b8181036000808673ffffffffffffffffffffffffffffffffffffffff1673ffffffffffffffffffffffffffffffffffffffff16815260200190815260200160002081905550505b600073ffffffffffffffffffffffffffffffffffffffff168273ffffffffffffffffffffffffffffffffffffffff1603620002eb578060026000828254039250508190555062000338565b806000808473ffffffffffffffffffffffffffffffffffffffff1673ffffffffffffffffffffffffffffffffffffffff168152602001908152602001600020600082825401925050819055505b8173ffffffffffffffffffffffffffffffffffffffff168373ffffffffffffffffffffffffffffffffffffffff167fddf252ad1be2c89b69c2b068fc378daa952ba7f163c4a11628f55a4df523b3ef8360405162000397919062000887565b60405180910390a3505050565b600080fd5b6000819050919050565b620003be81620003a9565b8114620003ca57600080fd5b50565b600081519050620003de81620003b3565b92915050565b600060208284031215620003fd57620003fc620003a4565b5b60006200040d84828501620003cd565b91505092915050565b600081519050919050565b7f4e487b7100000000000000000000000000000000000000000000000000000000600052604160045260246000fd5b7f4e487b7100000000000000000000000000000000000000000000000000000000600052602260045260246000fd5b600060028204905060018216806200049857607f821691505b602082108103620004ae57620004ad62000450565b5b50919050565b60008190508160005260206000209050919050565b60006020601f8301049050919050565b600082821b905092915050565b600060088302620005187fffffffffffffffffffffffffffffffffffffffffffffffffffffffffffffffff82620004d9565b620005248683620004d9565b95508019841693508086168417925050509392505050565b6000819050919050565b600062000567620005616200055b84620003a9565b6200053c565b620003a9565b9050919050565b6000819050919050565b620005838362000546565b6200059b62000592826200056e565b848454620004e6565b825550505050565b600090565b620005b2620005a3565b620005bf81848462000578565b505050565b5b81811015620005e757620005db600082620005a8565b600181019050620005c5565b5050565b601f82111562000636576200060081620004b4565b6200060b84620004c9565b810160208510156200061b578190505b620006336200062a85620004c9565b830182620005c4565b50505b505050565b600082821c905092915050565b60006200065b600019846008026200063b565b1980831691505092915050565b600062000676838362000648565b9150826002028217905092915050565b620006918262000416565b67ffffffffffffffff811115620006ad57620006ac62000421565b5b620006b982546200047f565b620006c6828285620005eb565b600060209050601f831160018114620006fe5760008415620006e9578287015190505b620006f5858262000668565b86555062000765565b601f1984166200070e86620004b4565b60005b82811015620007385784890151825560018201915060208501945060208101905062000711565b8683101562000758578489015162000754601f89168262000648565b8355505b6001600288020188555050505b505050505050565b600073ffffffffffffffffffffffffffffffffffffffff82169050919050565b60006200079a826200076d565b9050919050565b620007ac816200078d565b82525050565b6000602082019050620007c96000830184620007a1565b92915050565b7f4e487b7100000000000000000000000000000000000000000000000000000000600052601160045260246000fd5b60006200080b82620003a9565b91506200081883620003a9565b9250828201905080821115620008335762000832620007cf565b5b92915050565b6200084481620003a9565b82525050565b6000606082019050620008616000830186620007a1565b62000870602083018562000839565b6200087f604083018462000839565b949350505050565b60006020820190506200089e600083018462000839565b92915050565b6110de80620008b46000396000f3fe6080604052600436106100a75760003560e01c80636f9fb98a116100645780636f9fb98a146101d257806370a08231146101fd57806395d89b411461023a578063a9059cbb14610265578063d0febe4c146102a2578063dd62ed3e146102ac576100a7565b806306fdde03146100ac578063095ea7b3146100d757806318160ddd1461011457806323b872dd1461013f5780632c4e722e1461017c578063313ce567146101a7575b600080fd5b3480156100b857600080fd5b506100c16102e9565b6040516100ce9190610c84565b60405180910390f35b3480156100e357600080fd5b506100fe60048036038101906100f99190610d3f565b61037b565b60405161010b9190610d9a565b60405180910390f35b34801561012057600080fd5b5061012961039e565b6040516101369190610dc4565b60405180910390f35b34801561014b57600080fd5b5061016660048036038101906101619190610ddf565b6103a8565b6040516101739190610d9a565b60405180910390f35b34801561018857600080fd5b506101916103d7565b60405161019e9190610dc4565b60405180910390f35b3480156101b357600080fd5b506101bc6103dd565b6040516101c99190610e4e565b60405180910390f35b3480156101de57600080fd5b506101e76103e6565b6040516101f49190610dc4565b60405180910390f35b34801561020957600080fd5b50610224600480360381019061021f9190610e69565b6103ee565b6040516102319190610dc4565b60405180910390f35b34801561024657600080fd5b5061024f610436565b60405161025c9190610c84565b60405180910390f35b34801561027157600080fd5b5061028c60048036038101906102879190610d3f565b6104c8565b6040516102999190610d9a565b60405180910390f35b6102aa6104eb565b005b3480156102b857600080fd5b506102d360048036038101906102ce9190610e96565b61054d565b6040516102e09190610dc4565b60405180910390f35b6060600380546102f890610f05565b80601f016020809104026020016040519081016040528092919081815260200182805461032490610f05565b80156103715780601f1061034657610100808354040283529160200191610371565b820191906000526020600020905b81548152906001019060200180831161035457829003601f168201915b5050505050905090565b6000806103866105d4565b90506103938185856105dc565b600191505092915050565b6000600254905090565b6000806103b36105d4565b90506103c08582856105ee565b6103cb858585610682565b60019150509392505050565b60055481565b60006012905090565b600047905090565b60008060008373ffffffffffffffffffffffffffffffffffffffff1673ffffffffffffffffffffffffffffffffffffffff168152602001908152602001600020549050919050565b60606004805461044590610f05565b80601f016020809104026020016040519081016040528092919081815260200182805461047190610f05565b80156104be5780601f10610493576101008083540402835291602001916104be565b820191906000526020600020905b8154815290600101906020018083116104a157829003601f168201915b5050505050905090565b6000806104d36105d4565b90506104e0818585610682565b600191505092915050565b6000341161052e576040517f08c379a000000000000000000000000000000000000000000000000000000000815260040161052590610f82565b60405180910390fd5b60006005543461053e9190610fd1565b905061054a3382610776565b50565b6000600160008473ffffffffffffffffffffffffffffffffffffffff1673ffffffffffffffffffffffffffffffffffffffff16815260200190815260200160002060008373ffffffffffffffffffffffffffffffffffffffff1673ffffffffffffffffffffffffffffffffffffffff16815260200190815260200160002054905092915050565b600033905090565b6105e983838360016107f8565b505050565b60006105fa848461054d565b90507fffffffffffffffffffffffffffffffffffffffffffffffffffffffffffffffff811461067c578181101561066c578281836040517ffb8f41b200000000000000000000000000000000000000000000000000000000815260040161066393929190611022565b60405180910390fd5b61067b848484840360006107f8565b5b50505050565b600073ffffffffffffffffffffffffffffffffffffffff168373ffffffffffffffffffffffffffffffffffffffff16036106f45760006040517f96c6fd1e0000000000000000000000000000000000000000000000000000000081526004016106eb9190611059565b60405180910390fd5b600073ffffffffffffffffffffffffffffffffffffffff168273ffffffffffffffffffffffffffffffffffffffff16036107665760006040517fec442f0500000000000000000000000000000000000000000000000000000000815260040161075d9190611059565b60405180910390fd5b6107718383836109cf565b505050565b600073ffffffffffffffffffffffffffffffffffffffff168273ffffffffffffffffffffffffffffffffffffffff16036107e85760006040517fec442f050000000000000000000000000000000000000000000000000000000081526004016107df9190611059565b60405180910390fd5b6107f4600083836109cf565b5050565b600073ffffffffffffffffffffffffffffffffffffffff168473ffffffffffffffffffffffffffffffffffffffff160361086a5760006040517fe602df050000000000000000000000000000000000000000000000000000000081526004016108619190611059565b60405180910390fd5b600073ffffffffffffffffffffffffffffffffffffffff168373ffffffffffffffffffffffffffffffffffffffff16036108dc5760006040517f94280d620000000000000000000000000000000000000000000000000000000081526004016108d39190611059565b60405180910390fd5b81600160008673ffffffffffffffffffffffffffffffffffffffff1673ffffffffffffffffffffffffffffffffffffffff16815260200190815260200160002060008573ffffffffffffffffffffffffffffffffffffffff1673ffffffffffffffffffffffffffffffffffffffff1681526020019081526020016000208190555080156109c9578273ffffffffffffffffffffffffffffffffffffffff168473ffffffffffffffffffffffffffffffffffffffff167f8c5be1e5ebec7d5bd14f71427d1e84f3dd0314c0f7b2291e5b200ac8c7c3b925846040516109c09190610dc4565b60405180910390a35b50505050565b600073ffffffffffffffffffffffffffffffffffffffff168373ffffffffffffffffffffffffffffffffffffffff1603610a21578060026000828254610a159190611074565b92505081905550610af4565b60008060008573ffffffffffffffffffffffffffffffffffffffff1673ffffffffffffffffffffffffffffffffffffffff16815260200190815260200160002054905081811015610aad578381836040517fe450d38c000000000000000000000000000000000000000000000000000000008152600401610aa493929190611022565b60405180910390fd5b8181036000808673ffffffffffffffffffffffffffffffffffffffff1673ffffffffffffffffffffffffffffffffffffffff16815260200190815260200160002081905550505b600073ffffffffffffffffffffffffffffffffffffffff168273ffffffffffffffffffffffffffffffffffffffff1603610b3d5780600260008282540392505081905550610b8a565b806000808473ffffffffffffffffffffffffffffffffffffffff1673ffffffffffffffffffffffffffffffffffffffff168152602001908152602001600020600082825401925050819055505b8173ffffffffffffffffffffffffffffffffffffffff168373ffffffffffffffffffffffffffffffffffffffff167fddf252ad1be2c89b69c2b068fc378daa952ba7f163c4a11628f55a4df523b3ef83604051610be79190610dc4565b60405180910390a3505050565b600081519050919050565b600082825260208201905092915050565b60005b83811015610c2e578082015181840152602081019050610c13565b60008484015250505050565b6000601f19601f8301169050919050565b6000610c5682610bf4565b610c608185610bff565b9350610c70818560208601610c10565b610c7981610c3a565b840191505092915050565b60006020820190508181036000830152610c9e8184610c4b565b905092915050565b600080fd5b600073ffffffffffffffffffffffffffffffffffffffff82169050919050565b6000610cd682610cab565b9050919050565b610ce681610ccb565b8114610cf157600080fd5b50565b600081359050610d0381610cdd565b92915050565b6000819050919050565b610d1c81610d09565b8114610d2757600080fd5b50565b600081359050610d3981610d13565b92915050565b60008060408385031215610d5657610d55610ca6565b5b6000610d6485828601610cf4565b9250506020610d7585828601610d2a565b9150509250929050565b60008115159050919050565b610d9481610d7f565b82525050565b6000602082019050610daf6000830184610d8b565b92915050565b610dbe81610d09565b82525050565b6000602082019050610dd96000830184610db5565b92915050565b600080600060608486031215610df857610df7610ca6565b5b6000610e0686828701610cf4565b9350506020610e1786828701610cf4565b9250506040610e2886828701610d2a565b9150509250925092565b600060ff82169050919050565b610e4881610e32565b82525050565b6000602082019050610e636000830184610e3f565b92915050565b600060208284031215610e7f57610e7e610ca6565b5b6000610e8d84828501610cf4565b91505092915050565b60008060408385031215610ead57610eac610ca6565b5b6000610ebb85828601610cf4565b9250506020610ecc85828601610cf4565b9150509250929050565b7f4e487b7100000000000000000000000000000000000000000000000000000000600052602260045260246000fd5b60006002820490506001821680610f1d57607f821691505b602082108103610f3057610f2f610ed6565b5b50919050565b7f4d7573742073656e642045544820746f2062757920746f6b656e730000000000600082015250565b6000610f6c601b83610bff565b9150610f7782610f36565b602082019050919050565b60006020820190508181036000830152610f9b81610f5f565b9050919050565b7f4e487b7100000000000000000000000000000000000000000000000000000000600052601160045260246000fd5b6000610fdc82610d09565b9150610fe783610d09565b9250828202610ff581610d09565b9150828204841483151761100c5761100b610fa2565b5b5092915050565b61101c81610ccb565b82525050565b60006060820190506110376000830186611013565b6110446020830185610db5565b6110516040830184610db5565b949350505050565b600060208201905061106e6000830184611013565b92915050565b600061107f82610d09565b915061108a83610d09565b92508282019050808211156110a2576110a1610fa2565b5b9291505056fea2646970667358221220744a381a1500bdae80326f0dc8d17105aaf1fd20f1264052901bd98260775a9e64736f6c63430008140033",
  "linkReferences": {},
  "deployedLinkReferences": {}
}